{
  "_format": "hh3-artifact-1",
  "contractName": "ZKMedicalInsurance",
  "sourceName": "contracts/ZKMedicalInsurance.sol",
  "abi": [
    {
      "inputs": [
        {
          "internalType": "address",
          "name": "verifier_",
          "type": "address"
        }
      ],
      "stateMutability": "nonpayable",
      "type": "constructor"
    },
    {
      "inputs": [],
      "name": "AccessControlBadConfirmation",
      "type": "error"
    },
    {
      "inputs": [
        {
          "internalType": "address",
          "name": "account",
          "type": "address"
        },
        {
          "internalType": "bytes32",
          "name": "neededRole",
          "type": "bytes32"
        }
      ],
      "name": "AccessControlUnauthorizedAccount",
      "type": "error"
    },
    {
      "inputs": [],
      "name": "AmountExceedsCoverage",
      "type": "error"
    },
    {
      "inputs": [],
      "name": "ClaimNotFound",
      "type": "error"
    },
    {
      "inputs": [],
      "name": "ClaimNotInExpectedStatus",
      "type": "error"
    },
    {
      "inputs": [],
      "name": "EnforcedPause",
      "type": "error"
    },
    {
      "inputs": [],
      "name": "ExpectedPause",
      "type": "error"
    },
    {
      "inputs": [],
      "name": "InvalidProof",
      "type": "error"
    },
    {
      "inputs": [],
      "name": "InvalidPublicSignals",
      "type": "error"
    },
    {
      "inputs": [],
      "name": "NotProductInsurer",
      "type": "error"
    },
    {
      "inputs": [],
      "name": "NullifierAlreadyUsed",
      "type": "error"
    },
    {
      "inputs": [],
      "name": "PolicyExpired",
      "type": "error"
    },
    {
      "inputs": [],
      "name": "PolicyNotActive",
      "type": "error"
    },
    {
      "inputs": [],
      "name": "PolicyNotFound",
      "type": "error"
    },
    {
      "inputs": [],
      "name": "PoolInsufficient",
      "type": "error"
    },
    {
      "inputs": [],
      "name": "ProductNotActive",
      "type": "error"
    },
    {
      "inputs": [],
      "name": "ProductNotFound",
      "type": "error"
    },
    {
      "inputs": [],
      "name": "ReentrancyGuardReentrantCall",
      "type": "error"
    },
    {
      "inputs": [
        {
          "internalType": "address",
          "name": "token",
          "type": "address"
        }
      ],
      "name": "SafeERC20FailedOperation",
      "type": "error"
    },
    {
      "inputs": [],
      "name": "Unauthorized",
      "type": "error"
    },
    {
      "inputs": [],
      "name": "ZeroAddress",
      "type": "error"
    },
    {
      "anonymous": false,
      "inputs": [
        {
          "indexed": true,
          "internalType": "uint256",
          "name": "claimId",
          "type": "uint256"
        }
      ],
      "name": "ClaimApproved",
      "type": "event"
    },
    {
      "anonymous": false,
      "inputs": [
        {
          "indexed": true,
          "internalType": "uint256",
          "name": "claimId",
          "type": "uint256"
        },
        {
          "indexed": true,
          "internalType": "address",
          "name": "to",
          "type": "address"
        },
        {
          "indexed": false,
          "internalType": "uint256",
          "name": "amount",
          "type": "uint256"
        }
      ],
      "name": "ClaimPaid",
      "type": "event"
    },
    {
      "anonymous": false,
      "inputs": [
        {
          "indexed": true,
          "internalType": "uint256",
          "name": "claimId",
          "type": "uint256"
        },
        {
          "indexed": false,
          "internalType": "bytes32",
          "name": "decisionMemoHash",
          "type": "bytes32"
        }
      ],
      "name": "ClaimRejected",
      "type": "event"
    },
    {
      "anonymous": false,
      "inputs": [
        {
          "indexed": true,
          "internalType": "uint256",
          "name": "claimId",
          "type": "uint256"
        },
        {
          "indexed": true,
          "internalType": "uint256",
          "name": "policyId",
          "type": "uint256"
        },
        {
          "indexed": true,
          "internalType": "address",
          "name": "claimant",
          "type": "address"
        }
      ],
      "name": "ClaimSubmitted",
      "type": "event"
    },
    {
      "anonymous": false,
      "inputs": [
        {
          "indexed": true,
          "internalType": "uint256",
          "name": "claimId",
          "type": "uint256"
        },
        {
          "indexed": false,
          "internalType": "bytes32",
          "name": "publicSignalsHash",
          "type": "bytes32"
        }
      ],
      "name": "ClaimVerified",
      "type": "event"
    },
    {
      "anonymous": false,
      "inputs": [
        {
          "indexed": false,
          "internalType": "address",
          "name": "account",
          "type": "address"
        }
      ],
      "name": "Paused",
      "type": "event"
    },
    {
      "anonymous": false,
      "inputs": [
        {
          "indexed": true,
          "internalType": "uint256",
          "name": "policyId",
          "type": "uint256"
        },
        {
          "indexed": true,
          "internalType": "uint256",
          "name": "productId",
          "type": "uint256"
        },
        {
          "indexed": true,
          "internalType": "address",
          "name": "holder",
          "type": "address"
        }
      ],
      "name": "PolicyPurchased",
      "type": "event"
    },
    {
      "anonymous": false,
      "inputs": [
        {
          "indexed": true,
          "internalType": "uint256",
          "name": "productId",
          "type": "uint256"
        },
        {
          "indexed": true,
          "internalType": "address",
          "name": "insurer",
          "type": "address"
        },
        {
          "indexed": true,
          "internalType": "address",
          "name": "token",
          "type": "address"
        }
      ],
      "name": "ProductCreated",
      "type": "event"
    },
    {
      "anonymous": false,
      "inputs": [
        {
          "indexed": true,
          "internalType": "uint256",
          "name": "productId",
          "type": "uint256"
        }
      ],
      "name": "ProductUpdated",
      "type": "event"
    },
    {
      "anonymous": false,
      "inputs": [
        {
          "indexed": true,
          "internalType": "bytes32",
          "name": "role",
          "type": "bytes32"
        },
        {
          "indexed": true,
          "internalType": "bytes32",
          "name": "previousAdminRole",
          "type": "bytes32"
        },
        {
          "indexed": true,
          "internalType": "bytes32",
          "name": "newAdminRole",
          "type": "bytes32"
        }
      ],
      "name": "RoleAdminChanged",
      "type": "event"
    },
    {
      "anonymous": false,
      "inputs": [
        {
          "indexed": true,
          "internalType": "bytes32",
          "name": "role",
          "type": "bytes32"
        },
        {
          "indexed": true,
          "internalType": "address",
          "name": "account",
          "type": "address"
        },
        {
          "indexed": true,
          "internalType": "address",
          "name": "sender",
          "type": "address"
        }
      ],
      "name": "RoleGranted",
      "type": "event"
    },
    {
      "anonymous": false,
      "inputs": [
        {
          "indexed": true,
          "internalType": "bytes32",
          "name": "role",
          "type": "bytes32"
        },
        {
          "indexed": true,
          "internalType": "address",
          "name": "account",
          "type": "address"
        },
        {
          "indexed": true,
          "internalType": "address",
          "name": "sender",
          "type": "address"
        }
      ],
      "name": "RoleRevoked",
      "type": "event"
    },
    {
      "anonymous": false,
      "inputs": [
        {
          "indexed": false,
          "internalType": "address",
          "name": "account",
          "type": "address"
        }
      ],
      "name": "Unpaused",
      "type": "event"
    },
    {
      "anonymous": false,
      "inputs": [
        {
          "indexed": true,
          "internalType": "address",
          "name": "oldVerifier",
          "type": "address"
        },
        {
          "indexed": true,
          "internalType": "address",
          "name": "newVerifier",
          "type": "address"
        }
      ],
      "name": "VerifierUpdated",
      "type": "event"
    },
    {
      "inputs": [],
      "name": "DEFAULT_ADMIN_ROLE",
      "outputs": [
        {
          "internalType": "bytes32",
          "name": "",
          "type": "bytes32"
        }
      ],
      "stateMutability": "view",
      "type": "function"
    },
    {
      "inputs": [],
      "name": "HOSPITAL_ROLE",
      "outputs": [
        {
          "internalType": "bytes32",
          "name": "",
          "type": "bytes32"
        }
      ],
      "stateMutability": "view",
      "type": "function"
    },
    {
      "inputs": [],
      "name": "INSURER_ROLE",
      "outputs": [
        {
          "internalType": "bytes32",
          "name": "",
          "type": "bytes32"
        }
      ],
      "stateMutability": "view",
      "type": "function"
    },
    {
      "inputs": [],
      "name": "PAUSER_ROLE",
      "outputs": [
        {
          "internalType": "bytes32",
          "name": "",
          "type": "bytes32"
        }
      ],
      "stateMutability": "view",
      "type": "function"
    },
    {
      "inputs": [
        {
          "internalType": "uint256",
          "name": "claimId",
          "type": "uint256"
        }
      ],
      "name": "approveClaim",
      "outputs": [],
      "stateMutability": "nonpayable",
      "type": "function"
    },
    {
      "inputs": [
        {
          "internalType": "uint256",
          "name": "productId",
          "type": "uint256"
        }
      ],
      "name": "buyPolicy",
      "outputs": [
        {
          "internalType": "uint256",
          "name": "policyId",
          "type": "uint256"
        }
      ],
      "stateMutability": "nonpayable",
      "type": "function"
    },
    {
      "inputs": [
        {
          "internalType": "uint256",
          "name": "",
          "type": "uint256"
        }
      ],
      "name": "claims",
      "outputs": [
        {
          "internalType": "uint256",
          "name": "id",
          "type": "uint256"
        },
        {
          "internalType": "uint256",
          "name": "policyId",
          "type": "uint256"
        },
        {
          "internalType": "address",
          "name": "claimant",
          "type": "address"
        },
        {
          "internalType": "uint256",
          "name": "amount",
          "type": "uint256"
        },
        {
          "internalType": "bytes32",
          "name": "dataHash",
          "type": "bytes32"
        },
        {
          "internalType": "bytes32",
          "name": "nullifier",
          "type": "bytes32"
        },
        {
          "internalType": "bytes32",
          "name": "publicSignalsHash",
          "type": "bytes32"
        },
        {
          "internalType": "enum ZKMedicalInsurance.ClaimStatus",
          "name": "status",
          "type": "uint8"
        },
        {
          "internalType": "uint64",
          "name": "submittedAt",
          "type": "uint64"
        },
        {
          "internalType": "uint64",
          "name": "decidedAt",
          "type": "uint64"
        },
        {
          "internalType": "uint64",
          "name": "paidAt",
          "type": "uint64"
        },
        {
          "internalType": "bytes32",
          "name": "decisionMemoHash",
          "type": "bytes32"
        }
      ],
      "stateMutability": "view",
      "type": "function"
    },
    {
      "inputs": [],
      "name": "claimsCount",
      "outputs": [
        {
          "internalType": "uint256",
          "name": "",
          "type": "uint256"
        }
      ],
      "stateMutability": "view",
      "type": "function"
    },
    {
      "inputs": [
        {
          "internalType": "address",
          "name": "token",
          "type": "address"
        },
        {
          "internalType": "uint256",
          "name": "premiumAmount",
          "type": "uint256"
        },
        {
          "internalType": "uint256",
          "name": "maxCoverage",
          "type": "uint256"
        },
        {
          "internalType": "uint32",
          "name": "coveragePeriodDays",
          "type": "uint32"
        },
        {
          "internalType": "bytes32",
          "name": "coveredRoot",
          "type": "bytes32"
        },
        {
          "internalType": "string",
          "name": "uri",
          "type": "string"
        }
      ],
      "name": "createProduct",
      "outputs": [
        {
          "internalType": "uint256",
          "name": "productId",
          "type": "uint256"
        }
      ],
      "stateMutability": "nonpayable",
      "type": "function"
    },
    {
      "inputs": [
        {
          "internalType": "address",
          "name": "token",
          "type": "address"
        },
        {
          "internalType": "uint256",
          "name": "premiumAmount",
          "type": "uint256"
        },
        {
          "internalType": "uint256",
          "name": "maxCoverage",
          "type": "uint256"
        },
        {
          "internalType": "uint32",
          "name": "coveragePeriodDays",
          "type": "uint32"
        },
        {
          "internalType": "bytes32",
          "name": "coveredRoot",
          "type": "bytes32"
        },
        {
          "internalType": "string",
          "name": "uri",
          "type": "string"
        },
        {
          "internalType": "uint256",
          "name": "initialFunding",
          "type": "uint256"
        }
      ],
      "name": "createProductWithFunding",
      "outputs": [
        {
          "internalType": "uint256",
          "name": "productId",
          "type": "uint256"
        }
      ],
      "stateMutability": "nonpayable",
      "type": "function"
    },
    {
      "inputs": [
        {
          "internalType": "uint256",
          "name": "productId",
          "type": "uint256"
        },
        {
          "internalType": "uint256",
          "name": "amount",
          "type": "uint256"
        }
      ],
      "name": "fundPool",
      "outputs": [],
      "stateMutability": "nonpayable",
      "type": "function"
    },
    {
      "inputs": [
        {
          "internalType": "uint256",
          "name": "cursor",
          "type": "uint256"
        },
        {
          "internalType": "uint256",
          "name": "size",
          "type": "uint256"
        }
      ],
      "name": "getClaimsBriefPage",
      "outputs": [
        {
          "components": [
            {
              "internalType": "uint256",
              "name": "id",
              "type": "uint256"
            },
            {
              "internalType": "uint256",
              "name": "policyId",
              "type": "uint256"
            },
            {
              "internalType": "address",
              "name": "claimant",
              "type": "address"
            },
            {
              "internalType": "uint256",
              "name": "amount",
              "type": "uint256"
            },
            {
              "internalType": "bytes32",
              "name": "dataHash",
              "type": "bytes32"
            },
            {
              "internalType": "bytes32",
              "name": "nullifier",
              "type": "bytes32"
            },
            {
              "internalType": "enum ZKMedicalInsurance.ClaimStatus",
              "name": "status",
              "type": "uint8"
            },
            {
              "internalType": "uint64",
              "name": "submittedAt",
              "type": "uint64"
            }
          ],
          "internalType": "struct ZKMedicalInsurance.ClaimBrief[]",
          "name": "items",
          "type": "tuple[]"
        },
        {
          "internalType": "uint256",
          "name": "nextCursor",
          "type": "uint256"
        }
      ],
      "stateMutability": "view",
      "type": "function"
    },
    {
      "inputs": [
        {
          "internalType": "uint256",
          "name": "cursor",
          "type": "uint256"
        },
        {
          "internalType": "uint256",
          "name": "size",
          "type": "uint256"
        }
      ],
      "name": "getPoliciesBriefPage",
      "outputs": [
        {
          "components": [
            {
              "internalType": "uint256",
              "name": "id",
              "type": "uint256"
            },
            {
              "internalType": "uint256",
              "name": "productId",
              "type": "uint256"
            },
            {
              "internalType": "address",
              "name": "holder",
              "type": "address"
            },
            {
              "internalType": "uint64",
              "name": "startAt",
              "type": "uint64"
            },
            {
              "internalType": "uint64",
              "name": "endAt",
              "type": "uint64"
            },
            {
              "internalType": "enum ZKMedicalInsurance.PolicyStatus",
              "name": "status",
              "type": "uint8"
            }
          ],
          "internalType": "struct ZKMedicalInsurance.PolicyBrief[]",
          "name": "items",
          "type": "tuple[]"
        },
        {
          "internalType": "uint256",
          "name": "nextCursor",
          "type": "uint256"
        }
      ],
      "stateMutability": "view",
      "type": "function"
    },
    {
      "inputs": [
        {
          "internalType": "uint256",
          "name": "productId",
          "type": "uint256"
        }
      ],
      "name": "getProduct",
      "outputs": [
        {
          "components": [
            {
              "internalType": "uint256",
              "name": "id",
              "type": "uint256"
            },
            {
              "internalType": "address",
              "name": "insurer",
              "type": "address"
            },
            {
              "internalType": "address",
              "name": "token",
              "type": "address"
            },
            {
              "internalType": "uint256",
              "name": "premiumAmount",
              "type": "uint256"
            },
            {
              "internalType": "uint256",
              "name": "maxCoverage",
              "type": "uint256"
            },
            {
              "internalType": "uint32",
              "name": "coveragePeriodDays",
              "type": "uint32"
            },
            {
              "internalType": "bytes32",
              "name": "coveredRoot",
              "type": "bytes32"
            },
            {
              "internalType": "bool",
              "name": "active",
              "type": "bool"
            },
            {
              "internalType": "uint64",
              "name": "createdAt",
              "type": "uint64"
            },
            {
              "internalType": "string",
              "name": "uri",
              "type": "string"
            }
          ],
          "internalType": "struct ZKMedicalInsurance.Product",
          "name": "",
          "type": "tuple"
        }
      ],
      "stateMutability": "view",
      "type": "function"
    },
    {
      "inputs": [
        {
          "internalType": "uint256",
          "name": "cursor",
          "type": "uint256"
        },
        {
          "internalType": "uint256",
          "name": "size",
          "type": "uint256"
        }
      ],
      "name": "getProductsBriefPage",
      "outputs": [
        {
          "components": [
            {
              "internalType": "uint256",
              "name": "id",
              "type": "uint256"
            },
            {
              "internalType": "address",
              "name": "insurer",
              "type": "address"
            },
            {
              "internalType": "address",
              "name": "token",
              "type": "address"
            },
            {
              "internalType": "uint256",
              "name": "premiumAmount",
              "type": "uint256"
            },
            {
              "internalType": "uint256",
              "name": "maxCoverage",
              "type": "uint256"
            },
            {
              "internalType": "uint32",
              "name": "coveragePeriodDays",
              "type": "uint32"
            },
            {
              "internalType": "bytes32",
              "name": "coveredRoot",
              "type": "bytes32"
            },
            {
              "internalType": "bool",
              "name": "active",
              "type": "bool"
            }
          ],
          "internalType": "struct ZKMedicalInsurance.ProductBrief[]",
          "name": "items",
          "type": "tuple[]"
        },
        {
          "internalType": "uint256",
          "name": "nextCursor",
          "type": "uint256"
        }
      ],
      "stateMutability": "view",
      "type": "function"
    },
    {
      "inputs": [
        {
          "internalType": "bytes32",
          "name": "role",
          "type": "bytes32"
        }
      ],
      "name": "getRoleAdmin",
      "outputs": [
        {
          "internalType": "bytes32",
          "name": "",
          "type": "bytes32"
        }
      ],
      "stateMutability": "view",
      "type": "function"
    },
    {
      "inputs": [
        {
          "internalType": "address",
          "name": "user",
          "type": "address"
        },
        {
          "internalType": "uint256",
          "name": "cursor",
          "type": "uint256"
        },
        {
          "internalType": "uint256",
          "name": "size",
          "type": "uint256"
        }
      ],
      "name": "getUserClaimIdsPage",
      "outputs": [
        {
          "internalType": "uint256[]",
          "name": "ids",
          "type": "uint256[]"
        },
        {
          "internalType": "uint256",
          "name": "nextCursor",
          "type": "uint256"
        }
      ],
      "stateMutability": "view",
      "type": "function"
    },
    {
      "inputs": [
        {
          "internalType": "address",
          "name": "user",
          "type": "address"
        },
        {
          "internalType": "uint256",
          "name": "cursor",
          "type": "uint256"
        },
        {
          "internalType": "uint256",
          "name": "size",
          "type": "uint256"
        }
      ],
      "name": "getUserPolicyIdsPage",
      "outputs": [
        {
          "internalType": "uint256[]",
          "name": "ids",
          "type": "uint256[]"
        },
        {
          "internalType": "uint256",
          "name": "nextCursor",
          "type": "uint256"
        }
      ],
      "stateMutability": "view",
      "type": "function"
    },
    {
      "inputs": [
        {
          "internalType": "bytes32",
          "name": "role",
          "type": "bytes32"
        },
        {
          "internalType": "address",
          "name": "account",
          "type": "address"
        }
      ],
      "name": "grantRole",
      "outputs": [],
      "stateMutability": "nonpayable",
      "type": "function"
    },
    {
      "inputs": [
        {
          "internalType": "bytes32",
          "name": "role",
          "type": "bytes32"
        },
        {
          "internalType": "address",
          "name": "account",
          "type": "address"
        }
      ],
      "name": "hasRole",
      "outputs": [
        {
          "internalType": "bool",
          "name": "",
          "type": "bool"
        }
      ],
      "stateMutability": "view",
      "type": "function"
    },
    {
      "inputs": [],
      "name": "pause",
      "outputs": [],
      "stateMutability": "nonpayable",
      "type": "function"
    },
    {
      "inputs": [],
      "name": "paused",
      "outputs": [
        {
          "internalType": "bool",
          "name": "",
          "type": "bool"
        }
      ],
      "stateMutability": "view",
      "type": "function"
    },
    {
      "inputs": [
        {
          "internalType": "uint256",
          "name": "claimId",
          "type": "uint256"
        }
      ],
      "name": "payoutClaim",
      "outputs": [],
      "stateMutability": "nonpayable",
      "type": "function"
    },
    {
      "inputs": [
        {
          "internalType": "uint256",
          "name": "",
          "type": "uint256"
        }
      ],
      "name": "policies",
      "outputs": [
        {
          "internalType": "uint256",
          "name": "id",
          "type": "uint256"
        },
        {
          "internalType": "uint256",
          "name": "productId",
          "type": "uint256"
        },
        {
          "internalType": "address",
          "name": "holder",
          "type": "address"
        },
        {
          "internalType": "uint64",
          "name": "startAt",
          "type": "uint64"
        },
        {
          "internalType": "uint64",
          "name": "endAt",
          "type": "uint64"
        },
        {
          "internalType": "enum ZKMedicalInsurance.PolicyStatus",
          "name": "status",
          "type": "uint8"
        },
        {
          "internalType": "uint64",
          "name": "createdAt",
          "type": "uint64"
        }
      ],
      "stateMutability": "view",
      "type": "function"
    },
    {
      "inputs": [],
      "name": "policiesCount",
      "outputs": [
        {
          "internalType": "uint256",
          "name": "",
          "type": "uint256"
        }
      ],
      "stateMutability": "view",
      "type": "function"
    },
    {
      "inputs": [
        {
          "internalType": "uint256",
          "name": "",
          "type": "uint256"
        }
      ],
      "name": "productPool",
      "outputs": [
        {
          "internalType": "uint256",
          "name": "",
          "type": "uint256"
        }
      ],
      "stateMutability": "view",
      "type": "function"
    },
    {
      "inputs": [
        {
          "internalType": "uint256",
          "name": "",
          "type": "uint256"
        }
      ],
      "name": "products",
      "outputs": [
        {
          "internalType": "uint256",
          "name": "id",
          "type": "uint256"
        },
        {
          "internalType": "address",
          "name": "insurer",
          "type": "address"
        },
        {
          "internalType": "address",
          "name": "token",
          "type": "address"
        },
        {
          "internalType": "uint256",
          "name": "premiumAmount",
          "type": "uint256"
        },
        {
          "internalType": "uint256",
          "name": "maxCoverage",
          "type": "uint256"
        },
        {
          "internalType": "uint32",
          "name": "coveragePeriodDays",
          "type": "uint32"
        },
        {
          "internalType": "bytes32",
          "name": "coveredRoot",
          "type": "bytes32"
        },
        {
          "internalType": "bool",
          "name": "active",
          "type": "bool"
        },
        {
          "internalType": "uint64",
          "name": "createdAt",
          "type": "uint64"
        },
        {
          "internalType": "string",
          "name": "uri",
          "type": "string"
        }
      ],
      "stateMutability": "view",
      "type": "function"
    },
    {
      "inputs": [],
      "name": "productsCount",
      "outputs": [
        {
          "internalType": "uint256",
          "name": "",
          "type": "uint256"
        }
      ],
      "stateMutability": "view",
      "type": "function"
    },
    {
      "inputs": [
        {
          "internalType": "uint256",
          "name": "claimId",
          "type": "uint256"
        },
        {
          "internalType": "bytes32",
          "name": "decisionMemoHash",
          "type": "bytes32"
        }
      ],
      "name": "rejectClaim",
      "outputs": [],
      "stateMutability": "nonpayable",
      "type": "function"
    },
    {
      "inputs": [
        {
          "internalType": "bytes32",
          "name": "role",
          "type": "bytes32"
        },
        {
          "internalType": "address",
          "name": "callerConfirmation",
          "type": "address"
        }
      ],
      "name": "renounceRole",
      "outputs": [],
      "stateMutability": "nonpayable",
      "type": "function"
    },
    {
      "inputs": [
        {
          "internalType": "bytes32",
          "name": "role",
          "type": "bytes32"
        },
        {
          "internalType": "address",
          "name": "account",
          "type": "address"
        }
      ],
      "name": "revokeRole",
      "outputs": [],
      "stateMutability": "nonpayable",
      "type": "function"
    },
    {
      "inputs": [
        {
          "internalType": "uint256",
          "name": "productId",
          "type": "uint256"
        },
        {
          "internalType": "bool",
          "name": "active",
          "type": "bool"
        }
      ],
      "name": "setProductActive",
      "outputs": [],
      "stateMutability": "nonpayable",
      "type": "function"
    },
    {
      "inputs": [
        {
          "internalType": "address",
          "name": "verifier_",
          "type": "address"
        }
      ],
      "name": "setVerifier",
      "outputs": [],
      "stateMutability": "nonpayable",
      "type": "function"
    },
    {
      "inputs": [
        {
          "internalType": "uint256",
          "name": "policyId",
          "type": "uint256"
        },
        {
          "internalType": "uint256",
          "name": "amount",
          "type": "uint256"
        },
        {
          "internalType": "bytes32",
          "name": "dataHash",
          "type": "bytes32"
        },
        {
          "internalType": "bytes32",
          "name": "nullifier",
          "type": "bytes32"
        },
        {
          "internalType": "uint256[2]",
          "name": "a",
          "type": "uint256[2]"
        },
        {
          "internalType": "uint256[2][2]",
          "name": "b",
          "type": "uint256[2][2]"
        },
        {
          "internalType": "uint256[2]",
          "name": "c",
          "type": "uint256[2]"
        },
        {
          "internalType": "uint256[5]",
          "name": "input",
          "type": "uint256[5]"
        }
      ],
      "name": "submitClaimWithProof",
      "outputs": [
        {
          "internalType": "uint256",
          "name": "claimId",
          "type": "uint256"
        }
      ],
      "stateMutability": "nonpayable",
      "type": "function"
    },
    {
      "inputs": [
        {
          "internalType": "bytes4",
          "name": "interfaceId",
          "type": "bytes4"
        }
      ],
      "name": "supportsInterface",
      "outputs": [
        {
          "internalType": "bool",
          "name": "",
          "type": "bool"
        }
      ],
      "stateMutability": "view",
      "type": "function"
    },
    {
      "inputs": [],
      "name": "unpause",
      "outputs": [],
      "stateMutability": "nonpayable",
      "type": "function"
    },
    {
      "inputs": [
        {
          "internalType": "uint256",
          "name": "productId",
          "type": "uint256"
        },
        {
          "internalType": "bytes32",
          "name": "newRoot",
          "type": "bytes32"
        }
      ],
      "name": "updateCoveredRoot",
      "outputs": [],
      "stateMutability": "nonpayable",
      "type": "function"
    },
    {
      "inputs": [
        {
          "internalType": "bytes32",
          "name": "",
          "type": "bytes32"
        }
      ],
      "name": "usedNullifier",
      "outputs": [
        {
          "internalType": "bool",
          "name": "",
          "type": "bool"
        }
      ],
      "stateMutability": "view",
      "type": "function"
    },
    {
      "inputs": [
        {
          "internalType": "address",
          "name": "user",
          "type": "address"
        }
      ],
      "name": "userClaimsCount",
      "outputs": [
        {
          "internalType": "uint256",
          "name": "",
          "type": "uint256"
        }
      ],
      "stateMutability": "view",
      "type": "function"
    },
    {
      "inputs": [
        {
          "internalType": "address",
          "name": "user",
          "type": "address"
        }
      ],
      "name": "userPoliciesCount",
      "outputs": [
        {
          "internalType": "uint256",
          "name": "",
          "type": "uint256"
        }
      ],
      "stateMutability": "view",
      "type": "function"
    },
    {
      "inputs": [],
      "name": "verifier",
      "outputs": [
        {
          "internalType": "contract IGroth16Verifier",
          "name": "",
          "type": "address"
        }
      ],
      "stateMutability": "view",
      "type": "function"
    }
  ],
  "bytecode": "0x608060405234801561000f575f5ffd5b50604051615d75380380615d75833981810160405281019061003191906103a1565b60016002819055505f73ffffffffffffffffffffffffffffffffffffffff168173ffffffffffffffffffffffffffffffffffffffff160361009e576040517fd92e233d00000000000000000000000000000000000000000000000000000000815260040160405180910390fd5b8060035f6101000a81548173ffffffffffffffffffffffffffffffffffffffff021916908373ffffffffffffffffffffffffffffffffffffffff1602179055508073ffffffffffffffffffffffffffffffffffffffff165f73ffffffffffffffffffffffffffffffffffffffff167f0243549a92b2412f7a3caf7a2e56d65b8821b91345363faa5f57195384065fcc60405160405180910390a361014a5f5f1b336101e460201b60201c565b5061017b7feb0a07781e3ee843c0d85f7381c2e1a1e1a6ea86bcdcd944ef649d46e7dcd972336101e460201b60201c565b506101ac7fc8f5b4140cca307cd927e59cbeea8291bffeee228fc677f0fa059aef7b4dd8d5336101e460201b60201c565b506101dd7f65d7a28e3265b37a6474929f336521b332c1681b933f6cb9f3376673440d862a336101e460201b60201c565b50506103cc565b5f6101f583836102d960201b60201c565b6102cf5760015f5f8581526020019081526020015f205f015f8473ffffffffffffffffffffffffffffffffffffffff1673ffffffffffffffffffffffffffffffffffffffff1681526020019081526020015f205f6101000a81548160ff02191690831515021790555061026c61033c60201b60201c565b73ffffffffffffffffffffffffffffffffffffffff168273ffffffffffffffffffffffffffffffffffffffff16847f2f8788117e7eff1d82e926ec794901d17c78024a50270940304540a733656f0d60405160405180910390a4600190506102d3565b5f90505b92915050565b5f5f5f8481526020019081526020015f205f015f8373ffffffffffffffffffffffffffffffffffffffff1673ffffffffffffffffffffffffffffffffffffffff1681526020019081526020015f205f9054906101000a900460ff16905092915050565b5f33905090565b5f5ffd5b5f73ffffffffffffffffffffffffffffffffffffffff82169050919050565b5f61037082610347565b9050919050565b61038081610366565b811461038a575f5ffd5b50565b5f8151905061039b81610377565b92915050565b5f602082840312156103b6576103b5610343565b5b5f6103c38482850161038d565b91505092915050565b61599c806103d95f395ff3fe608060405234801561000f575f5ffd5b5060043610610251575f3560e01c80638106208011610144578063d3e89483116100c1578063e695898211610085578063e695898214610773578063e6cf0b90146107a3578063eaf800fa146107d4578063f0a3c76314610804578063f6909c7414610820578063f6ba66781461085057610251565b8063d3e89483146106b5578063d547741f146106eb578063e0df7bb614610707578063e63ab1e914610725578063e64fa3f81461074357610251565b8063a217fddf11610108578063a217fddf146105dd578063a888c2cd146105fb578063a95355d414610636578063b9db15b414610667578063bbd245ea1461069757610251565b8063810620801461053a5780638456cb591461055657806385df20131461056057806391d14854146105915780639280eab8146105c157610251565b80632f2ff15d116101d2578063561a5d5a11610196578063561a5d5a146104675780635acd6fac146104975780635c975abb146104b357806379c88894146104d15780637acc0b201461050157610251565b80632f2ff15d146103ed57806336568abe146104095780633f4ba83a1461042557806346e301351461042f5780635437988d1461044b57610251565b8063248a9ca311610219578063248a9ca31461030e57806327395aad1461033e5780632a053b3e1461036e5780632b7ac3f31461039e5780632f0e33a5146103bc57610251565b806301ffc9a714610255578063056c9989146102855780630a131d7e146102a35780630b100a5a146102d45780630d13fa5a146102f2575b5f5ffd5b61026f600480360381019061026a91906141d2565b61086e565b60405161027c9190614217565b60405180910390f35b61028d6108e7565b60405161029a9190614248565b60405180910390f35b6102bd60048036038101906102b89190614294565b61090b565b6040516102cb92919061451c565b60405180910390f35b6102dc610ab6565b6040516102e9919061454a565b60405180910390f35b61030c60048036038101906103079190614563565b610ac2565b005b610328600480360381019061032391906145b8565b610d6f565b6040516103359190614248565b60405180910390f35b610358600480360381019061035391906146a7565b610d8b565b604051610365919061454a565b60405180910390f35b61038860048036038101906103839190614751565b6110e0565b604051610395919061454a565b60405180910390f35b6103a661112d565b6040516103b391906147d7565b60405180910390f35b6103d660048036038101906103d191906147f0565b611152565b6040516103e49291906148e8565b60405180910390f35b61040760048036038101906104029190614916565b6111a8565b005b610423600480360381019061041e9190614916565b6111ca565b005b61042d611245565b005b61044960048036038101906104449190614563565b61127a565b005b61046560048036038101906104609190614751565b6113da565b005b610481600480360381019061047c9190614751565b61150f565b60405161048e919061454a565b60405180910390f35b6104b160048036038101906104ac9190614294565b61155c565b005b6104bb61164d565b6040516104c89190614217565b60405180910390f35b6104eb60048036038101906104e69190614563565b611662565b6040516104f8919061454a565b60405180910390f35b61051b60048036038101906105169190614563565b611a01565b6040516105319a999897969594939291906149f1565b60405180910390f35b610554600480360381019061054f9190614abc565b611b44565b005b61055e611bd9565b005b61057a60048036038101906105759190614294565b611c0e565b604051610588929190614c61565b60405180910390f35b6105ab60048036038101906105a69190614916565b611dd5565b6040516105b89190614217565b60405180910390f35b6105db60048036038101906105d69190614c8f565b611e38565b005b6105e5611ebb565b6040516105f29190614248565b60405180910390f35b61061560048036038101906106109190614563565b611ec1565b60405161062d9c9b9a99989796959493929190614cdc565b60405180910390f35b610650600480360381019061064b9190614294565b611f84565b60405161065e929190614efb565b60405180910390f35b610681600480360381019061067c9190614563565b612138565b60405161068e9190615048565b60405180910390f35b61069f612333565b6040516106ac919061454a565b60405180910390f35b6106cf60048036038101906106ca9190614563565b61233f565b6040516106e29796959493929190615077565b60405180910390f35b61070560048036038101906107009190614916565b6123e4565b005b61070f612406565b60405161071c919061454a565b60405180910390f35b61072d612412565b60405161073a9190614248565b60405180910390f35b61075d600480360381019061075891906150e4565b612436565b60405161076a919061454a565b60405180910390f35b61078d60048036038101906107889190615204565b612816565b60405161079a919061454a565b60405180910390f35b6107bd60048036038101906107b891906147f0565b613120565b6040516107cb9291906148e8565b60405180910390f35b6107ee60048036038101906107e99190614563565b613176565b6040516107fb919061454a565b60405180910390f35b61081e60048036038101906108199190614c8f565b61318b565b005b61083a600480360381019061083591906145b8565b613300565b6040516108479190614217565b60405180910390f35b61085861331d565b6040516108659190614248565b60405180910390f35b5f7f7965db0b000000000000000000000000000000000000000000000000000000007bffffffffffffffffffffffffffffffffffffffffffffffffffffffff1916827bffffffffffffffffffffffffffffffffffffffffffffffffffffffff191614806108e057506108df82613341565b5b9050919050565b7feb0a07781e3ee843c0d85f7381c2e1a1e1a6ea86bcdcd944ef649d46e7dcd97281565b60605f5f5f61091c600c87876133aa565b91509150815167ffffffffffffffff81111561093b5761093a6152b7565b5b60405190808252806020026020018201604052801561097457816020015b610961613fa1565b8152602001906001900390816109595790505b5093505f5f90505b8251811015610aa9575f60095f85848151811061099c5761099b6152e4565b5b602002602001015181526020019081526020015f209050604051806101000160405280825f0154815260200182600101548152602001826002015f9054906101000a900473ffffffffffffffffffffffffffffffffffffffff1673ffffffffffffffffffffffffffffffffffffffff168152602001826003015481526020018260040154815260200182600501548152602001826007015f9054906101000a900460ff166004811115610a5257610a51614358565b5b81526020018260070160019054906101000a900467ffffffffffffffff1667ffffffffffffffff16815250868381518110610a9057610a8f6152e4565b5b602002602001018190525050808060010191505061097c565b5080925050509250929050565b5f600b80549050905090565b610aca6134f0565b610ad2613531565b7feb0a07781e3ee843c0d85f7381c2e1a1e1a6ea86bcdcd944ef649d46e7dcd972610afc81613575565b5f610b0683613589565b905060026004811115610b1c57610b1b614358565b5b816007015f9054906101000a900460ff166004811115610b3f57610b3e614358565b5b14610b76576040517ff8d3970b00000000000000000000000000000000000000000000000000000000815260040160405180910390fd5b5f610b84826001015461362a565b90505f816001015490505f610b98826136cb565b9050610ba38161376c565b836003015460105f8481526020019081526020015f20541015610bf2576040517fa5e3626000000000000000000000000000000000000000000000000000000000815260040160405180910390fd5b836003015460105f8481526020019081526020015f205f828254610c16919061533e565b92505081905550610c92846002015f9054906101000a900473ffffffffffffffffffffffffffffffffffffffff168560030154836002015f9054906101000a900473ffffffffffffffffffffffffffffffffffffffff1673ffffffffffffffffffffffffffffffffffffffff166138909092919063ffffffff16565b6004846007015f6101000a81548160ff02191690836004811115610cb957610cb8614358565b5b0217905550428460070160116101000a81548167ffffffffffffffff021916908367ffffffffffffffff160217905550836002015f9054906101000a900473ffffffffffffffffffffffffffffffffffffffff1673ffffffffffffffffffffffffffffffffffffffff16867faf3c8fdd75d667f71d36d7840b8ef9086c516c9b047ad6a83a5a66151342123a8660030154604051610d57919061454a565b60405180910390a35050505050610d6c61390f565b50565b5f5f5f8381526020019081526020015f20600101549050919050565b5f610d946134f0565b7feb0a07781e3ee843c0d85f7381c2e1a1e1a6ea86bcdcd944ef649d46e7dcd972610dbe81613575565b5f73ffffffffffffffffffffffffffffffffffffffff168973ffffffffffffffffffffffffffffffffffffffff1603610e23576040517fd92e233d00000000000000000000000000000000000000000000000000000000815260040160405180910390fd5b60045f8154610e3190615371565b91905081905591506040518061014001604052808381526020013373ffffffffffffffffffffffffffffffffffffffff1681526020018a73ffffffffffffffffffffffffffffffffffffffff1681526020018981526020018881526020018763ffffffff1681526020018681526020016001151581526020014267ffffffffffffffff16815260200185858080601f0160208091040260200160405190810160405280939291908181526020018383808284375f81840152601f19601f8201169050808301925050505050505081525060075f8481526020019081526020015f205f820151815f01556020820151816001015f6101000a81548173ffffffffffffffffffffffffffffffffffffffff021916908373ffffffffffffffffffffffffffffffffffffffff1602179055506040820151816002015f6101000a81548173ffffffffffffffffffffffffffffffffffffffff021916908373ffffffffffffffffffffffffffffffffffffffff160217905550606082015181600301556080820151816004015560a0820151816005015f6101000a81548163ffffffff021916908363ffffffff16021790555060c0820151816006015560e0820151816007015f6101000a81548160ff0219169083151502179055506101008201518160070160016101000a81548167ffffffffffffffff021916908367ffffffffffffffff16021790555061012082015181600801908161104f91906155ac565b50905050600a82908060018154018082558091505060019003905f5260205f20015f90919091909150558873ffffffffffffffffffffffffffffffffffffffff163373ffffffffffffffffffffffffffffffffffffffff16837f7ab02de634eab482e2fbc93c329fcb207ffde846ca6d47490afba62fac40266960405160405180910390a450979650505050505050565b5f611126600d5f8473ffffffffffffffffffffffffffffffffffffffff1673ffffffffffffffffffffffffffffffffffffffff1681526020019081526020015f20613919565b9050919050565b60035f9054906101000a900473ffffffffffffffffffffffffffffffffffffffff1681565b60605f61119c600d5f8773ffffffffffffffffffffffffffffffffffffffff1673ffffffffffffffffffffffffffffffffffffffff1681526020019081526020015f20858561392c565b91509150935093915050565b6111b182610d6f565b6111ba81613575565b6111c48383613a6d565b50505050565b6111d2613b56565b73ffffffffffffffffffffffffffffffffffffffff168173ffffffffffffffffffffffffffffffffffffffff1614611236576040517f6697b23200000000000000000000000000000000000000000000000000000000815260040160405180910390fd5b6112408282613b5d565b505050565b7f65d7a28e3265b37a6474929f336521b332c1681b933f6cb9f3376673440d862a61126f81613575565b611277613c46565b50565b6112826134f0565b7feb0a07781e3ee843c0d85f7381c2e1a1e1a6ea86bcdcd944ef649d46e7dcd9726112ac81613575565b5f6112b683613589565b9050600160048111156112cc576112cb614358565b5b816007015f9054906101000a900460ff1660048111156112ef576112ee614358565b5b14611326576040517ff8d3970b00000000000000000000000000000000000000000000000000000000815260040160405180910390fd5b5f611334826001015461362a565b6001015490505f611344826136cb565b905061134f8161376c565b6002836007015f6101000a81548160ff0219169083600481111561137657611375614358565b5b0217905550428360070160096101000a81548167ffffffffffffffff021916908367ffffffffffffffff160217905550847fd2d0ed0cccc8615643ade1eff3929a29ed8df75ebca85a3996e311c9b69e228960405160405180910390a25050505050565b5f5f1b6113e681613575565b5f73ffffffffffffffffffffffffffffffffffffffff168273ffffffffffffffffffffffffffffffffffffffff160361144b576040517fd92e233d00000000000000000000000000000000000000000000000000000000815260040160405180910390fd5b5f60035f9054906101000a900473ffffffffffffffffffffffffffffffffffffffff1690508260035f6101000a81548173ffffffffffffffffffffffffffffffffffffffff021916908373ffffffffffffffffffffffffffffffffffffffff1602179055508273ffffffffffffffffffffffffffffffffffffffff168173ffffffffffffffffffffffffffffffffffffffff167f0243549a92b2412f7a3caf7a2e56d65b8821b91345363faa5f57195384065fcc60405160405180910390a3505050565b5f611555600e5f8473ffffffffffffffffffffffffffffffffffffffff1673ffffffffffffffffffffffffffffffffffffffff1681526020019081526020015f20613919565b9050919050565b6115646134f0565b7feb0a07781e3ee843c0d85f7381c2e1a1e1a6ea86bcdcd944ef649d46e7dcd97261158e81613575565b5f611598846136cb565b90506115a38161376c565b6115f3333085846002015f9054906101000a900473ffffffffffffffffffffffffffffffffffffffff1673ffffffffffffffffffffffffffffffffffffffff16613ca7909392919063ffffffff16565b8260105f8681526020019081526020015f205f828254611613919061567b565b92505081905550837feca6714fcf568fb34cf9db4a414cb0cc48e93c5d4e1ba0582a46ea3704cf24d560405160405180910390a250505050565b5f60015f9054906101000a900460ff16905090565b5f61166b6134f0565b611673613531565b5f61167d836136cb565b9050806007015f9054906101000a900460ff166116c6576040517f2cdd618700000000000000000000000000000000000000000000000000000000815260040160405180910390fd5b61171a33308360030154846002015f9054906101000a900473ffffffffffffffffffffffffffffffffffffffff1673ffffffffffffffffffffffffffffffffffffffff16613ca7909392919063ffffffff16565b806003015460105f8581526020019081526020015f205f82825461173e919061567b565b9250508190555060055f815461175390615371565b91905081905591505f4290505f62015180836005015f9054906101000a900463ffffffff1663ffffffff1661178891906156ae565b42611793919061567b565b90506040518060e001604052808581526020018681526020013373ffffffffffffffffffffffffffffffffffffffff1681526020018367ffffffffffffffff1681526020018267ffffffffffffffff1681526020015f60028111156117fb576117fa614358565b5b81526020014267ffffffffffffffff1681525060085f8681526020019081526020015f205f820151815f0155602082015181600101556040820151816002015f6101000a81548173ffffffffffffffffffffffffffffffffffffffff021916908373ffffffffffffffffffffffffffffffffffffffff16021790555060608201518160020160146101000a81548167ffffffffffffffff021916908367ffffffffffffffff1602179055506080820151816003015f6101000a81548167ffffffffffffffff021916908367ffffffffffffffff16021790555060a08201518160030160086101000a81548160ff021916908360028111156118ff576118fe614358565b5b021790555060c08201518160030160096101000a81548167ffffffffffffffff021916908367ffffffffffffffff160217905550905050600b84908060018154018082558091505060019003905f5260205f20015f90919091909150556119ab84600d5f3373ffffffffffffffffffffffffffffffffffffffff1673ffffffffffffffffffffffffffffffffffffffff1681526020019081526020015f20613d2990919063ffffffff16565b503373ffffffffffffffffffffffffffffffffffffffff1685857fa1e004b771d2bfa9498a1f952d363a2b88201b708e272e7bdd675dfa7941e36560405160405180910390a45050506119fc61390f565b919050565b6007602052805f5260405f205f91509050805f015490806001015f9054906101000a900473ffffffffffffffffffffffffffffffffffffffff1690806002015f9054906101000a900473ffffffffffffffffffffffffffffffffffffffff1690806003015490806004015490806005015f9054906101000a900463ffffffff1690806006015490806007015f9054906101000a900460ff16908060070160019054906101000a900467ffffffffffffffff1690806008018054611ac3906153e5565b80601f0160208091040260200160405190810160405280929190818152602001828054611aef906153e5565b8015611b3a5780601f10611b1157610100808354040283529160200191611b3a565b820191905f5260205f20905b815481529060010190602001808311611b1d57829003601f168201915b505050505090508a565b611b4c6134f0565b7feb0a07781e3ee843c0d85f7381c2e1a1e1a6ea86bcdcd944ef649d46e7dcd972611b7681613575565b5f611b80846136cb565b9050611b8b8161376c565b82816007015f6101000a81548160ff021916908315150217905550837feca6714fcf568fb34cf9db4a414cb0cc48e93c5d4e1ba0582a46ea3704cf24d560405160405180910390a250505050565b7f65d7a28e3265b37a6474929f336521b332c1681b933f6cb9f3376673440d862a611c0381613575565b611c0b613d40565b50565b60605f5f5f611c1f600a87876133aa565b91509150815167ffffffffffffffff811115611c3e57611c3d6152b7565b5b604051908082528060200260200182016040528015611c7757816020015b611c64614010565b815260200190600190039081611c5c5790505b5093505f5f90505b8251811015611dc8575f60075f858481518110611c9f57611c9e6152e4565b5b602002602001015181526020019081526020015f209050604051806101000160405280825f01548152602001826001015f9054906101000a900473ffffffffffffffffffffffffffffffffffffffff1673ffffffffffffffffffffffffffffffffffffffff168152602001826002015f9054906101000a900473ffffffffffffffffffffffffffffffffffffffff1673ffffffffffffffffffffffffffffffffffffffff1681526020018260030154815260200182600401548152602001826005015f9054906101000a900463ffffffff1663ffffffff16815260200182600601548152602001826007015f9054906101000a900460ff161515815250868381518110611daf57611dae6152e4565b5b6020026020010181905250508080600101915050611c7f565b5080925050509250929050565b5f5f5f8481526020019081526020015f205f015f8373ffffffffffffffffffffffffffffffffffffffff1673ffffffffffffffffffffffffffffffffffffffff1681526020019081526020015f205f9054906101000a900460ff16905092915050565b611e406134f0565b7feb0a07781e3ee843c0d85f7381c2e1a1e1a6ea86bcdcd944ef649d46e7dcd972611e6a81613575565b5f611e74846136cb565b9050611e7f8161376c565b828160060181905550837feca6714fcf568fb34cf9db4a414cb0cc48e93c5d4e1ba0582a46ea3704cf24d560405160405180910390a250505050565b5f5f1b81565b6009602052805f5260405f205f91509050805f015490806001015490806002015f9054906101000a900473ffffffffffffffffffffffffffffffffffffffff1690806003015490806004015490806005015490806006015490806007015f9054906101000a900460ff16908060070160019054906101000a900467ffffffffffffffff16908060070160099054906101000a900467ffffffffffffffff16908060070160119054906101000a900467ffffffffffffffff1690806008015490508c565b60605f5f5f611f95600b87876133aa565b91509150815167ffffffffffffffff811115611fb457611fb36152b7565b5b604051908082528060200260200182016040528015611fed57816020015b611fda614081565b815260200190600190039081611fd25790505b5093505f5f90505b825181101561212b575f60085f858481518110612015576120146152e4565b5b602002602001015181526020019081526020015f2090506040518060c00160405280825f0154815260200182600101548152602001826002015f9054906101000a900473ffffffffffffffffffffffffffffffffffffffff1673ffffffffffffffffffffffffffffffffffffffff1681526020018260020160149054906101000a900467ffffffffffffffff1667ffffffffffffffff168152602001826003015f9054906101000a900467ffffffffffffffff1667ffffffffffffffff1681526020018260030160089054906101000a900460ff1660028111156120fc576120fb614358565b5b815250868381518110612112576121116152e4565b5b6020026020010181905250508080600101915050611ff5565b5080925050509250929050565b6121406140ed565b5f61214a836136cb565b905080604051806101400160405290815f8201548152602001600182015f9054906101000a900473ffffffffffffffffffffffffffffffffffffffff1673ffffffffffffffffffffffffffffffffffffffff1673ffffffffffffffffffffffffffffffffffffffff168152602001600282015f9054906101000a900473ffffffffffffffffffffffffffffffffffffffff1673ffffffffffffffffffffffffffffffffffffffff1673ffffffffffffffffffffffffffffffffffffffff1681526020016003820154815260200160048201548152602001600582015f9054906101000a900463ffffffff1663ffffffff1663ffffffff16815260200160068201548152602001600782015f9054906101000a900460ff161515151581526020016007820160019054906101000a900467ffffffffffffffff1667ffffffffffffffff1667ffffffffffffffff1681526020016008820180546122ab906153e5565b80601f01602080910402602001604051908101604052809291908181526020018280546122d7906153e5565b80156123225780601f106122f957610100808354040283529160200191612322565b820191905f5260205f20905b81548152906001019060200180831161230557829003601f168201915b505050505081525050915050919050565b5f600c80549050905090565b6008602052805f5260405f205f91509050805f015490806001015490806002015f9054906101000a900473ffffffffffffffffffffffffffffffffffffffff16908060020160149054906101000a900467ffffffffffffffff1690806003015f9054906101000a900467ffffffffffffffff16908060030160089054906101000a900460ff16908060030160099054906101000a900467ffffffffffffffff16905087565b6123ed82610d6f565b6123f681613575565b6124008383613b5d565b50505050565b5f600a80549050905090565b7f65d7a28e3265b37a6474929f336521b332c1681b933f6cb9f3376673440d862a81565b5f61243f6134f0565b7feb0a07781e3ee843c0d85f7381c2e1a1e1a6ea86bcdcd944ef649d46e7dcd97261246981613575565b5f73ffffffffffffffffffffffffffffffffffffffff168a73ffffffffffffffffffffffffffffffffffffffff16036124ce576040517fd92e233d00000000000000000000000000000000000000000000000000000000815260040160405180910390fd5b60045f81546124dc90615371565b91905081905591506040518061014001604052808381526020013373ffffffffffffffffffffffffffffffffffffffff1681526020018b73ffffffffffffffffffffffffffffffffffffffff1681526020018a81526020018981526020018863ffffffff1681526020018781526020016001151581526020014267ffffffffffffffff16815260200186868080601f0160208091040260200160405190810160405280939291908181526020018383808284375f81840152601f19601f8201169050808301925050505050505081525060075f8481526020019081526020015f205f820151815f01556020820151816001015f6101000a81548173ffffffffffffffffffffffffffffffffffffffff021916908373ffffffffffffffffffffffffffffffffffffffff1602179055506040820151816002015f6101000a81548173ffffffffffffffffffffffffffffffffffffffff021916908373ffffffffffffffffffffffffffffffffffffffff160217905550606082015181600301556080820151816004015560a0820151816005015f6101000a81548163ffffffff021916908363ffffffff16021790555060c0820151816006015560e0820151816007015f6101000a81548160ff0219169083151502179055506101008201518160070160016101000a81548167ffffffffffffffff021916908367ffffffffffffffff1602179055506101208201518160080190816126fa91906155ac565b50905050600a82908060018154018082558091505060019003905f5260205f20015f90919091909150558973ffffffffffffffffffffffffffffffffffffffff163373ffffffffffffffffffffffffffffffffffffffff16837f7ab02de634eab482e2fbc93c329fcb207ffde846ca6d47490afba62fac40266960405160405180910390a45f831115612809576127b43330858d73ffffffffffffffffffffffffffffffffffffffff16613ca7909392919063ffffffff16565b8260105f8481526020019081526020015f205f8282546127d4919061567b565b92505081905550817feca6714fcf568fb34cf9db4a414cb0cc48e93c5d4e1ba0582a46ea3704cf24d560405160405180910390a25b5098975050505050505050565b5f61281f6134f0565b612827613531565b5f6128318a61362a565b90505f600281111561284657612845614358565b5b8160030160089054906101000a900460ff16600281111561286a57612869614358565b5b146128a1576040517f8966b51f00000000000000000000000000000000000000000000000000000000815260040160405180910390fd5b806003015f9054906101000a900467ffffffffffffffff1667ffffffffffffffff164211156128fc576040517f9c5bebca00000000000000000000000000000000000000000000000000000000815260040160405180910390fd5b806002015f9054906101000a900473ffffffffffffffffffffffffffffffffffffffff1673ffffffffffffffffffffffffffffffffffffffff163373ffffffffffffffffffffffffffffffffffffffff161415801561298257506129807fc8f5b4140cca307cd927e59cbeea8291bffeee228fc677f0fa059aef7b4dd8d533611dd5565b155b156129b9576040517f82b4290000000000000000000000000000000000000000000000000000000000815260040160405180910390fd5b5f6129c782600101546136cb565b9050806007015f9054906101000a900460ff16612a10576040517f2cdd618700000000000000000000000000000000000000000000000000000000815260040160405180910390fd5b80600401548a1115612a4e576040517faa9cc79b00000000000000000000000000000000000000000000000000000000815260040160405180910390fd5b600f5f8981526020019081526020015f205f9054906101000a900460ff1615612aa3576040517fcad2ae0200000000000000000000000000000000000000000000000000000000815260040160405180910390fd5b5f7f30644e72e131a029b85045b68181585d2833e84879b9709143e1f593f00000018a5f1c612ad2919061571c565b90508b855f60058110612ae857612ae76152e4565b5b602002013514612b24576040517fbf52ac6c00000000000000000000000000000000000000000000000000000000815260040160405180910390fd5b8a85600160058110612b3957612b386152e4565b5b602002013514612b75576040517fbf52ac6c00000000000000000000000000000000000000000000000000000000815260040160405180910390fd5b8085600260058110612b8a57612b896152e4565b5b602002013514612bc6576040517fbf52ac6c00000000000000000000000000000000000000000000000000000000815260040160405180910390fd5b81600601545f1c85600360058110612be157612be06152e4565b5b602002013514612c1d576040517fbf52ac6c00000000000000000000000000000000000000000000000000000000815260040160405180910390fd5b885f1c85600460058110612c3457612c336152e4565b5b602002013514612c70576040517fbf52ac6c00000000000000000000000000000000000000000000000000000000815260040160405180910390fd5b5f60035f9054906101000a900473ffffffffffffffffffffffffffffffffffffffff1673ffffffffffffffffffffffffffffffffffffffff166334baeab98a8a8a8a6040518563ffffffff1660e01b8152600401612cd1949392919061582d565b602060405180830381865afa158015612cec573d5f5f3e3d5ffd5b505050506040513d601f19601f82011682018060405250810190612d109190615886565b905080612d49576040517f09bde33900000000000000000000000000000000000000000000000000000000815260040160405180910390fd5b6001600f5f8c81526020019081526020015f205f6101000a81548160ff02191690831515021790555060065f8154612d8090615371565b91905081905594505f86604051602001612d9a91906158b1565b6040516020818303038152906040528051906020012090506040518061018001604052808781526020018f8152602001866002015f9054906101000a900473ffffffffffffffffffffffffffffffffffffffff1673ffffffffffffffffffffffffffffffffffffffff1681526020018e81526020018d81526020018c815260200182815260200160016004811115612e3557612e34614358565b5b81526020014267ffffffffffffffff1681526020015f67ffffffffffffffff1681526020015f67ffffffffffffffff1681526020015f5f1b81525060095f8881526020019081526020015f205f820151815f0155602082015181600101556040820151816002015f6101000a81548173ffffffffffffffffffffffffffffffffffffffff021916908373ffffffffffffffffffffffffffffffffffffffff160217905550606082015181600301556080820151816004015560a0820151816005015560c0820151816006015560e0820151816007015f6101000a81548160ff02191690836004811115612f2b57612f2a614358565b5b02179055506101008201518160070160016101000a81548167ffffffffffffffff021916908367ffffffffffffffff1602179055506101208201518160070160096101000a81548167ffffffffffffffff021916908367ffffffffffffffff1602179055506101408201518160070160116101000a81548167ffffffffffffffff021916908367ffffffffffffffff1602179055506101608201518160080155905050600c86908060018154018082558091505060019003905f5260205f20015f909190919091505561306686600e5f886002015f9054906101000a900473ffffffffffffffffffffffffffffffffffffffff1673ffffffffffffffffffffffffffffffffffffffff1673ffffffffffffffffffffffffffffffffffffffff1681526020019081526020015f20613d2990919063ffffffff16565b50846002015f9054906101000a900473ffffffffffffffffffffffffffffffffffffffff1673ffffffffffffffffffffffffffffffffffffffff168e877f9fe11e531030a058803617055e27f9f4768236e4322e13b9c4c09f4338e23a6860405160405180910390a4857f52f0835c7dec560965de4d93337a5ad7644e44bfda7334a93a15df5af39e802f826040516130ff9190614248565b60405180910390a2505050505061311461390f565b98975050505050505050565b60605f61316a600e5f8773ffffffffffffffffffffffffffffffffffffffff1673ffffffffffffffffffffffffffffffffffffffff1681526020019081526020015f20858561392c565b91509150935093915050565b6010602052805f5260405f205f915090505481565b6131936134f0565b7feb0a07781e3ee843c0d85f7381c2e1a1e1a6ea86bcdcd944ef649d46e7dcd9726131bd81613575565b5f6131c784613589565b9050600160048111156131dd576131dc614358565b5b816007015f9054906101000a900460ff166004811115613200576131ff614358565b5b14613237576040517ff8d3970b00000000000000000000000000000000000000000000000000000000815260040160405180910390fd5b5f613245826001015461362a565b6001015490505f613255826136cb565b90506132608161376c565b6003836007015f6101000a81548160ff0219169083600481111561328757613286614358565b5b0217905550428360070160096101000a81548167ffffffffffffffff021916908367ffffffffffffffff160217905550848360080181905550857f9224b4a88af5217c4d356598e6d221dce8a017591c89a42dbdc378acea064bb7866040516132f09190614248565b60405180910390a2505050505050565b600f602052805f5260405f205f915054906101000a900460ff1681565b7fc8f5b4140cca307cd927e59cbeea8291bffeee228fc677f0fa059aef7b4dd8d581565b5f7f01ffc9a7000000000000000000000000000000000000000000000000000000007bffffffffffffffffffffffffffffffffffffffffffffffffffffffff1916827bffffffffffffffffffffffffffffffffffffffffffffffffffffffff1916149050919050565b60605f5f85805490509050808510613410575f67ffffffffffffffff8111156133d6576133d56152b7565b5b6040519080825280602002602001820160405280156134045781602001602082028036833780820191505090505b508592509250506134e8565b5f848661341d919061567b565b90508181111561342b578190505b8581613437919061533e565b67ffffffffffffffff8111156134505761344f6152b7565b5b60405190808252806020026020018201604052801561347e5781602001602082028036833780820191505090505b5093505f8690505b818110156134e1578781815481106134a1576134a06152e4565b5b905f5260205f2001548588836134b7919061533e565b815181106134c8576134c76152e4565b5b6020026020010181815250508080600101915050613486565b5080925050505b935093915050565b6134f861164d565b1561352f576040517fd93c066500000000000000000000000000000000000000000000000000000000815260040160405180910390fd5b565b600280540361356c576040517f3ee5aeb500000000000000000000000000000000000000000000000000000000815260040160405180910390fd5b60028081905550565b61358681613581613b56565b613da1565b50565b5f60095f8381526020019081526020015f2090505f73ffffffffffffffffffffffffffffffffffffffff16816002015f9054906101000a900473ffffffffffffffffffffffffffffffffffffffff1673ffffffffffffffffffffffffffffffffffffffff1603613625576040517f0455eeee00000000000000000000000000000000000000000000000000000000815260040160405180910390fd5b919050565b5f60085f8381526020019081526020015f2090505f73ffffffffffffffffffffffffffffffffffffffff16816002015f9054906101000a900473ffffffffffffffffffffffffffffffffffffffff1673ffffffffffffffffffffffffffffffffffffffff16036136c6576040517f720caa4f00000000000000000000000000000000000000000000000000000000815260040160405180910390fd5b919050565b5f60075f8381526020019081526020015f2090505f73ffffffffffffffffffffffffffffffffffffffff16816001015f9054906101000a900473ffffffffffffffffffffffffffffffffffffffff1673ffffffffffffffffffffffffffffffffffffffff1603613767576040517f79de4af500000000000000000000000000000000000000000000000000000000815260040160405180910390fd5b919050565b5f73ffffffffffffffffffffffffffffffffffffffff16816001015f9054906101000a900473ffffffffffffffffffffffffffffffffffffffff1673ffffffffffffffffffffffffffffffffffffffff16036137f4576040517f79de4af500000000000000000000000000000000000000000000000000000000815260040160405180910390fd5b806001015f9054906101000a900473ffffffffffffffffffffffffffffffffffffffff1673ffffffffffffffffffffffffffffffffffffffff163373ffffffffffffffffffffffffffffffffffffffff16031561388d576138575f5f1b33611dd5565b61388d576040517f6268319e00000000000000000000000000000000000000000000000000000000815260040160405180910390fd5b50565b61390a838473ffffffffffffffffffffffffffffffffffffffff1663a9059cbb85856040516024016138c39291906158ca565b604051602081830303815290604052915060e01b6020820180517bffffffffffffffffffffffffffffffffffffffffffffffffffffffff8381831617835250505050613df2565b505050565b6001600281905550565b5f613925825f01613e8d565b9050919050565b60605f5f61393986613919565b9050808510613996575f67ffffffffffffffff81111561395c5761395b6152b7565b5b60405190808252806020026020018201604052801561398a5781602001602082028036833780820191505090505b50859250925050613a65565b5f84866139a3919061567b565b9050818111156139b1578190505b85816139bd919061533e565b67ffffffffffffffff8111156139d6576139d56152b7565b5b604051908082528060200260200182016040528015613a045781602001602082028036833780820191505090505b5093505f8690505b81811015613a5e57613a278189613e9c90919063ffffffff16565b858883613a34919061533e565b81518110613a4557613a446152e4565b5b6020026020010181815250508080600101915050613a0c565b5080925050505b935093915050565b5f613a788383611dd5565b613b4c5760015f5f8581526020019081526020015f205f015f8473ffffffffffffffffffffffffffffffffffffffff1673ffffffffffffffffffffffffffffffffffffffff1681526020019081526020015f205f6101000a81548160ff021916908315150217905550613ae9613b56565b73ffffffffffffffffffffffffffffffffffffffff168273ffffffffffffffffffffffffffffffffffffffff16847f2f8788117e7eff1d82e926ec794901d17c78024a50270940304540a733656f0d60405160405180910390a460019050613b50565b5f90505b92915050565b5f33905090565b5f613b688383611dd5565b15613c3c575f5f5f8581526020019081526020015f205f015f8473ffffffffffffffffffffffffffffffffffffffff1673ffffffffffffffffffffffffffffffffffffffff1681526020019081526020015f205f6101000a81548160ff021916908315150217905550613bd9613b56565b73ffffffffffffffffffffffffffffffffffffffff168273ffffffffffffffffffffffffffffffffffffffff16847ff6391f5c32d9c69d2a47ea670b442974b53935d1edc7fd64eb21e047a839171b60405160405180910390a460019050613c40565b5f90505b92915050565b613c4e613eb3565b5f60015f6101000a81548160ff0219169083151502179055507f5db9ee0a495bf2e6ff9c91a7834c1ba4fdd244a5e8aa4e537bd38aeae4b073aa613c90613b56565b604051613c9d91906158f1565b60405180910390a1565b613d23848573ffffffffffffffffffffffffffffffffffffffff166323b872dd868686604051602401613cdc9392919061590a565b604051602081830303815290604052915060e01b6020820180517bffffffffffffffffffffffffffffffffffffffffffffffffffffffff8381831617835250505050613df2565b50505050565b5f613d38835f01835f1b613ef3565b905092915050565b613d486134f0565b6001805f6101000a81548160ff0219169083151502179055507f62e78cea01bee320cd4e420270b5ea74000d11b0c9f74754ebdbfc544b05a258613d8a613b56565b604051613d9791906158f1565b60405180910390a1565b613dab8282611dd5565b613dee5780826040517fe2517d3f000000000000000000000000000000000000000000000000000000008152600401613de592919061593f565b60405180910390fd5b5050565b5f5f60205f8451602086015f885af180613e11576040513d5f823e3d81fd5b3d92505f519150505f8214613e2a576001811415613e45565b5f8473ffffffffffffffffffffffffffffffffffffffff163b145b15613e8757836040517f5274afe7000000000000000000000000000000000000000000000000000000008152600401613e7e91906158f1565b60405180910390fd5b50505050565b5f815f01805490509050919050565b5f613ea9835f0183613f5a565b5f1c905092915050565b613ebb61164d565b613ef1576040517f8dfc202b00000000000000000000000000000000000000000000000000000000815260040160405180910390fd5b565b5f613efe8383613f81565b613f5057825f0182908060018154018082558091505060019003905f5260205f20015f9091909190915055825f0180549050836001015f8481526020019081526020015f208190555060019050613f54565b5f90505b92915050565b5f825f018281548110613f7057613f6f6152e4565b5b905f5260205f200154905092915050565b5f5f836001015f8481526020019081526020015f20541415905092915050565b6040518061010001604052805f81526020015f81526020015f73ffffffffffffffffffffffffffffffffffffffff1681526020015f81526020015f81526020015f81526020015f6004811115613ffa57613ff9614358565b5b81526020015f67ffffffffffffffff1681525090565b6040518061010001604052805f81526020015f73ffffffffffffffffffffffffffffffffffffffff1681526020015f73ffffffffffffffffffffffffffffffffffffffff1681526020015f81526020015f81526020015f63ffffffff1681526020015f81526020015f151581525090565b6040518060c001604052805f81526020015f81526020015f73ffffffffffffffffffffffffffffffffffffffff1681526020015f67ffffffffffffffff1681526020015f67ffffffffffffffff1681526020015f60028111156140e7576140e6614358565b5b81525090565b6040518061014001604052805f81526020015f73ffffffffffffffffffffffffffffffffffffffff1681526020015f73ffffffffffffffffffffffffffffffffffffffff1681526020015f81526020015f81526020015f63ffffffff1681526020015f81526020015f151581526020015f67ffffffffffffffff168152602001606081525090565b5f5ffd5b5f5ffd5b5f7fffffffff0000000000000000000000000000000000000000000000000000000082169050919050565b6141b18161417d565b81146141bb575f5ffd5b50565b5f813590506141cc816141a8565b92915050565b5f602082840312156141e7576141e6614175565b5b5f6141f4848285016141be565b91505092915050565b5f8115159050919050565b614211816141fd565b82525050565b5f60208201905061422a5f830184614208565b92915050565b5f819050919050565b61424281614230565b82525050565b5f60208201905061425b5f830184614239565b92915050565b5f819050919050565b61427381614261565b811461427d575f5ffd5b50565b5f8135905061428e8161426a565b92915050565b5f5f604083850312156142aa576142a9614175565b5b5f6142b785828601614280565b92505060206142c885828601614280565b9150509250929050565b5f81519050919050565b5f82825260208201905092915050565b5f819050602082019050919050565b61430481614261565b82525050565b5f73ffffffffffffffffffffffffffffffffffffffff82169050919050565b5f6143338261430a565b9050919050565b61434381614329565b82525050565b61435281614230565b82525050565b7f4e487b71000000000000000000000000000000000000000000000000000000005f52602160045260245ffd5b6005811061439657614395614358565b5b50565b5f8190506143a682614385565b919050565b5f6143b582614399565b9050919050565b6143c5816143ab565b82525050565b5f67ffffffffffffffff82169050919050565b6143e7816143cb565b82525050565b61010082015f8201516144025f8501826142fb565b50602082015161441560208501826142fb565b506040820151614428604085018261433a565b50606082015161443b60608501826142fb565b50608082015161444e6080850182614349565b5060a082015161446160a0850182614349565b5060c082015161447460c08501826143bc565b5060e082015161448760e08501826143de565b50505050565b5f61449883836143ed565b6101008301905092915050565b5f602082019050919050565b5f6144bb826142d2565b6144c581856142dc565b93506144d0836142ec565b805f5b838110156145005781516144e7888261448d565b97506144f2836144a5565b9250506001810190506144d3565b5085935050505092915050565b61451681614261565b82525050565b5f6040820190508181035f83015261453481856144b1565b9050614543602083018461450d565b9392505050565b5f60208201905061455d5f83018461450d565b92915050565b5f6020828403121561457857614577614175565b5b5f61458584828501614280565b91505092915050565b61459781614230565b81146145a1575f5ffd5b50565b5f813590506145b28161458e565b92915050565b5f602082840312156145cd576145cc614175565b5b5f6145da848285016145a4565b91505092915050565b6145ec81614329565b81146145f6575f5ffd5b50565b5f81359050614607816145e3565b92915050565b5f63ffffffff82169050919050565b6146258161460d565b811461462f575f5ffd5b50565b5f813590506146408161461c565b92915050565b5f5ffd5b5f5ffd5b5f5ffd5b5f5f83601f84011261466757614666614646565b5b8235905067ffffffffffffffff8111156146845761468361464a565b5b6020830191508360018202830111156146a05761469f61464e565b5b9250929050565b5f5f5f5f5f5f5f60c0888a0312156146c2576146c1614175565b5b5f6146cf8a828b016145f9565b97505060206146e08a828b01614280565b96505060406146f18a828b01614280565b95505060606147028a828b01614632565b94505060806147138a828b016145a4565b93505060a088013567ffffffffffffffff81111561473457614733614179565b5b6147408a828b01614652565b925092505092959891949750929550565b5f6020828403121561476657614765614175565b5b5f614773848285016145f9565b91505092915050565b5f819050919050565b5f61479f61479a6147958461430a565b61477c565b61430a565b9050919050565b5f6147b082614785565b9050919050565b5f6147c1826147a6565b9050919050565b6147d1816147b7565b82525050565b5f6020820190506147ea5f8301846147c8565b92915050565b5f5f5f6060848603121561480757614806614175565b5b5f614814868287016145f9565b935050602061482586828701614280565b925050604061483686828701614280565b9150509250925092565b5f81519050919050565b5f82825260208201905092915050565b5f819050602082019050919050565b5f61487483836142fb565b60208301905092915050565b5f602082019050919050565b5f61489682614840565b6148a0818561484a565b93506148ab8361485a565b805f5b838110156148db5781516148c28882614869565b97506148cd83614880565b9250506001810190506148ae565b5085935050505092915050565b5f6040820190508181035f830152614900818561488c565b905061490f602083018461450d565b9392505050565b5f5f6040838503121561492c5761492b614175565b5b5f614939858286016145a4565b925050602061494a858286016145f9565b9150509250929050565b61495d81614329565b82525050565b61496c8161460d565b82525050565b61497b816143cb565b82525050565b5f81519050919050565b5f82825260208201905092915050565b8281835e5f83830152505050565b5f601f19601f8301169050919050565b5f6149c382614981565b6149cd818561498b565b93506149dd81856020860161499b565b6149e6816149a9565b840191505092915050565b5f61014082019050614a055f83018d61450d565b614a12602083018c614954565b614a1f604083018b614954565b614a2c606083018a61450d565b614a39608083018961450d565b614a4660a0830188614963565b614a5360c0830187614239565b614a6060e0830186614208565b614a6e610100830185614972565b818103610120830152614a8181846149b9565b90509b9a5050505050505050505050565b614a9b816141fd565b8114614aa5575f5ffd5b50565b5f81359050614ab681614a92565b92915050565b5f5f60408385031215614ad257614ad1614175565b5b5f614adf85828601614280565b9250506020614af085828601614aa8565b9150509250929050565b5f81519050919050565b5f82825260208201905092915050565b5f819050602082019050919050565b614b2c8161460d565b82525050565b614b3b816141fd565b82525050565b61010082015f820151614b565f8501826142fb565b506020820151614b69602085018261433a565b506040820151614b7c604085018261433a565b506060820151614b8f60608501826142fb565b506080820151614ba260808501826142fb565b5060a0820151614bb560a0850182614b23565b5060c0820151614bc860c0850182614349565b5060e0820151614bdb60e0850182614b32565b50505050565b5f614bec8383614b41565b6101008301905092915050565b5f602082019050919050565b5f614c0f82614afa565b614c198185614b04565b9350614c2483614b14565b805f5b83811015614c54578151614c3b8882614be1565b9750614c4683614bf9565b925050600181019050614c27565b5085935050505092915050565b5f6040820190508181035f830152614c798185614c05565b9050614c88602083018461450d565b9392505050565b5f5f60408385031215614ca557614ca4614175565b5b5f614cb285828601614280565b9250506020614cc3858286016145a4565b9150509250929050565b614cd6816143ab565b82525050565b5f61018082019050614cf05f83018f61450d565b614cfd602083018e61450d565b614d0a604083018d614954565b614d17606083018c61450d565b614d24608083018b614239565b614d3160a083018a614239565b614d3e60c0830189614239565b614d4b60e0830188614ccd565b614d59610100830187614972565b614d67610120830186614972565b614d75610140830185614972565b614d83610160830184614239565b9d9c50505050505050505050505050565b5f81519050919050565b5f82825260208201905092915050565b5f819050602082019050919050565b60038110614dce57614dcd614358565b5b50565b5f819050614dde82614dbd565b919050565b5f614ded82614dd1565b9050919050565b614dfd81614de3565b82525050565b60c082015f820151614e175f8501826142fb565b506020820151614e2a60208501826142fb565b506040820151614e3d604085018261433a565b506060820151614e5060608501826143de565b506080820151614e6360808501826143de565b5060a0820151614e7660a0850182614df4565b50505050565b5f614e878383614e03565b60c08301905092915050565b5f602082019050919050565b5f614ea982614d94565b614eb38185614d9e565b9350614ebe83614dae565b805f5b83811015614eee578151614ed58882614e7c565b9750614ee083614e93565b925050600181019050614ec1565b5085935050505092915050565b5f6040820190508181035f830152614f138185614e9f565b9050614f22602083018461450d565b9392505050565b5f82825260208201905092915050565b5f614f4382614981565b614f4d8185614f29565b9350614f5d81856020860161499b565b614f66816149a9565b840191505092915050565b5f61014083015f830151614f875f8601826142fb565b506020830151614f9a602086018261433a565b506040830151614fad604086018261433a565b506060830151614fc060608601826142fb565b506080830151614fd360808601826142fb565b5060a0830151614fe660a0860182614b23565b5060c0830151614ff960c0860182614349565b5060e083015161500c60e0860182614b32565b506101008301516150216101008601826143de565b5061012083015184820361012086015261503b8282614f39565b9150508091505092915050565b5f6020820190508181035f8301526150608184614f71565b905092915050565b61507181614de3565b82525050565b5f60e08201905061508a5f83018a61450d565b615097602083018961450d565b6150a46040830188614954565b6150b16060830187614972565b6150be6080830186614972565b6150cb60a0830185615068565b6150d860c0830184614972565b98975050505050505050565b5f5f5f5f5f5f5f5f60e0898b031215615100576150ff614175565b5b5f61510d8b828c016145f9565b985050602061511e8b828c01614280565b975050604061512f8b828c01614280565b96505060606151408b828c01614632565b95505060806151518b828c016145a4565b94505060a089013567ffffffffffffffff81111561517257615171614179565b5b61517e8b828c01614652565b935093505060c06151918b828c01614280565b9150509295985092959890939650565b5f819050826020600202820111156151bc576151bb61464e565b5b92915050565b5f819050826040600202820111156151dd576151dc61464e565b5b92915050565b5f819050826020600502820111156151fe576151fd61464e565b5b92915050565b5f5f5f5f5f5f5f5f610220898b03121561522157615220614175565b5b5f61522e8b828c01614280565b985050602061523f8b828c01614280565b97505060406152508b828c016145a4565b96505060606152618b828c016145a4565b95505060806152728b828c016151a1565b94505060c06152838b828c016151c2565b9350506101406152958b828c016151a1565b9250506101806152a78b828c016151e3565b9150509295985092959890939650565b7f4e487b71000000000000000000000000000000000000000000000000000000005f52604160045260245ffd5b7f4e487b71000000000000000000000000000000000000000000000000000000005f52603260045260245ffd5b7f4e487b71000000000000000000000000000000000000000000000000000000005f52601160045260245ffd5b5f61534882614261565b915061535383614261565b925082820390508181111561536b5761536a615311565b5b92915050565b5f61537b82614261565b91507fffffffffffffffffffffffffffffffffffffffffffffffffffffffffffffffff82036153ad576153ac615311565b5b600182019050919050565b7f4e487b71000000000000000000000000000000000000000000000000000000005f52602260045260245ffd5b5f60028204905060018216806153fc57607f821691505b60208210810361540f5761540e6153b8565b5b50919050565b5f819050815f5260205f209050919050565b5f6020601f8301049050919050565b5f82821b905092915050565b5f600883026154717fffffffffffffffffffffffffffffffffffffffffffffffffffffffffffffffff82615436565b61547b8683615436565b95508019841693508086168417925050509392505050565b5f6154ad6154a86154a384614261565b61477c565b614261565b9050919050565b5f819050919050565b6154c683615493565b6154da6154d2826154b4565b848454615442565b825550505050565b5f5f905090565b6154f16154e2565b6154fc8184846154bd565b505050565b5b8181101561551f576155145f826154e9565b600181019050615502565b5050565b601f8211156155645761553581615415565b61553e84615427565b8101602085101561554d578190505b61556161555985615427565b830182615501565b50505b505050565b5f82821c905092915050565b5f6155845f1984600802615569565b1980831691505092915050565b5f61559c8383615575565b9150826002028217905092915050565b6155b582614981565b67ffffffffffffffff8111156155ce576155cd6152b7565b5b6155d882546153e5565b6155e3828285615523565b5f60209050601f831160018114615614575f8415615602578287015190505b61560c8582615591565b865550615673565b601f19841661562286615415565b5f5b8281101561564957848901518255600182019150602085019450602081019050615624565b868310156156665784890151615662601f891682615575565b8355505b6001600288020188555050505b505050505050565b5f61568582614261565b915061569083614261565b92508282019050808211156156a8576156a7615311565b5b92915050565b5f6156b882614261565b91506156c383614261565b92508282026156d181614261565b915082820484148315176156e8576156e7615311565b5b5092915050565b7f4e487b71000000000000000000000000000000000000000000000000000000005f52601260045260245ffd5b5f61572682614261565b915061573183614261565b925082615741576157406156ef565b5b828206905092915050565b82818337505050565b6157616040838361574c565b5050565b5f60029050919050565b5f81905092915050565b5f819050919050565b61578e6040838361574c565b5050565b5f61579d8383615782565b60408301905092915050565b5f82905092915050565b5f604082019050919050565b6157c881615765565b6157d2818461576f565b92506157dd82615779565b805f5b83811015615815576157f282846157a9565b6157fc8782615792565b9650615807836157b3565b9250506001810190506157e0565b505050505050565b61582960a0838361574c565b5050565b5f6101a0820190506158415f830187615755565b61584e60408301866157bf565b61585b60c0830185615755565b61586961010083018461581d565b95945050505050565b5f8151905061588081614a92565b92915050565b5f6020828403121561589b5761589a614175565b5b5f6158a884828501615872565b91505092915050565b5f60a0820190506158c45f83018461581d565b92915050565b5f6040820190506158dd5f830185614954565b6158ea602083018461450d565b9392505050565b5f6020820190506159045f830184614954565b92915050565b5f60608201905061591d5f830186614954565b61592a6020830185614954565b615937604083018461450d565b949350505050565b5f6040820190506159525f830185614954565b61595f6020830184614239565b939250505056fea26469706673582212209b58e8a5ad38cf8945cd6cfc1c6fe6d283414a56c6703bd13c7e06d27357302064736f6c634300081c0033",
  "linkReferences": {},
  "deployedLinkReferences": {},
  "immutableReferences": {},
  "inputSourceName": "project/contracts/ZKMedicalInsurance.sol",
  "buildInfoId": "solc-0_8_28-f65cfe56914767e95ff6054fd10ea3b4ee0732ce"
}