{
  "_format": "hh3-artifact-1",
  "contractName": "ZKMedicalInsurance",
  "sourceName": "contracts/ZKMedicalInsurance.sol",
  "abi": [
    {
      "inputs": [
        {
          "internalType": "address",
          "name": "verifier_",
          "type": "address"
        }
      ],
      "stateMutability": "nonpayable",
      "type": "constructor"
    },
    {
      "inputs": [],
      "name": "AccessControlBadConfirmation",
      "type": "error"
    },
    {
      "inputs": [
        {
          "internalType": "address",
          "name": "account",
          "type": "address"
        },
        {
          "internalType": "bytes32",
          "name": "neededRole",
          "type": "bytes32"
        }
      ],
      "name": "AccessControlUnauthorizedAccount",
      "type": "error"
    },
    {
      "inputs": [],
      "name": "AmountExceedsCoverage",
      "type": "error"
    },
    {
      "inputs": [],
      "name": "ClaimNotFound",
      "type": "error"
    },
    {
      "inputs": [],
      "name": "ClaimNotInExpectedStatus",
      "type": "error"
    },
    {
      "inputs": [],
      "name": "EnforcedPause",
      "type": "error"
    },
    {
      "inputs": [],
      "name": "ExpectedPause",
      "type": "error"
    },
    {
      "inputs": [],
      "name": "InvalidProof",
      "type": "error"
    },
    {
      "inputs": [],
      "name": "InvalidPublicSignals",
      "type": "error"
    },
    {
      "inputs": [],
      "name": "NotProductInsurer",
      "type": "error"
    },
    {
      "inputs": [],
      "name": "NullifierAlreadyUsed",
      "type": "error"
    },
    {
      "inputs": [],
      "name": "PolicyExpired",
      "type": "error"
    },
    {
      "inputs": [],
      "name": "PolicyNotActive",
      "type": "error"
    },
    {
      "inputs": [],
      "name": "PolicyNotFound",
      "type": "error"
    },
    {
      "inputs": [],
      "name": "PoolInsufficient",
      "type": "error"
    },
    {
      "inputs": [],
      "name": "ProductNotActive",
      "type": "error"
    },
    {
      "inputs": [],
      "name": "ProductNotFound",
      "type": "error"
    },
    {
      "inputs": [],
      "name": "ReentrancyGuardReentrantCall",
      "type": "error"
    },
    {
      "inputs": [
        {
          "internalType": "address",
          "name": "token",
          "type": "address"
        }
      ],
      "name": "SafeERC20FailedOperation",
      "type": "error"
    },
    {
      "inputs": [],
      "name": "Unauthorized",
      "type": "error"
    },
    {
      "inputs": [],
      "name": "ZeroAddress",
      "type": "error"
    },
    {
      "anonymous": false,
      "inputs": [
        {
          "indexed": true,
          "internalType": "uint256",
          "name": "claimId",
          "type": "uint256"
        }
      ],
      "name": "ClaimApproved",
      "type": "event"
    },
    {
      "anonymous": false,
      "inputs": [
        {
          "indexed": true,
          "internalType": "uint256",
          "name": "claimId",
          "type": "uint256"
        },
        {
          "indexed": true,
          "internalType": "address",
          "name": "to",
          "type": "address"
        },
        {
          "indexed": false,
          "internalType": "uint256",
          "name": "amount",
          "type": "uint256"
        }
      ],
      "name": "ClaimPaid",
      "type": "event"
    },
    {
      "anonymous": false,
      "inputs": [
        {
          "indexed": true,
          "internalType": "uint256",
          "name": "claimId",
          "type": "uint256"
        },
        {
          "indexed": false,
          "internalType": "bytes32",
          "name": "decisionMemoHash",
          "type": "bytes32"
        }
      ],
      "name": "ClaimRejected",
      "type": "event"
    },
    {
      "anonymous": false,
      "inputs": [
        {
          "indexed": true,
          "internalType": "uint256",
          "name": "claimId",
          "type": "uint256"
        },
        {
          "indexed": true,
          "internalType": "uint256",
          "name": "policyId",
          "type": "uint256"
        },
        {
          "indexed": true,
          "internalType": "address",
          "name": "claimant",
          "type": "address"
        }
      ],
      "name": "ClaimSubmitted",
      "type": "event"
    },
    {
      "anonymous": false,
      "inputs": [
        {
          "indexed": true,
          "internalType": "uint256",
          "name": "claimId",
          "type": "uint256"
        },
        {
          "indexed": false,
          "internalType": "bytes32",
          "name": "publicSignalsHash",
          "type": "bytes32"
        }
      ],
      "name": "ClaimVerified",
      "type": "event"
    },
    {
      "anonymous": false,
      "inputs": [
        {
          "indexed": false,
          "internalType": "address",
          "name": "account",
          "type": "address"
        }
      ],
      "name": "Paused",
      "type": "event"
    },
    {
      "anonymous": false,
      "inputs": [
        {
          "indexed": true,
          "internalType": "uint256",
          "name": "policyId",
          "type": "uint256"
        },
        {
          "indexed": true,
          "internalType": "uint256",
          "name": "productId",
          "type": "uint256"
        },
        {
          "indexed": true,
          "internalType": "address",
          "name": "holder",
          "type": "address"
        }
      ],
      "name": "PolicyPurchased",
      "type": "event"
    },
    {
      "anonymous": false,
      "inputs": [
        {
          "indexed": true,
          "internalType": "uint256",
          "name": "productId",
          "type": "uint256"
        },
        {
          "indexed": true,
          "internalType": "address",
          "name": "insurer",
          "type": "address"
        },
        {
          "indexed": true,
          "internalType": "address",
          "name": "token",
          "type": "address"
        }
      ],
      "name": "ProductCreated",
      "type": "event"
    },
    {
      "anonymous": false,
      "inputs": [
        {
          "indexed": true,
          "internalType": "uint256",
          "name": "productId",
          "type": "uint256"
        }
      ],
      "name": "ProductUpdated",
      "type": "event"
    },
    {
      "anonymous": false,
      "inputs": [
        {
          "indexed": true,
          "internalType": "bytes32",
          "name": "role",
          "type": "bytes32"
        },
        {
          "indexed": true,
          "internalType": "bytes32",
          "name": "previousAdminRole",
          "type": "bytes32"
        },
        {
          "indexed": true,
          "internalType": "bytes32",
          "name": "newAdminRole",
          "type": "bytes32"
        }
      ],
      "name": "RoleAdminChanged",
      "type": "event"
    },
    {
      "anonymous": false,
      "inputs": [
        {
          "indexed": true,
          "internalType": "bytes32",
          "name": "role",
          "type": "bytes32"
        },
        {
          "indexed": true,
          "internalType": "address",
          "name": "account",
          "type": "address"
        },
        {
          "indexed": true,
          "internalType": "address",
          "name": "sender",
          "type": "address"
        }
      ],
      "name": "RoleGranted",
      "type": "event"
    },
    {
      "anonymous": false,
      "inputs": [
        {
          "indexed": true,
          "internalType": "bytes32",
          "name": "role",
          "type": "bytes32"
        },
        {
          "indexed": true,
          "internalType": "address",
          "name": "account",
          "type": "address"
        },
        {
          "indexed": true,
          "internalType": "address",
          "name": "sender",
          "type": "address"
        }
      ],
      "name": "RoleRevoked",
      "type": "event"
    },
    {
      "anonymous": false,
      "inputs": [
        {
          "indexed": false,
          "internalType": "address",
          "name": "account",
          "type": "address"
        }
      ],
      "name": "Unpaused",
      "type": "event"
    },
    {
      "anonymous": false,
      "inputs": [
        {
          "indexed": true,
          "internalType": "address",
          "name": "oldVerifier",
          "type": "address"
        },
        {
          "indexed": true,
          "internalType": "address",
          "name": "newVerifier",
          "type": "address"
        }
      ],
      "name": "VerifierUpdated",
      "type": "event"
    },
    {
      "inputs": [],
      "name": "DEFAULT_ADMIN_ROLE",
      "outputs": [
        {
          "internalType": "bytes32",
          "name": "",
          "type": "bytes32"
        }
      ],
      "stateMutability": "view",
      "type": "function"
    },
    {
      "inputs": [],
      "name": "HOSPITAL_ROLE",
      "outputs": [
        {
          "internalType": "bytes32",
          "name": "",
          "type": "bytes32"
        }
      ],
      "stateMutability": "view",
      "type": "function"
    },
    {
      "inputs": [],
      "name": "INSURER_ROLE",
      "outputs": [
        {
          "internalType": "bytes32",
          "name": "",
          "type": "bytes32"
        }
      ],
      "stateMutability": "view",
      "type": "function"
    },
    {
      "inputs": [],
      "name": "PAUSER_ROLE",
      "outputs": [
        {
          "internalType": "bytes32",
          "name": "",
          "type": "bytes32"
        }
      ],
      "stateMutability": "view",
      "type": "function"
    },
    {
      "inputs": [
        {
          "internalType": "uint256",
          "name": "claimId",
          "type": "uint256"
        }
      ],
      "name": "approveClaim",
      "outputs": [],
      "stateMutability": "nonpayable",
      "type": "function"
    },
    {
      "inputs": [
        {
          "internalType": "uint256",
          "name": "productId",
          "type": "uint256"
        }
      ],
      "name": "buyPolicy",
      "outputs": [
        {
          "internalType": "uint256",
          "name": "policyId",
          "type": "uint256"
        }
      ],
      "stateMutability": "nonpayable",
      "type": "function"
    },
    {
      "inputs": [
        {
          "internalType": "uint256",
          "name": "",
          "type": "uint256"
        }
      ],
      "name": "claims",
      "outputs": [
        {
          "internalType": "uint256",
          "name": "id",
          "type": "uint256"
        },
        {
          "internalType": "uint256",
          "name": "policyId",
          "type": "uint256"
        },
        {
          "internalType": "address",
          "name": "claimant",
          "type": "address"
        },
        {
          "internalType": "uint256",
          "name": "amount",
          "type": "uint256"
        },
        {
          "internalType": "bytes32",
          "name": "dataHash",
          "type": "bytes32"
        },
        {
          "internalType": "bytes32",
          "name": "nullifier",
          "type": "bytes32"
        },
        {
          "internalType": "bytes32",
          "name": "publicSignalsHash",
          "type": "bytes32"
        },
        {
          "internalType": "enum ZKMedicalInsurance.ClaimStatus",
          "name": "status",
          "type": "uint8"
        },
        {
          "internalType": "uint64",
          "name": "submittedAt",
          "type": "uint64"
        },
        {
          "internalType": "uint64",
          "name": "decidedAt",
          "type": "uint64"
        },
        {
          "internalType": "uint64",
          "name": "paidAt",
          "type": "uint64"
        },
        {
          "internalType": "bytes32",
          "name": "decisionMemoHash",
          "type": "bytes32"
        }
      ],
      "stateMutability": "view",
      "type": "function"
    },
    {
      "inputs": [],
      "name": "claimsCount",
      "outputs": [
        {
          "internalType": "uint256",
          "name": "",
          "type": "uint256"
        }
      ],
      "stateMutability": "view",
      "type": "function"
    },
    {
      "inputs": [
        {
          "internalType": "address",
          "name": "token",
          "type": "address"
        },
        {
          "internalType": "uint256",
          "name": "premiumAmount",
          "type": "uint256"
        },
        {
          "internalType": "uint256",
          "name": "maxCoverage",
          "type": "uint256"
        },
        {
          "internalType": "uint32",
          "name": "coveragePeriodDays",
          "type": "uint32"
        },
        {
          "internalType": "bytes32",
          "name": "coveredRoot",
          "type": "bytes32"
        },
        {
          "internalType": "string",
          "name": "uri",
          "type": "string"
        }
      ],
      "name": "createProduct",
      "outputs": [
        {
          "internalType": "uint256",
          "name": "productId",
          "type": "uint256"
        }
      ],
      "stateMutability": "nonpayable",
      "type": "function"
    },
    {
      "inputs": [
        {
          "internalType": "address",
          "name": "token",
          "type": "address"
        },
        {
          "internalType": "uint256",
          "name": "premiumAmount",
          "type": "uint256"
        },
        {
          "internalType": "uint256",
          "name": "maxCoverage",
          "type": "uint256"
        },
        {
          "internalType": "uint32",
          "name": "coveragePeriodDays",
          "type": "uint32"
        },
        {
          "internalType": "bytes32",
          "name": "coveredRoot",
          "type": "bytes32"
        },
        {
          "internalType": "string",
          "name": "uri",
          "type": "string"
        },
        {
          "internalType": "uint256",
          "name": "initialFunding",
          "type": "uint256"
        }
      ],
      "name": "createProductWithFunding",
      "outputs": [
        {
          "internalType": "uint256",
          "name": "productId",
          "type": "uint256"
        }
      ],
      "stateMutability": "nonpayable",
      "type": "function"
    },
    {
      "inputs": [
        {
          "internalType": "uint256",
          "name": "productId",
          "type": "uint256"
        },
        {
          "internalType": "uint256",
          "name": "amount",
          "type": "uint256"
        }
      ],
      "name": "fundPool",
      "outputs": [],
      "stateMutability": "nonpayable",
      "type": "function"
    },
    {
      "inputs": [
        {
          "internalType": "uint256",
          "name": "cursor",
          "type": "uint256"
        },
        {
          "internalType": "uint256",
          "name": "size",
          "type": "uint256"
        }
      ],
      "name": "getClaimsBriefPage",
      "outputs": [
        {
          "components": [
            {
              "internalType": "uint256",
              "name": "id",
              "type": "uint256"
            },
            {
              "internalType": "uint256",
              "name": "policyId",
              "type": "uint256"
            },
            {
              "internalType": "address",
              "name": "claimant",
              "type": "address"
            },
            {
              "internalType": "uint256",
              "name": "amount",
              "type": "uint256"
            },
            {
              "internalType": "bytes32",
              "name": "dataHash",
              "type": "bytes32"
            },
            {
              "internalType": "bytes32",
              "name": "nullifier",
              "type": "bytes32"
            },
            {
              "internalType": "enum ZKMedicalInsurance.ClaimStatus",
              "name": "status",
              "type": "uint8"
            }
          ],
          "internalType": "struct ZKMedicalInsurance.ClaimBrief[]",
          "name": "items",
          "type": "tuple[]"
        },
        {
          "internalType": "uint256",
          "name": "nextCursor",
          "type": "uint256"
        }
      ],
      "stateMutability": "view",
      "type": "function"
    },
    {
      "inputs": [
        {
          "internalType": "uint256",
          "name": "cursor",
          "type": "uint256"
        },
        {
          "internalType": "uint256",
          "name": "size",
          "type": "uint256"
        }
      ],
      "name": "getPoliciesBriefPage",
      "outputs": [
        {
          "components": [
            {
              "internalType": "uint256",
              "name": "id",
              "type": "uint256"
            },
            {
              "internalType": "uint256",
              "name": "productId",
              "type": "uint256"
            },
            {
              "internalType": "address",
              "name": "holder",
              "type": "address"
            },
            {
              "internalType": "uint64",
              "name": "startAt",
              "type": "uint64"
            },
            {
              "internalType": "uint64",
              "name": "endAt",
              "type": "uint64"
            },
            {
              "internalType": "enum ZKMedicalInsurance.PolicyStatus",
              "name": "status",
              "type": "uint8"
            }
          ],
          "internalType": "struct ZKMedicalInsurance.PolicyBrief[]",
          "name": "items",
          "type": "tuple[]"
        },
        {
          "internalType": "uint256",
          "name": "nextCursor",
          "type": "uint256"
        }
      ],
      "stateMutability": "view",
      "type": "function"
    },
    {
      "inputs": [
        {
          "internalType": "uint256",
          "name": "cursor",
          "type": "uint256"
        },
        {
          "internalType": "uint256",
          "name": "size",
          "type": "uint256"
        }
      ],
      "name": "getProductsBriefPage",
      "outputs": [
        {
          "components": [
            {
              "internalType": "uint256",
              "name": "id",
              "type": "uint256"
            },
            {
              "internalType": "address",
              "name": "insurer",
              "type": "address"
            },
            {
              "internalType": "address",
              "name": "token",
              "type": "address"
            },
            {
              "internalType": "uint256",
              "name": "premiumAmount",
              "type": "uint256"
            },
            {
              "internalType": "uint256",
              "name": "maxCoverage",
              "type": "uint256"
            },
            {
              "internalType": "uint32",
              "name": "coveragePeriodDays",
              "type": "uint32"
            },
            {
              "internalType": "bytes32",
              "name": "coveredRoot",
              "type": "bytes32"
            },
            {
              "internalType": "bool",
              "name": "active",
              "type": "bool"
            }
          ],
          "internalType": "struct ZKMedicalInsurance.ProductBrief[]",
          "name": "items",
          "type": "tuple[]"
        },
        {
          "internalType": "uint256",
          "name": "nextCursor",
          "type": "uint256"
        }
      ],
      "stateMutability": "view",
      "type": "function"
    },
    {
      "inputs": [
        {
          "internalType": "bytes32",
          "name": "role",
          "type": "bytes32"
        }
      ],
      "name": "getRoleAdmin",
      "outputs": [
        {
          "internalType": "bytes32",
          "name": "",
          "type": "bytes32"
        }
      ],
      "stateMutability": "view",
      "type": "function"
    },
    {
      "inputs": [
        {
          "internalType": "address",
          "name": "user",
          "type": "address"
        },
        {
          "internalType": "uint256",
          "name": "cursor",
          "type": "uint256"
        },
        {
          "internalType": "uint256",
          "name": "size",
          "type": "uint256"
        }
      ],
      "name": "getUserClaimIdsPage",
      "outputs": [
        {
          "internalType": "uint256[]",
          "name": "ids",
          "type": "uint256[]"
        },
        {
          "internalType": "uint256",
          "name": "nextCursor",
          "type": "uint256"
        }
      ],
      "stateMutability": "view",
      "type": "function"
    },
    {
      "inputs": [
        {
          "internalType": "address",
          "name": "user",
          "type": "address"
        },
        {
          "internalType": "uint256",
          "name": "cursor",
          "type": "uint256"
        },
        {
          "internalType": "uint256",
          "name": "size",
          "type": "uint256"
        }
      ],
      "name": "getUserPolicyIdsPage",
      "outputs": [
        {
          "internalType": "uint256[]",
          "name": "ids",
          "type": "uint256[]"
        },
        {
          "internalType": "uint256",
          "name": "nextCursor",
          "type": "uint256"
        }
      ],
      "stateMutability": "view",
      "type": "function"
    },
    {
      "inputs": [
        {
          "internalType": "bytes32",
          "name": "role",
          "type": "bytes32"
        },
        {
          "internalType": "address",
          "name": "account",
          "type": "address"
        }
      ],
      "name": "grantRole",
      "outputs": [],
      "stateMutability": "nonpayable",
      "type": "function"
    },
    {
      "inputs": [
        {
          "internalType": "bytes32",
          "name": "role",
          "type": "bytes32"
        },
        {
          "internalType": "address",
          "name": "account",
          "type": "address"
        }
      ],
      "name": "hasRole",
      "outputs": [
        {
          "internalType": "bool",
          "name": "",
          "type": "bool"
        }
      ],
      "stateMutability": "view",
      "type": "function"
    },
    {
      "inputs": [],
      "name": "pause",
      "outputs": [],
      "stateMutability": "nonpayable",
      "type": "function"
    },
    {
      "inputs": [],
      "name": "paused",
      "outputs": [
        {
          "internalType": "bool",
          "name": "",
          "type": "bool"
        }
      ],
      "stateMutability": "view",
      "type": "function"
    },
    {
      "inputs": [
        {
          "internalType": "uint256",
          "name": "claimId",
          "type": "uint256"
        }
      ],
      "name": "payoutClaim",
      "outputs": [],
      "stateMutability": "nonpayable",
      "type": "function"
    },
    {
      "inputs": [
        {
          "internalType": "uint256",
          "name": "",
          "type": "uint256"
        }
      ],
      "name": "policies",
      "outputs": [
        {
          "internalType": "uint256",
          "name": "id",
          "type": "uint256"
        },
        {
          "internalType": "uint256",
          "name": "productId",
          "type": "uint256"
        },
        {
          "internalType": "address",
          "name": "holder",
          "type": "address"
        },
        {
          "internalType": "uint64",
          "name": "startAt",
          "type": "uint64"
        },
        {
          "internalType": "uint64",
          "name": "endAt",
          "type": "uint64"
        },
        {
          "internalType": "enum ZKMedicalInsurance.PolicyStatus",
          "name": "status",
          "type": "uint8"
        },
        {
          "internalType": "uint64",
          "name": "createdAt",
          "type": "uint64"
        }
      ],
      "stateMutability": "view",
      "type": "function"
    },
    {
      "inputs": [],
      "name": "policiesCount",
      "outputs": [
        {
          "internalType": "uint256",
          "name": "",
          "type": "uint256"
        }
      ],
      "stateMutability": "view",
      "type": "function"
    },
    {
      "inputs": [
        {
          "internalType": "uint256",
          "name": "",
          "type": "uint256"
        }
      ],
      "name": "productPool",
      "outputs": [
        {
          "internalType": "uint256",
          "name": "",
          "type": "uint256"
        }
      ],
      "stateMutability": "view",
      "type": "function"
    },
    {
      "inputs": [
        {
          "internalType": "uint256",
          "name": "",
          "type": "uint256"
        }
      ],
      "name": "products",
      "outputs": [
        {
          "internalType": "uint256",
          "name": "id",
          "type": "uint256"
        },
        {
          "internalType": "address",
          "name": "insurer",
          "type": "address"
        },
        {
          "internalType": "address",
          "name": "token",
          "type": "address"
        },
        {
          "internalType": "uint256",
          "name": "premiumAmount",
          "type": "uint256"
        },
        {
          "internalType": "uint256",
          "name": "maxCoverage",
          "type": "uint256"
        },
        {
          "internalType": "uint32",
          "name": "coveragePeriodDays",
          "type": "uint32"
        },
        {
          "internalType": "bytes32",
          "name": "coveredRoot",
          "type": "bytes32"
        },
        {
          "internalType": "bool",
          "name": "active",
          "type": "bool"
        },
        {
          "internalType": "uint64",
          "name": "createdAt",
          "type": "uint64"
        },
        {
          "internalType": "string",
          "name": "uri",
          "type": "string"
        }
      ],
      "stateMutability": "view",
      "type": "function"
    },
    {
      "inputs": [],
      "name": "productsCount",
      "outputs": [
        {
          "internalType": "uint256",
          "name": "",
          "type": "uint256"
        }
      ],
      "stateMutability": "view",
      "type": "function"
    },
    {
      "inputs": [
        {
          "internalType": "uint256",
          "name": "claimId",
          "type": "uint256"
        },
        {
          "internalType": "bytes32",
          "name": "decisionMemoHash",
          "type": "bytes32"
        }
      ],
      "name": "rejectClaim",
      "outputs": [],
      "stateMutability": "nonpayable",
      "type": "function"
    },
    {
      "inputs": [
        {
          "internalType": "bytes32",
          "name": "role",
          "type": "bytes32"
        },
        {
          "internalType": "address",
          "name": "callerConfirmation",
          "type": "address"
        }
      ],
      "name": "renounceRole",
      "outputs": [],
      "stateMutability": "nonpayable",
      "type": "function"
    },
    {
      "inputs": [
        {
          "internalType": "bytes32",
          "name": "role",
          "type": "bytes32"
        },
        {
          "internalType": "address",
          "name": "account",
          "type": "address"
        }
      ],
      "name": "revokeRole",
      "outputs": [],
      "stateMutability": "nonpayable",
      "type": "function"
    },
    {
      "inputs": [
        {
          "internalType": "uint256",
          "name": "productId",
          "type": "uint256"
        },
        {
          "internalType": "bool",
          "name": "active",
          "type": "bool"
        }
      ],
      "name": "setProductActive",
      "outputs": [],
      "stateMutability": "nonpayable",
      "type": "function"
    },
    {
      "inputs": [
        {
          "internalType": "address",
          "name": "verifier_",
          "type": "address"
        }
      ],
      "name": "setVerifier",
      "outputs": [],
      "stateMutability": "nonpayable",
      "type": "function"
    },
    {
      "inputs": [
        {
          "internalType": "uint256",
          "name": "policyId",
          "type": "uint256"
        },
        {
          "internalType": "uint256",
          "name": "amount",
          "type": "uint256"
        },
        {
          "internalType": "bytes32",
          "name": "dataHash",
          "type": "bytes32"
        },
        {
          "internalType": "bytes32",
          "name": "nullifier",
          "type": "bytes32"
        },
        {
          "internalType": "uint256[2]",
          "name": "a",
          "type": "uint256[2]"
        },
        {
          "internalType": "uint256[2][2]",
          "name": "b",
          "type": "uint256[2][2]"
        },
        {
          "internalType": "uint256[2]",
          "name": "c",
          "type": "uint256[2]"
        },
        {
          "internalType": "uint256[5]",
          "name": "input",
          "type": "uint256[5]"
        }
      ],
      "name": "submitClaimWithProof",
      "outputs": [
        {
          "internalType": "uint256",
          "name": "claimId",
          "type": "uint256"
        }
      ],
      "stateMutability": "nonpayable",
      "type": "function"
    },
    {
      "inputs": [
        {
          "internalType": "bytes4",
          "name": "interfaceId",
          "type": "bytes4"
        }
      ],
      "name": "supportsInterface",
      "outputs": [
        {
          "internalType": "bool",
          "name": "",
          "type": "bool"
        }
      ],
      "stateMutability": "view",
      "type": "function"
    },
    {
      "inputs": [],
      "name": "unpause",
      "outputs": [],
      "stateMutability": "nonpayable",
      "type": "function"
    },
    {
      "inputs": [
        {
          "internalType": "uint256",
          "name": "productId",
          "type": "uint256"
        },
        {
          "internalType": "bytes32",
          "name": "newRoot",
          "type": "bytes32"
        }
      ],
      "name": "updateCoveredRoot",
      "outputs": [],
      "stateMutability": "nonpayable",
      "type": "function"
    },
    {
      "inputs": [
        {
          "internalType": "bytes32",
          "name": "",
          "type": "bytes32"
        }
      ],
      "name": "usedNullifier",
      "outputs": [
        {
          "internalType": "bool",
          "name": "",
          "type": "bool"
        }
      ],
      "stateMutability": "view",
      "type": "function"
    },
    {
      "inputs": [
        {
          "internalType": "address",
          "name": "user",
          "type": "address"
        }
      ],
      "name": "userClaimsCount",
      "outputs": [
        {
          "internalType": "uint256",
          "name": "",
          "type": "uint256"
        }
      ],
      "stateMutability": "view",
      "type": "function"
    },
    {
      "inputs": [
        {
          "internalType": "address",
          "name": "user",
          "type": "address"
        }
      ],
      "name": "userPoliciesCount",
      "outputs": [
        {
          "internalType": "uint256",
          "name": "",
          "type": "uint256"
        }
      ],
      "stateMutability": "view",
      "type": "function"
    },
    {
      "inputs": [],
      "name": "verifier",
      "outputs": [
        {
          "internalType": "contract IGroth16Verifier",
          "name": "",
          "type": "address"
        }
      ],
      "stateMutability": "view",
      "type": "function"
    }
  ],
  "bytecode": "0x608060405234801561000f575f5ffd5b50604051615929380380615929833981810160405281019061003191906103a1565b60016002819055505f73ffffffffffffffffffffffffffffffffffffffff168173ffffffffffffffffffffffffffffffffffffffff160361009e576040517fd92e233d00000000000000000000000000000000000000000000000000000000815260040160405180910390fd5b8060035f6101000a81548173ffffffffffffffffffffffffffffffffffffffff021916908373ffffffffffffffffffffffffffffffffffffffff1602179055508073ffffffffffffffffffffffffffffffffffffffff165f73ffffffffffffffffffffffffffffffffffffffff167f0243549a92b2412f7a3caf7a2e56d65b8821b91345363faa5f57195384065fcc60405160405180910390a361014a5f5f1b336101e460201b60201c565b5061017b7feb0a07781e3ee843c0d85f7381c2e1a1e1a6ea86bcdcd944ef649d46e7dcd972336101e460201b60201c565b506101ac7fc8f5b4140cca307cd927e59cbeea8291bffeee228fc677f0fa059aef7b4dd8d5336101e460201b60201c565b506101dd7f65d7a28e3265b37a6474929f336521b332c1681b933f6cb9f3376673440d862a336101e460201b60201c565b50506103cc565b5f6101f583836102d960201b60201c565b6102cf5760015f5f8581526020019081526020015f205f015f8473ffffffffffffffffffffffffffffffffffffffff1673ffffffffffffffffffffffffffffffffffffffff1681526020019081526020015f205f6101000a81548160ff02191690831515021790555061026c61033c60201b60201c565b73ffffffffffffffffffffffffffffffffffffffff168273ffffffffffffffffffffffffffffffffffffffff16847f2f8788117e7eff1d82e926ec794901d17c78024a50270940304540a733656f0d60405160405180910390a4600190506102d3565b5f90505b92915050565b5f5f5f8481526020019081526020015f205f015f8373ffffffffffffffffffffffffffffffffffffffff1673ffffffffffffffffffffffffffffffffffffffff1681526020019081526020015f205f9054906101000a900460ff16905092915050565b5f33905090565b5f5ffd5b5f73ffffffffffffffffffffffffffffffffffffffff82169050919050565b5f61037082610347565b9050919050565b61038081610366565b811461038a575f5ffd5b50565b5f8151905061039b81610377565b92915050565b5f602082840312156103b6576103b5610343565b5b5f6103c38482850161038d565b91505092915050565b615550806103d95f395ff3fe608060405234801561000f575f5ffd5b5060043610610246575f3560e01c80638106208011610139578063d547741f116100b6578063e6cf0b901161007a578063e6cf0b9014610768578063eaf800fa14610799578063f0a3c763146107c9578063f6909c74146107e5578063f6ba66781461081557610246565b8063d547741f146106b0578063e0df7bb6146106cc578063e63ab1e9146106ea578063e64fa3f814610708578063e69589821461073857610246565b8063a217fddf116100fd578063a217fddf146105d2578063a888c2cd146105f0578063a95355d41461062b578063bbd245ea1461065c578063d3e894831461067a57610246565b8063810620801461052f5780638456cb591461054b57806385df20131461055557806391d14854146105865780639280eab8146105b657610246565b80632f2ff15d116101c7578063561a5d5a1161018b578063561a5d5a1461045c5780635acd6fac1461048c5780635c975abb146104a857806379c88894146104c65780637acc0b20146104f657610246565b80632f2ff15d146103e257806336568abe146103fe5780633f4ba83a1461041a57806346e30135146104245780635437988d1461044057610246565b8063248a9ca31161020e578063248a9ca31461030357806327395aad146103335780632a053b3e146103635780632b7ac3f3146103935780632f0e33a5146103b157610246565b806301ffc9a71461024a578063056c99891461027a5780630a131d7e146102985780630b100a5a146102c95780630d13fa5a146102e7575b5f5ffd5b610264600480360381019061025f9190613eda565b610833565b6040516102719190613f1f565b60405180910390f35b6102826108ac565b60405161028f9190613f50565b60405180910390f35b6102b260048036038101906102ad9190613f9c565b6108d0565b6040516102c09291906141ed565b60405180910390f35b6102d1610a52565b6040516102de919061421b565b60405180910390f35b61030160048036038101906102fc9190614234565b610a5e565b005b61031d60048036038101906103189190614289565b610d0b565b60405161032a9190613f50565b60405180910390f35b61034d60048036038101906103489190614378565b610d27565b60405161035a919061421b565b60405180910390f35b61037d60048036038101906103789190614422565b61107c565b60405161038a919061421b565b60405180910390f35b61039b6110c9565b6040516103a891906144a8565b60405180910390f35b6103cb60048036038101906103c691906144c1565b6110ee565b6040516103d99291906145b9565b60405180910390f35b6103fc60048036038101906103f791906145e7565b611144565b005b610418600480360381019061041391906145e7565b611166565b005b6104226111e1565b005b61043e60048036038101906104399190614234565b611216565b005b61045a60048036038101906104559190614422565b611376565b005b61047660048036038101906104719190614422565b6114ab565b604051610483919061421b565b60405180910390f35b6104a660048036038101906104a19190613f9c565b6114f8565b005b6104b06115e9565b6040516104bd9190613f1f565b60405180910390f35b6104e060048036038101906104db9190614234565b6115fe565b6040516104ed919061421b565b60405180910390f35b610510600480360381019061050b9190614234565b61199d565b6040516105269a999897969594939291906146d5565b60405180910390f35b610549600480360381019061054491906147a0565b611ae0565b005b610553611b75565b005b61056f600480360381019061056a9190613f9c565b611baa565b60405161057d929190614945565b60405180910390f35b6105a0600480360381019061059b91906145e7565b611d71565b6040516105ad9190613f1f565b60405180910390f35b6105d060048036038101906105cb9190614973565b611dd4565b005b6105da611e57565b6040516105e79190613f50565b60405180910390f35b61060a60048036038101906106059190614234565b611e5d565b6040516106229c9b9a999897969594939291906149c0565b60405180910390f35b61064560048036038101906106409190613f9c565b611f20565b604051610653929190614bee565b60405180910390f35b6106646120d4565b604051610671919061421b565b60405180910390f35b610694600480360381019061068f9190614234565b6120e0565b6040516106a79796959493929190614c2b565b60405180910390f35b6106ca60048036038101906106c591906145e7565b612185565b005b6106d46121a7565b6040516106e1919061421b565b60405180910390f35b6106f26121b3565b6040516106ff9190613f50565b60405180910390f35b610722600480360381019061071d9190614c98565b6121d7565b60405161072f919061421b565b60405180910390f35b610752600480360381019061074d9190614db8565b6125b7565b60405161075f919061421b565b60405180910390f35b610782600480360381019061077d91906144c1565b612ec1565b6040516107909291906145b9565b60405180910390f35b6107b360048036038101906107ae9190614234565b612f17565b6040516107c0919061421b565b60405180910390f35b6107e360048036038101906107de9190614973565b612f2c565b005b6107ff60048036038101906107fa9190614289565b6130a1565b60405161080c9190613f1f565b60405180910390f35b61081d6130be565b60405161082a9190613f50565b60405180910390f35b5f7f7965db0b000000000000000000000000000000000000000000000000000000007bffffffffffffffffffffffffffffffffffffffffffffffffffffffff1916827bffffffffffffffffffffffffffffffffffffffffffffffffffffffff191614806108a557506108a4826130e2565b5b9050919050565b7feb0a07781e3ee843c0d85f7381c2e1a1e1a6ea86bcdcd944ef649d46e7dcd97281565b60605f5f5f6108e1600c878761314b565b91509150815167ffffffffffffffff811115610900576108ff614e6b565b5b60405190808252806020026020018201604052801561093957816020015b610926613d42565b81526020019060019003908161091e5790505b5093505f5f90505b8251811015610a45575f60095f85848151811061096157610960614e98565b5b602002602001015181526020019081526020015f2090506040518060e00160405280825f0154815260200182600101548152602001826002015f9054906101000a900473ffffffffffffffffffffffffffffffffffffffff1673ffffffffffffffffffffffffffffffffffffffff168152602001826003015481526020018260040154815260200182600501548152602001826007015f9054906101000a900460ff166004811115610a1657610a15614060565b5b815250868381518110610a2c57610a2b614e98565b5b6020026020010181905250508080600101915050610941565b5080925050509250929050565b5f600b80549050905090565b610a66613291565b610a6e6132d2565b7feb0a07781e3ee843c0d85f7381c2e1a1e1a6ea86bcdcd944ef649d46e7dcd972610a9881613316565b5f610aa28361332a565b905060026004811115610ab857610ab7614060565b5b816007015f9054906101000a900460ff166004811115610adb57610ada614060565b5b14610b12576040517ff8d3970b00000000000000000000000000000000000000000000000000000000815260040160405180910390fd5b5f610b2082600101546133cb565b90505f816001015490505f610b348261346c565b9050610b3f8161350d565b836003015460105f8481526020019081526020015f20541015610b8e576040517fa5e3626000000000000000000000000000000000000000000000000000000000815260040160405180910390fd5b836003015460105f8481526020019081526020015f205f828254610bb29190614ef2565b92505081905550610c2e846002015f9054906101000a900473ffffffffffffffffffffffffffffffffffffffff168560030154836002015f9054906101000a900473ffffffffffffffffffffffffffffffffffffffff1673ffffffffffffffffffffffffffffffffffffffff166136319092919063ffffffff16565b6004846007015f6101000a81548160ff02191690836004811115610c5557610c54614060565b5b0217905550428460070160116101000a81548167ffffffffffffffff021916908367ffffffffffffffff160217905550836002015f9054906101000a900473ffffffffffffffffffffffffffffffffffffffff1673ffffffffffffffffffffffffffffffffffffffff16867faf3c8fdd75d667f71d36d7840b8ef9086c516c9b047ad6a83a5a66151342123a8660030154604051610cf3919061421b565b60405180910390a35050505050610d086136b0565b50565b5f5f5f8381526020019081526020015f20600101549050919050565b5f610d30613291565b7feb0a07781e3ee843c0d85f7381c2e1a1e1a6ea86bcdcd944ef649d46e7dcd972610d5a81613316565b5f73ffffffffffffffffffffffffffffffffffffffff168973ffffffffffffffffffffffffffffffffffffffff1603610dbf576040517fd92e233d00000000000000000000000000000000000000000000000000000000815260040160405180910390fd5b60045f8154610dcd90614f25565b91905081905591506040518061014001604052808381526020013373ffffffffffffffffffffffffffffffffffffffff1681526020018a73ffffffffffffffffffffffffffffffffffffffff1681526020018981526020018881526020018763ffffffff1681526020018681526020016001151581526020014267ffffffffffffffff16815260200185858080601f0160208091040260200160405190810160405280939291908181526020018383808284375f81840152601f19601f8201169050808301925050505050505081525060075f8481526020019081526020015f205f820151815f01556020820151816001015f6101000a81548173ffffffffffffffffffffffffffffffffffffffff021916908373ffffffffffffffffffffffffffffffffffffffff1602179055506040820151816002015f6101000a81548173ffffffffffffffffffffffffffffffffffffffff021916908373ffffffffffffffffffffffffffffffffffffffff160217905550606082015181600301556080820151816004015560a0820151816005015f6101000a81548163ffffffff021916908363ffffffff16021790555060c0820151816006015560e0820151816007015f6101000a81548160ff0219169083151502179055506101008201518160070160016101000a81548167ffffffffffffffff021916908367ffffffffffffffff160217905550610120820151816008019081610feb9190615160565b50905050600a82908060018154018082558091505060019003905f5260205f20015f90919091909150558873ffffffffffffffffffffffffffffffffffffffff163373ffffffffffffffffffffffffffffffffffffffff16837f7ab02de634eab482e2fbc93c329fcb207ffde846ca6d47490afba62fac40266960405160405180910390a450979650505050505050565b5f6110c2600d5f8473ffffffffffffffffffffffffffffffffffffffff1673ffffffffffffffffffffffffffffffffffffffff1681526020019081526020015f206136ba565b9050919050565b60035f9054906101000a900473ffffffffffffffffffffffffffffffffffffffff1681565b60605f611138600d5f8773ffffffffffffffffffffffffffffffffffffffff1673ffffffffffffffffffffffffffffffffffffffff1681526020019081526020015f2085856136cd565b91509150935093915050565b61114d82610d0b565b61115681613316565b611160838361380e565b50505050565b61116e6138f7565b73ffffffffffffffffffffffffffffffffffffffff168173ffffffffffffffffffffffffffffffffffffffff16146111d2576040517f6697b23200000000000000000000000000000000000000000000000000000000815260040160405180910390fd5b6111dc82826138fe565b505050565b7f65d7a28e3265b37a6474929f336521b332c1681b933f6cb9f3376673440d862a61120b81613316565b6112136139e7565b50565b61121e613291565b7feb0a07781e3ee843c0d85f7381c2e1a1e1a6ea86bcdcd944ef649d46e7dcd97261124881613316565b5f6112528361332a565b90506001600481111561126857611267614060565b5b816007015f9054906101000a900460ff16600481111561128b5761128a614060565b5b146112c2576040517ff8d3970b00000000000000000000000000000000000000000000000000000000815260040160405180910390fd5b5f6112d082600101546133cb565b6001015490505f6112e08261346c565b90506112eb8161350d565b6002836007015f6101000a81548160ff0219169083600481111561131257611311614060565b5b0217905550428360070160096101000a81548167ffffffffffffffff021916908367ffffffffffffffff160217905550847fd2d0ed0cccc8615643ade1eff3929a29ed8df75ebca85a3996e311c9b69e228960405160405180910390a25050505050565b5f5f1b61138281613316565b5f73ffffffffffffffffffffffffffffffffffffffff168273ffffffffffffffffffffffffffffffffffffffff16036113e7576040517fd92e233d00000000000000000000000000000000000000000000000000000000815260040160405180910390fd5b5f60035f9054906101000a900473ffffffffffffffffffffffffffffffffffffffff1690508260035f6101000a81548173ffffffffffffffffffffffffffffffffffffffff021916908373ffffffffffffffffffffffffffffffffffffffff1602179055508273ffffffffffffffffffffffffffffffffffffffff168173ffffffffffffffffffffffffffffffffffffffff167f0243549a92b2412f7a3caf7a2e56d65b8821b91345363faa5f57195384065fcc60405160405180910390a3505050565b5f6114f1600e5f8473ffffffffffffffffffffffffffffffffffffffff1673ffffffffffffffffffffffffffffffffffffffff1681526020019081526020015f206136ba565b9050919050565b611500613291565b7feb0a07781e3ee843c0d85f7381c2e1a1e1a6ea86bcdcd944ef649d46e7dcd97261152a81613316565b5f6115348461346c565b905061153f8161350d565b61158f333085846002015f9054906101000a900473ffffffffffffffffffffffffffffffffffffffff1673ffffffffffffffffffffffffffffffffffffffff16613a48909392919063ffffffff16565b8260105f8681526020019081526020015f205f8282546115af919061522f565b92505081905550837feca6714fcf568fb34cf9db4a414cb0cc48e93c5d4e1ba0582a46ea3704cf24d560405160405180910390a250505050565b5f60015f9054906101000a900460ff16905090565b5f611607613291565b61160f6132d2565b5f6116198361346c565b9050806007015f9054906101000a900460ff16611662576040517f2cdd618700000000000000000000000000000000000000000000000000000000815260040160405180910390fd5b6116b633308360030154846002015f9054906101000a900473ffffffffffffffffffffffffffffffffffffffff1673ffffffffffffffffffffffffffffffffffffffff16613a48909392919063ffffffff16565b806003015460105f8581526020019081526020015f205f8282546116da919061522f565b9250508190555060055f81546116ef90614f25565b91905081905591505f4290505f62015180836005015f9054906101000a900463ffffffff1663ffffffff166117249190615262565b4261172f919061522f565b90506040518060e001604052808581526020018681526020013373ffffffffffffffffffffffffffffffffffffffff1681526020018367ffffffffffffffff1681526020018267ffffffffffffffff1681526020015f600281111561179757611796614060565b5b81526020014267ffffffffffffffff1681525060085f8681526020019081526020015f205f820151815f0155602082015181600101556040820151816002015f6101000a81548173ffffffffffffffffffffffffffffffffffffffff021916908373ffffffffffffffffffffffffffffffffffffffff16021790555060608201518160020160146101000a81548167ffffffffffffffff021916908367ffffffffffffffff1602179055506080820151816003015f6101000a81548167ffffffffffffffff021916908367ffffffffffffffff16021790555060a08201518160030160086101000a81548160ff0219169083600281111561189b5761189a614060565b5b021790555060c08201518160030160096101000a81548167ffffffffffffffff021916908367ffffffffffffffff160217905550905050600b84908060018154018082558091505060019003905f5260205f20015f909190919091505561194784600d5f3373ffffffffffffffffffffffffffffffffffffffff1673ffffffffffffffffffffffffffffffffffffffff1681526020019081526020015f20613aca90919063ffffffff16565b503373ffffffffffffffffffffffffffffffffffffffff1685857fa1e004b771d2bfa9498a1f952d363a2b88201b708e272e7bdd675dfa7941e36560405160405180910390a45050506119986136b0565b919050565b6007602052805f5260405f205f91509050805f015490806001015f9054906101000a900473ffffffffffffffffffffffffffffffffffffffff1690806002015f9054906101000a900473ffffffffffffffffffffffffffffffffffffffff1690806003015490806004015490806005015f9054906101000a900463ffffffff1690806006015490806007015f9054906101000a900460ff16908060070160019054906101000a900467ffffffffffffffff1690806008018054611a5f90614f99565b80601f0160208091040260200160405190810160405280929190818152602001828054611a8b90614f99565b8015611ad65780601f10611aad57610100808354040283529160200191611ad6565b820191905f5260205f20905b815481529060010190602001808311611ab957829003601f168201915b505050505090508a565b611ae8613291565b7feb0a07781e3ee843c0d85f7381c2e1a1e1a6ea86bcdcd944ef649d46e7dcd972611b1281613316565b5f611b1c8461346c565b9050611b278161350d565b82816007015f6101000a81548160ff021916908315150217905550837feca6714fcf568fb34cf9db4a414cb0cc48e93c5d4e1ba0582a46ea3704cf24d560405160405180910390a250505050565b7f65d7a28e3265b37a6474929f336521b332c1681b933f6cb9f3376673440d862a611b9f81613316565b611ba7613ae1565b50565b60605f5f5f611bbb600a878761314b565b91509150815167ffffffffffffffff811115611bda57611bd9614e6b565b5b604051908082528060200260200182016040528015611c1357816020015b611c00613da0565b815260200190600190039081611bf85790505b5093505f5f90505b8251811015611d64575f60075f858481518110611c3b57611c3a614e98565b5b602002602001015181526020019081526020015f209050604051806101000160405280825f01548152602001826001015f9054906101000a900473ffffffffffffffffffffffffffffffffffffffff1673ffffffffffffffffffffffffffffffffffffffff168152602001826002015f9054906101000a900473ffffffffffffffffffffffffffffffffffffffff1673ffffffffffffffffffffffffffffffffffffffff1681526020018260030154815260200182600401548152602001826005015f9054906101000a900463ffffffff1663ffffffff16815260200182600601548152602001826007015f9054906101000a900460ff161515815250868381518110611d4b57611d4a614e98565b5b6020026020010181905250508080600101915050611c1b565b5080925050509250929050565b5f5f5f8481526020019081526020015f205f015f8373ffffffffffffffffffffffffffffffffffffffff1673ffffffffffffffffffffffffffffffffffffffff1681526020019081526020015f205f9054906101000a900460ff16905092915050565b611ddc613291565b7feb0a07781e3ee843c0d85f7381c2e1a1e1a6ea86bcdcd944ef649d46e7dcd972611e0681613316565b5f611e108461346c565b9050611e1b8161350d565b828160060181905550837feca6714fcf568fb34cf9db4a414cb0cc48e93c5d4e1ba0582a46ea3704cf24d560405160405180910390a250505050565b5f5f1b81565b6009602052805f5260405f205f91509050805f015490806001015490806002015f9054906101000a900473ffffffffffffffffffffffffffffffffffffffff1690806003015490806004015490806005015490806006015490806007015f9054906101000a900460ff16908060070160019054906101000a900467ffffffffffffffff16908060070160099054906101000a900467ffffffffffffffff16908060070160119054906101000a900467ffffffffffffffff1690806008015490508c565b60605f5f5f611f31600b878761314b565b91509150815167ffffffffffffffff811115611f5057611f4f614e6b565b5b604051908082528060200260200182016040528015611f8957816020015b611f76613e11565b815260200190600190039081611f6e5790505b5093505f5f90505b82518110156120c7575f60085f858481518110611fb157611fb0614e98565b5b602002602001015181526020019081526020015f2090506040518060c00160405280825f0154815260200182600101548152602001826002015f9054906101000a900473ffffffffffffffffffffffffffffffffffffffff1673ffffffffffffffffffffffffffffffffffffffff1681526020018260020160149054906101000a900467ffffffffffffffff1667ffffffffffffffff168152602001826003015f9054906101000a900467ffffffffffffffff1667ffffffffffffffff1681526020018260030160089054906101000a900460ff16600281111561209857612097614060565b5b8152508683815181106120ae576120ad614e98565b5b6020026020010181905250508080600101915050611f91565b5080925050509250929050565b5f600c80549050905090565b6008602052805f5260405f205f91509050805f015490806001015490806002015f9054906101000a900473ffffffffffffffffffffffffffffffffffffffff16908060020160149054906101000a900467ffffffffffffffff1690806003015f9054906101000a900467ffffffffffffffff16908060030160089054906101000a900460ff16908060030160099054906101000a900467ffffffffffffffff16905087565b61218e82610d0b565b61219781613316565b6121a183836138fe565b50505050565b5f600a80549050905090565b7f65d7a28e3265b37a6474929f336521b332c1681b933f6cb9f3376673440d862a81565b5f6121e0613291565b7feb0a07781e3ee843c0d85f7381c2e1a1e1a6ea86bcdcd944ef649d46e7dcd97261220a81613316565b5f73ffffffffffffffffffffffffffffffffffffffff168a73ffffffffffffffffffffffffffffffffffffffff160361226f576040517fd92e233d00000000000000000000000000000000000000000000000000000000815260040160405180910390fd5b60045f815461227d90614f25565b91905081905591506040518061014001604052808381526020013373ffffffffffffffffffffffffffffffffffffffff1681526020018b73ffffffffffffffffffffffffffffffffffffffff1681526020018a81526020018981526020018863ffffffff1681526020018781526020016001151581526020014267ffffffffffffffff16815260200186868080601f0160208091040260200160405190810160405280939291908181526020018383808284375f81840152601f19601f8201169050808301925050505050505081525060075f8481526020019081526020015f205f820151815f01556020820151816001015f6101000a81548173ffffffffffffffffffffffffffffffffffffffff021916908373ffffffffffffffffffffffffffffffffffffffff1602179055506040820151816002015f6101000a81548173ffffffffffffffffffffffffffffffffffffffff021916908373ffffffffffffffffffffffffffffffffffffffff160217905550606082015181600301556080820151816004015560a0820151816005015f6101000a81548163ffffffff021916908363ffffffff16021790555060c0820151816006015560e0820151816007015f6101000a81548160ff0219169083151502179055506101008201518160070160016101000a81548167ffffffffffffffff021916908367ffffffffffffffff16021790555061012082015181600801908161249b9190615160565b50905050600a82908060018154018082558091505060019003905f5260205f20015f90919091909150558973ffffffffffffffffffffffffffffffffffffffff163373ffffffffffffffffffffffffffffffffffffffff16837f7ab02de634eab482e2fbc93c329fcb207ffde846ca6d47490afba62fac40266960405160405180910390a45f8311156125aa576125553330858d73ffffffffffffffffffffffffffffffffffffffff16613a48909392919063ffffffff16565b8260105f8481526020019081526020015f205f828254612575919061522f565b92505081905550817feca6714fcf568fb34cf9db4a414cb0cc48e93c5d4e1ba0582a46ea3704cf24d560405160405180910390a25b5098975050505050505050565b5f6125c0613291565b6125c86132d2565b5f6125d28a6133cb565b90505f60028111156125e7576125e6614060565b5b8160030160089054906101000a900460ff16600281111561260b5761260a614060565b5b14612642576040517f8966b51f00000000000000000000000000000000000000000000000000000000815260040160405180910390fd5b806003015f9054906101000a900467ffffffffffffffff1667ffffffffffffffff1642111561269d576040517f9c5bebca00000000000000000000000000000000000000000000000000000000815260040160405180910390fd5b806002015f9054906101000a900473ffffffffffffffffffffffffffffffffffffffff1673ffffffffffffffffffffffffffffffffffffffff163373ffffffffffffffffffffffffffffffffffffffff161415801561272357506127217fc8f5b4140cca307cd927e59cbeea8291bffeee228fc677f0fa059aef7b4dd8d533611d71565b155b1561275a576040517f82b4290000000000000000000000000000000000000000000000000000000000815260040160405180910390fd5b5f612768826001015461346c565b9050806007015f9054906101000a900460ff166127b1576040517f2cdd618700000000000000000000000000000000000000000000000000000000815260040160405180910390fd5b80600401548a11156127ef576040517faa9cc79b00000000000000000000000000000000000000000000000000000000815260040160405180910390fd5b600f5f8981526020019081526020015f205f9054906101000a900460ff1615612844576040517fcad2ae0200000000000000000000000000000000000000000000000000000000815260040160405180910390fd5b5f7f30644e72e131a029b85045b68181585d2833e84879b9709143e1f593f00000018a5f1c61287391906152d0565b90508b855f6005811061288957612888614e98565b5b6020020135146128c5576040517fbf52ac6c00000000000000000000000000000000000000000000000000000000815260040160405180910390fd5b8a856001600581106128da576128d9614e98565b5b602002013514612916576040517fbf52ac6c00000000000000000000000000000000000000000000000000000000815260040160405180910390fd5b808560026005811061292b5761292a614e98565b5b602002013514612967576040517fbf52ac6c00000000000000000000000000000000000000000000000000000000815260040160405180910390fd5b81600601545f1c8560036005811061298257612981614e98565b5b6020020135146129be576040517fbf52ac6c00000000000000000000000000000000000000000000000000000000815260040160405180910390fd5b885f1c856004600581106129d5576129d4614e98565b5b602002013514612a11576040517fbf52ac6c00000000000000000000000000000000000000000000000000000000815260040160405180910390fd5b5f60035f9054906101000a900473ffffffffffffffffffffffffffffffffffffffff1673ffffffffffffffffffffffffffffffffffffffff166334baeab98a8a8a8a6040518563ffffffff1660e01b8152600401612a7294939291906153e1565b602060405180830381865afa158015612a8d573d5f5f3e3d5ffd5b505050506040513d601f19601f82011682018060405250810190612ab1919061543a565b905080612aea576040517f09bde33900000000000000000000000000000000000000000000000000000000815260040160405180910390fd5b6001600f5f8c81526020019081526020015f205f6101000a81548160ff02191690831515021790555060065f8154612b2190614f25565b91905081905594505f86604051602001612b3b9190615465565b6040516020818303038152906040528051906020012090506040518061018001604052808781526020018f8152602001866002015f9054906101000a900473ffffffffffffffffffffffffffffffffffffffff1673ffffffffffffffffffffffffffffffffffffffff1681526020018e81526020018d81526020018c815260200182815260200160016004811115612bd657612bd5614060565b5b81526020014267ffffffffffffffff1681526020015f67ffffffffffffffff1681526020015f67ffffffffffffffff1681526020015f5f1b81525060095f8881526020019081526020015f205f820151815f0155602082015181600101556040820151816002015f6101000a81548173ffffffffffffffffffffffffffffffffffffffff021916908373ffffffffffffffffffffffffffffffffffffffff160217905550606082015181600301556080820151816004015560a0820151816005015560c0820151816006015560e0820151816007015f6101000a81548160ff02191690836004811115612ccc57612ccb614060565b5b02179055506101008201518160070160016101000a81548167ffffffffffffffff021916908367ffffffffffffffff1602179055506101208201518160070160096101000a81548167ffffffffffffffff021916908367ffffffffffffffff1602179055506101408201518160070160116101000a81548167ffffffffffffffff021916908367ffffffffffffffff1602179055506101608201518160080155905050600c86908060018154018082558091505060019003905f5260205f20015f9091909190915055612e0786600e5f886002015f9054906101000a900473ffffffffffffffffffffffffffffffffffffffff1673ffffffffffffffffffffffffffffffffffffffff1673ffffffffffffffffffffffffffffffffffffffff1681526020019081526020015f20613aca90919063ffffffff16565b50846002015f9054906101000a900473ffffffffffffffffffffffffffffffffffffffff1673ffffffffffffffffffffffffffffffffffffffff168e877f9fe11e531030a058803617055e27f9f4768236e4322e13b9c4c09f4338e23a6860405160405180910390a4857f52f0835c7dec560965de4d93337a5ad7644e44bfda7334a93a15df5af39e802f82604051612ea09190613f50565b60405180910390a25050505050612eb56136b0565b98975050505050505050565b60605f612f0b600e5f8773ffffffffffffffffffffffffffffffffffffffff1673ffffffffffffffffffffffffffffffffffffffff1681526020019081526020015f2085856136cd565b91509150935093915050565b6010602052805f5260405f205f915090505481565b612f34613291565b7feb0a07781e3ee843c0d85f7381c2e1a1e1a6ea86bcdcd944ef649d46e7dcd972612f5e81613316565b5f612f688461332a565b905060016004811115612f7e57612f7d614060565b5b816007015f9054906101000a900460ff166004811115612fa157612fa0614060565b5b14612fd8576040517ff8d3970b00000000000000000000000000000000000000000000000000000000815260040160405180910390fd5b5f612fe682600101546133cb565b6001015490505f612ff68261346c565b90506130018161350d565b6003836007015f6101000a81548160ff0219169083600481111561302857613027614060565b5b0217905550428360070160096101000a81548167ffffffffffffffff021916908367ffffffffffffffff160217905550848360080181905550857f9224b4a88af5217c4d356598e6d221dce8a017591c89a42dbdc378acea064bb7866040516130919190613f50565b60405180910390a2505050505050565b600f602052805f5260405f205f915054906101000a900460ff1681565b7fc8f5b4140cca307cd927e59cbeea8291bffeee228fc677f0fa059aef7b4dd8d581565b5f7f01ffc9a7000000000000000000000000000000000000000000000000000000007bffffffffffffffffffffffffffffffffffffffffffffffffffffffff1916827bffffffffffffffffffffffffffffffffffffffffffffffffffffffff1916149050919050565b60605f5f858054905090508085106131b1575f67ffffffffffffffff81111561317757613176614e6b565b5b6040519080825280602002602001820160405280156131a55781602001602082028036833780820191505090505b50859250925050613289565b5f84866131be919061522f565b9050818111156131cc578190505b85816131d89190614ef2565b67ffffffffffffffff8111156131f1576131f0614e6b565b5b60405190808252806020026020018201604052801561321f5781602001602082028036833780820191505090505b5093505f8690505b818110156132825787818154811061324257613241614e98565b5b905f5260205f2001548588836132589190614ef2565b8151811061326957613268614e98565b5b6020026020010181815250508080600101915050613227565b5080925050505b935093915050565b6132996115e9565b156132d0576040517fd93c066500000000000000000000000000000000000000000000000000000000815260040160405180910390fd5b565b600280540361330d576040517f3ee5aeb500000000000000000000000000000000000000000000000000000000815260040160405180910390fd5b60028081905550565b613327816133226138f7565b613b42565b50565b5f60095f8381526020019081526020015f2090505f73ffffffffffffffffffffffffffffffffffffffff16816002015f9054906101000a900473ffffffffffffffffffffffffffffffffffffffff1673ffffffffffffffffffffffffffffffffffffffff16036133c6576040517f0455eeee00000000000000000000000000000000000000000000000000000000815260040160405180910390fd5b919050565b5f60085f8381526020019081526020015f2090505f73ffffffffffffffffffffffffffffffffffffffff16816002015f9054906101000a900473ffffffffffffffffffffffffffffffffffffffff1673ffffffffffffffffffffffffffffffffffffffff1603613467576040517f720caa4f00000000000000000000000000000000000000000000000000000000815260040160405180910390fd5b919050565b5f60075f8381526020019081526020015f2090505f73ffffffffffffffffffffffffffffffffffffffff16816001015f9054906101000a900473ffffffffffffffffffffffffffffffffffffffff1673ffffffffffffffffffffffffffffffffffffffff1603613508576040517f79de4af500000000000000000000000000000000000000000000000000000000815260040160405180910390fd5b919050565b5f73ffffffffffffffffffffffffffffffffffffffff16816001015f9054906101000a900473ffffffffffffffffffffffffffffffffffffffff1673ffffffffffffffffffffffffffffffffffffffff1603613595576040517f79de4af500000000000000000000000000000000000000000000000000000000815260040160405180910390fd5b806001015f9054906101000a900473ffffffffffffffffffffffffffffffffffffffff1673ffffffffffffffffffffffffffffffffffffffff163373ffffffffffffffffffffffffffffffffffffffff16031561362e576135f85f5f1b33611d71565b61362e576040517f6268319e00000000000000000000000000000000000000000000000000000000815260040160405180910390fd5b50565b6136ab838473ffffffffffffffffffffffffffffffffffffffff1663a9059cbb858560405160240161366492919061547e565b604051602081830303815290604052915060e01b6020820180517bffffffffffffffffffffffffffffffffffffffffffffffffffffffff8381831617835250505050613b93565b505050565b6001600281905550565b5f6136c6825f01613c2e565b9050919050565b60605f5f6136da866136ba565b9050808510613737575f67ffffffffffffffff8111156136fd576136fc614e6b565b5b60405190808252806020026020018201604052801561372b5781602001602082028036833780820191505090505b50859250925050613806565b5f8486613744919061522f565b905081811115613752578190505b858161375e9190614ef2565b67ffffffffffffffff81111561377757613776614e6b565b5b6040519080825280602002602001820160405280156137a55781602001602082028036833780820191505090505b5093505f8690505b818110156137ff576137c88189613c3d90919063ffffffff16565b8588836137d59190614ef2565b815181106137e6576137e5614e98565b5b60200260200101818152505080806001019150506137ad565b5080925050505b935093915050565b5f6138198383611d71565b6138ed5760015f5f8581526020019081526020015f205f015f8473ffffffffffffffffffffffffffffffffffffffff1673ffffffffffffffffffffffffffffffffffffffff1681526020019081526020015f205f6101000a81548160ff02191690831515021790555061388a6138f7565b73ffffffffffffffffffffffffffffffffffffffff168273ffffffffffffffffffffffffffffffffffffffff16847f2f8788117e7eff1d82e926ec794901d17c78024a50270940304540a733656f0d60405160405180910390a4600190506138f1565b5f90505b92915050565b5f33905090565b5f6139098383611d71565b156139dd575f5f5f8581526020019081526020015f205f015f8473ffffffffffffffffffffffffffffffffffffffff1673ffffffffffffffffffffffffffffffffffffffff1681526020019081526020015f205f6101000a81548160ff02191690831515021790555061397a6138f7565b73ffffffffffffffffffffffffffffffffffffffff168273ffffffffffffffffffffffffffffffffffffffff16847ff6391f5c32d9c69d2a47ea670b442974b53935d1edc7fd64eb21e047a839171b60405160405180910390a4600190506139e1565b5f90505b92915050565b6139ef613c54565b5f60015f6101000a81548160ff0219169083151502179055507f5db9ee0a495bf2e6ff9c91a7834c1ba4fdd244a5e8aa4e537bd38aeae4b073aa613a316138f7565b604051613a3e91906154a5565b60405180910390a1565b613ac4848573ffffffffffffffffffffffffffffffffffffffff166323b872dd868686604051602401613a7d939291906154be565b604051602081830303815290604052915060e01b6020820180517bffffffffffffffffffffffffffffffffffffffffffffffffffffffff8381831617835250505050613b93565b50505050565b5f613ad9835f01835f1b613c94565b905092915050565b613ae9613291565b6001805f6101000a81548160ff0219169083151502179055507f62e78cea01bee320cd4e420270b5ea74000d11b0c9f74754ebdbfc544b05a258613b2b6138f7565b604051613b3891906154a5565b60405180910390a1565b613b4c8282611d71565b613b8f5780826040517fe2517d3f000000000000000000000000000000000000000000000000000000008152600401613b869291906154f3565b60405180910390fd5b5050565b5f5f60205f8451602086015f885af180613bb2576040513d5f823e3d81fd5b3d92505f519150505f8214613bcb576001811415613be6565b5f8473ffffffffffffffffffffffffffffffffffffffff163b145b15613c2857836040517f5274afe7000000000000000000000000000000000000000000000000000000008152600401613c1f91906154a5565b60405180910390fd5b50505050565b5f815f01805490509050919050565b5f613c4a835f0183613cfb565b5f1c905092915050565b613c5c6115e9565b613c92576040517f8dfc202b00000000000000000000000000000000000000000000000000000000815260040160405180910390fd5b565b5f613c9f8383613d22565b613cf157825f0182908060018154018082558091505060019003905f5260205f20015f9091909190915055825f0180549050836001015f8481526020019081526020015f208190555060019050613cf5565b5f90505b92915050565b5f825f018281548110613d1157613d10614e98565b5b905f5260205f200154905092915050565b5f5f836001015f8481526020019081526020015f20541415905092915050565b6040518060e001604052805f81526020015f81526020015f73ffffffffffffffffffffffffffffffffffffffff1681526020015f81526020015f81526020015f81526020015f6004811115613d9a57613d99614060565b5b81525090565b6040518061010001604052805f81526020015f73ffffffffffffffffffffffffffffffffffffffff1681526020015f73ffffffffffffffffffffffffffffffffffffffff1681526020015f81526020015f81526020015f63ffffffff1681526020015f81526020015f151581525090565b6040518060c001604052805f81526020015f81526020015f73ffffffffffffffffffffffffffffffffffffffff1681526020015f67ffffffffffffffff1681526020015f67ffffffffffffffff1681526020015f6002811115613e7757613e76614060565b5b81525090565b5f5ffd5b5f5ffd5b5f7fffffffff0000000000000000000000000000000000000000000000000000000082169050919050565b613eb981613e85565b8114613ec3575f5ffd5b50565b5f81359050613ed481613eb0565b92915050565b5f60208284031215613eef57613eee613e7d565b5b5f613efc84828501613ec6565b91505092915050565b5f8115159050919050565b613f1981613f05565b82525050565b5f602082019050613f325f830184613f10565b92915050565b5f819050919050565b613f4a81613f38565b82525050565b5f602082019050613f635f830184613f41565b92915050565b5f819050919050565b613f7b81613f69565b8114613f85575f5ffd5b50565b5f81359050613f9681613f72565b92915050565b5f5f60408385031215613fb257613fb1613e7d565b5b5f613fbf85828601613f88565b9250506020613fd085828601613f88565b9150509250929050565b5f81519050919050565b5f82825260208201905092915050565b5f819050602082019050919050565b61400c81613f69565b82525050565b5f73ffffffffffffffffffffffffffffffffffffffff82169050919050565b5f61403b82614012565b9050919050565b61404b81614031565b82525050565b61405a81613f38565b82525050565b7f4e487b71000000000000000000000000000000000000000000000000000000005f52602160045260245ffd5b6005811061409e5761409d614060565b5b50565b5f8190506140ae8261408d565b919050565b5f6140bd826140a1565b9050919050565b6140cd816140b3565b82525050565b60e082015f8201516140e75f850182614003565b5060208201516140fa6020850182614003565b50604082015161410d6040850182614042565b5060608201516141206060850182614003565b5060808201516141336080850182614051565b5060a082015161414660a0850182614051565b5060c082015161415960c08501826140c4565b50505050565b5f61416a83836140d3565b60e08301905092915050565b5f602082019050919050565b5f61418c82613fda565b6141968185613fe4565b93506141a183613ff4565b805f5b838110156141d15781516141b8888261415f565b97506141c383614176565b9250506001810190506141a4565b5085935050505092915050565b6141e781613f69565b82525050565b5f6040820190508181035f8301526142058185614182565b905061421460208301846141de565b9392505050565b5f60208201905061422e5f8301846141de565b92915050565b5f6020828403121561424957614248613e7d565b5b5f61425684828501613f88565b91505092915050565b61426881613f38565b8114614272575f5ffd5b50565b5f813590506142838161425f565b92915050565b5f6020828403121561429e5761429d613e7d565b5b5f6142ab84828501614275565b91505092915050565b6142bd81614031565b81146142c7575f5ffd5b50565b5f813590506142d8816142b4565b92915050565b5f63ffffffff82169050919050565b6142f6816142de565b8114614300575f5ffd5b50565b5f81359050614311816142ed565b92915050565b5f5ffd5b5f5ffd5b5f5ffd5b5f5f83601f84011261433857614337614317565b5b8235905067ffffffffffffffff8111156143555761435461431b565b5b6020830191508360018202830111156143715761437061431f565b5b9250929050565b5f5f5f5f5f5f5f60c0888a03121561439357614392613e7d565b5b5f6143a08a828b016142ca565b97505060206143b18a828b01613f88565b96505060406143c28a828b01613f88565b95505060606143d38a828b01614303565b94505060806143e48a828b01614275565b93505060a088013567ffffffffffffffff81111561440557614404613e81565b5b6144118a828b01614323565b925092505092959891949750929550565b5f6020828403121561443757614436613e7d565b5b5f614444848285016142ca565b91505092915050565b5f819050919050565b5f61447061446b61446684614012565b61444d565b614012565b9050919050565b5f61448182614456565b9050919050565b5f61449282614477565b9050919050565b6144a281614488565b82525050565b5f6020820190506144bb5f830184614499565b92915050565b5f5f5f606084860312156144d8576144d7613e7d565b5b5f6144e5868287016142ca565b93505060206144f686828701613f88565b925050604061450786828701613f88565b9150509250925092565b5f81519050919050565b5f82825260208201905092915050565b5f819050602082019050919050565b5f6145458383614003565b60208301905092915050565b5f602082019050919050565b5f61456782614511565b614571818561451b565b935061457c8361452b565b805f5b838110156145ac578151614593888261453a565b975061459e83614551565b92505060018101905061457f565b5085935050505092915050565b5f6040820190508181035f8301526145d1818561455d565b90506145e060208301846141de565b9392505050565b5f5f604083850312156145fd576145fc613e7d565b5b5f61460a85828601614275565b925050602061461b858286016142ca565b9150509250929050565b61462e81614031565b82525050565b61463d816142de565b82525050565b5f67ffffffffffffffff82169050919050565b61465f81614643565b82525050565b5f81519050919050565b5f82825260208201905092915050565b8281835e5f83830152505050565b5f601f19601f8301169050919050565b5f6146a782614665565b6146b1818561466f565b93506146c181856020860161467f565b6146ca8161468d565b840191505092915050565b5f610140820190506146e95f83018d6141de565b6146f6602083018c614625565b614703604083018b614625565b614710606083018a6141de565b61471d60808301896141de565b61472a60a0830188614634565b61473760c0830187613f41565b61474460e0830186613f10565b614752610100830185614656565b818103610120830152614765818461469d565b90509b9a5050505050505050505050565b61477f81613f05565b8114614789575f5ffd5b50565b5f8135905061479a81614776565b92915050565b5f5f604083850312156147b6576147b5613e7d565b5b5f6147c385828601613f88565b92505060206147d48582860161478c565b9150509250929050565b5f81519050919050565b5f82825260208201905092915050565b5f819050602082019050919050565b614810816142de565b82525050565b61481f81613f05565b82525050565b61010082015f82015161483a5f850182614003565b50602082015161484d6020850182614042565b5060408201516148606040850182614042565b5060608201516148736060850182614003565b5060808201516148866080850182614003565b5060a082015161489960a0850182614807565b5060c08201516148ac60c0850182614051565b5060e08201516148bf60e0850182614816565b50505050565b5f6148d08383614825565b6101008301905092915050565b5f602082019050919050565b5f6148f3826147de565b6148fd81856147e8565b9350614908836147f8565b805f5b8381101561493857815161491f88826148c5565b975061492a836148dd565b92505060018101905061490b565b5085935050505092915050565b5f6040820190508181035f83015261495d81856148e9565b905061496c60208301846141de565b9392505050565b5f5f6040838503121561498957614988613e7d565b5b5f61499685828601613f88565b92505060206149a785828601614275565b9150509250929050565b6149ba816140b3565b82525050565b5f610180820190506149d45f83018f6141de565b6149e1602083018e6141de565b6149ee604083018d614625565b6149fb606083018c6141de565b614a08608083018b613f41565b614a1560a083018a613f41565b614a2260c0830189613f41565b614a2f60e08301886149b1565b614a3d610100830187614656565b614a4b610120830186614656565b614a59610140830185614656565b614a67610160830184613f41565b9d9c50505050505050505050505050565b5f81519050919050565b5f82825260208201905092915050565b5f819050602082019050919050565b614aaa81614643565b82525050565b60038110614ac157614ac0614060565b5b50565b5f819050614ad182614ab0565b919050565b5f614ae082614ac4565b9050919050565b614af081614ad6565b82525050565b60c082015f820151614b0a5f850182614003565b506020820151614b1d6020850182614003565b506040820151614b306040850182614042565b506060820151614b436060850182614aa1565b506080820151614b566080850182614aa1565b5060a0820151614b6960a0850182614ae7565b50505050565b5f614b7a8383614af6565b60c08301905092915050565b5f602082019050919050565b5f614b9c82614a78565b614ba68185614a82565b9350614bb183614a92565b805f5b83811015614be1578151614bc88882614b6f565b9750614bd383614b86565b925050600181019050614bb4565b5085935050505092915050565b5f6040820190508181035f830152614c068185614b92565b9050614c1560208301846141de565b9392505050565b614c2581614ad6565b82525050565b5f60e082019050614c3e5f83018a6141de565b614c4b60208301896141de565b614c586040830188614625565b614c656060830187614656565b614c726080830186614656565b614c7f60a0830185614c1c565b614c8c60c0830184614656565b98975050505050505050565b5f5f5f5f5f5f5f5f60e0898b031215614cb457614cb3613e7d565b5b5f614cc18b828c016142ca565b9850506020614cd28b828c01613f88565b9750506040614ce38b828c01613f88565b9650506060614cf48b828c01614303565b9550506080614d058b828c01614275565b94505060a089013567ffffffffffffffff811115614d2657614d25613e81565b5b614d328b828c01614323565b935093505060c0614d458b828c01613f88565b9150509295985092959890939650565b5f81905082602060020282011115614d7057614d6f61431f565b5b92915050565b5f81905082604060020282011115614d9157614d9061431f565b5b92915050565b5f81905082602060050282011115614db257614db161431f565b5b92915050565b5f5f5f5f5f5f5f5f610220898b031215614dd557614dd4613e7d565b5b5f614de28b828c01613f88565b9850506020614df38b828c01613f88565b9750506040614e048b828c01614275565b9650506060614e158b828c01614275565b9550506080614e268b828c01614d55565b94505060c0614e378b828c01614d76565b935050610140614e498b828c01614d55565b925050610180614e5b8b828c01614d97565b9150509295985092959890939650565b7f4e487b71000000000000000000000000000000000000000000000000000000005f52604160045260245ffd5b7f4e487b71000000000000000000000000000000000000000000000000000000005f52603260045260245ffd5b7f4e487b71000000000000000000000000000000000000000000000000000000005f52601160045260245ffd5b5f614efc82613f69565b9150614f0783613f69565b9250828203905081811115614f1f57614f1e614ec5565b5b92915050565b5f614f2f82613f69565b91507fffffffffffffffffffffffffffffffffffffffffffffffffffffffffffffffff8203614f6157614f60614ec5565b5b600182019050919050565b7f4e487b71000000000000000000000000000000000000000000000000000000005f52602260045260245ffd5b5f6002820490506001821680614fb057607f821691505b602082108103614fc357614fc2614f6c565b5b50919050565b5f819050815f5260205f209050919050565b5f6020601f8301049050919050565b5f82821b905092915050565b5f600883026150257fffffffffffffffffffffffffffffffffffffffffffffffffffffffffffffffff82614fea565b61502f8683614fea565b95508019841693508086168417925050509392505050565b5f61506161505c61505784613f69565b61444d565b613f69565b9050919050565b5f819050919050565b61507a83615047565b61508e61508682615068565b848454614ff6565b825550505050565b5f5f905090565b6150a5615096565b6150b0818484615071565b505050565b5b818110156150d3576150c85f8261509d565b6001810190506150b6565b5050565b601f821115615118576150e981614fc9565b6150f284614fdb565b81016020851015615101578190505b61511561510d85614fdb565b8301826150b5565b50505b505050565b5f82821c905092915050565b5f6151385f198460080261511d565b1980831691505092915050565b5f6151508383615129565b9150826002028217905092915050565b61516982614665565b67ffffffffffffffff81111561518257615181614e6b565b5b61518c8254614f99565b6151978282856150d7565b5f60209050601f8311600181146151c8575f84156151b6578287015190505b6151c08582615145565b865550615227565b601f1984166151d686614fc9565b5f5b828110156151fd578489015182556001820191506020850194506020810190506151d8565b8683101561521a5784890151615216601f891682615129565b8355505b6001600288020188555050505b505050505050565b5f61523982613f69565b915061524483613f69565b925082820190508082111561525c5761525b614ec5565b5b92915050565b5f61526c82613f69565b915061527783613f69565b925082820261528581613f69565b9150828204841483151761529c5761529b614ec5565b5b5092915050565b7f4e487b71000000000000000000000000000000000000000000000000000000005f52601260045260245ffd5b5f6152da82613f69565b91506152e583613f69565b9250826152f5576152f46152a3565b5b828206905092915050565b82818337505050565b61531560408383615300565b5050565b5f60029050919050565b5f81905092915050565b5f819050919050565b61534260408383615300565b5050565b5f6153518383615336565b60408301905092915050565b5f82905092915050565b5f604082019050919050565b61537c81615319565b6153868184615323565b92506153918261532d565b805f5b838110156153c9576153a6828461535d565b6153b08782615346565b96506153bb83615367565b925050600181019050615394565b505050505050565b6153dd60a08383615300565b5050565b5f6101a0820190506153f55f830187615309565b6154026040830186615373565b61540f60c0830185615309565b61541d6101008301846153d1565b95945050505050565b5f8151905061543481614776565b92915050565b5f6020828403121561544f5761544e613e7d565b5b5f61545c84828501615426565b91505092915050565b5f60a0820190506154785f8301846153d1565b92915050565b5f6040820190506154915f830185614625565b61549e60208301846141de565b9392505050565b5f6020820190506154b85f830184614625565b92915050565b5f6060820190506154d15f830186614625565b6154de6020830185614625565b6154eb60408301846141de565b949350505050565b5f6040820190506155065f830185614625565b6155136020830184613f41565b939250505056fea264697066735822122085fb2dfcdb77d588d89ebe0675131cc8eb460231e28d916e223c0beb93e613b264736f6c634300081c0033",
  "linkReferences": {},
  "deployedLinkReferences": {},
  "immutableReferences": {},
  "inputSourceName": "project/contracts/ZKMedicalInsurance.sol",
  "buildInfoId": "solc-0_8_28-382921a2f111dc66341d83e49c63c483395e347e"
}