{
  "_format": "hh3-artifact-1",
  "contractName": "ZKMedicalInsurance",
  "sourceName": "contracts/ZKMedicalInsurance.sol",
  "abi": [
    {
      "inputs": [
        {
          "internalType": "address",
          "name": "verifier_",
          "type": "address"
        }
      ],
      "stateMutability": "nonpayable",
      "type": "constructor"
    },
    {
      "inputs": [],
      "name": "AccessControlBadConfirmation",
      "type": "error"
    },
    {
      "inputs": [
        {
          "internalType": "address",
          "name": "account",
          "type": "address"
        },
        {
          "internalType": "bytes32",
          "name": "neededRole",
          "type": "bytes32"
        }
      ],
      "name": "AccessControlUnauthorizedAccount",
      "type": "error"
    },
    {
      "inputs": [],
      "name": "AmountExceedsCoverage",
      "type": "error"
    },
    {
      "inputs": [],
      "name": "ClaimNotFound",
      "type": "error"
    },
    {
      "inputs": [],
      "name": "ClaimNotInExpectedStatus",
      "type": "error"
    },
    {
      "inputs": [],
      "name": "EnforcedPause",
      "type": "error"
    },
    {
      "inputs": [],
      "name": "ExpectedPause",
      "type": "error"
    },
    {
      "inputs": [],
      "name": "InvalidProof",
      "type": "error"
    },
    {
      "inputs": [],
      "name": "InvalidPublicSignals",
      "type": "error"
    },
    {
      "inputs": [],
      "name": "NotProductInsurer",
      "type": "error"
    },
    {
      "inputs": [],
      "name": "NullifierAlreadyUsed",
      "type": "error"
    },
    {
      "inputs": [],
      "name": "PolicyExpired",
      "type": "error"
    },
    {
      "inputs": [],
      "name": "PolicyNotActive",
      "type": "error"
    },
    {
      "inputs": [],
      "name": "PolicyNotFound",
      "type": "error"
    },
    {
      "inputs": [],
      "name": "PoolInsufficient",
      "type": "error"
    },
    {
      "inputs": [],
      "name": "ProductNotActive",
      "type": "error"
    },
    {
      "inputs": [],
      "name": "ProductNotFound",
      "type": "error"
    },
    {
      "inputs": [],
      "name": "ReentrancyGuardReentrantCall",
      "type": "error"
    },
    {
      "inputs": [
        {
          "internalType": "address",
          "name": "token",
          "type": "address"
        }
      ],
      "name": "SafeERC20FailedOperation",
      "type": "error"
    },
    {
      "inputs": [],
      "name": "Unauthorized",
      "type": "error"
    },
    {
      "inputs": [],
      "name": "ZeroAddress",
      "type": "error"
    },
    {
      "anonymous": false,
      "inputs": [
        {
          "indexed": true,
          "internalType": "uint256",
          "name": "claimId",
          "type": "uint256"
        }
      ],
      "name": "ClaimApproved",
      "type": "event"
    },
    {
      "anonymous": false,
      "inputs": [
        {
          "indexed": true,
          "internalType": "uint256",
          "name": "claimId",
          "type": "uint256"
        },
        {
          "indexed": true,
          "internalType": "address",
          "name": "to",
          "type": "address"
        },
        {
          "indexed": false,
          "internalType": "uint256",
          "name": "amount",
          "type": "uint256"
        }
      ],
      "name": "ClaimPaid",
      "type": "event"
    },
    {
      "anonymous": false,
      "inputs": [
        {
          "indexed": true,
          "internalType": "uint256",
          "name": "claimId",
          "type": "uint256"
        },
        {
          "indexed": false,
          "internalType": "bytes32",
          "name": "decisionMemoHash",
          "type": "bytes32"
        }
      ],
      "name": "ClaimRejected",
      "type": "event"
    },
    {
      "anonymous": false,
      "inputs": [
        {
          "indexed": true,
          "internalType": "uint256",
          "name": "claimId",
          "type": "uint256"
        },
        {
          "indexed": true,
          "internalType": "uint256",
          "name": "policyId",
          "type": "uint256"
        },
        {
          "indexed": true,
          "internalType": "address",
          "name": "claimant",
          "type": "address"
        }
      ],
      "name": "ClaimSubmitted",
      "type": "event"
    },
    {
      "anonymous": false,
      "inputs": [
        {
          "indexed": true,
          "internalType": "uint256",
          "name": "claimId",
          "type": "uint256"
        },
        {
          "indexed": false,
          "internalType": "bytes32",
          "name": "publicSignalsHash",
          "type": "bytes32"
        }
      ],
      "name": "ClaimVerified",
      "type": "event"
    },
    {
      "anonymous": false,
      "inputs": [
        {
          "indexed": false,
          "internalType": "address",
          "name": "account",
          "type": "address"
        }
      ],
      "name": "Paused",
      "type": "event"
    },
    {
      "anonymous": false,
      "inputs": [
        {
          "indexed": true,
          "internalType": "uint256",
          "name": "policyId",
          "type": "uint256"
        },
        {
          "indexed": true,
          "internalType": "uint256",
          "name": "productId",
          "type": "uint256"
        },
        {
          "indexed": true,
          "internalType": "address",
          "name": "holder",
          "type": "address"
        }
      ],
      "name": "PolicyPurchased",
      "type": "event"
    },
    {
      "anonymous": false,
      "inputs": [
        {
          "indexed": true,
          "internalType": "uint256",
          "name": "productId",
          "type": "uint256"
        },
        {
          "indexed": true,
          "internalType": "address",
          "name": "insurer",
          "type": "address"
        },
        {
          "indexed": true,
          "internalType": "address",
          "name": "token",
          "type": "address"
        }
      ],
      "name": "ProductCreated",
      "type": "event"
    },
    {
      "anonymous": false,
      "inputs": [
        {
          "indexed": true,
          "internalType": "uint256",
          "name": "productId",
          "type": "uint256"
        }
      ],
      "name": "ProductUpdated",
      "type": "event"
    },
    {
      "anonymous": false,
      "inputs": [
        {
          "indexed": true,
          "internalType": "bytes32",
          "name": "role",
          "type": "bytes32"
        },
        {
          "indexed": true,
          "internalType": "bytes32",
          "name": "previousAdminRole",
          "type": "bytes32"
        },
        {
          "indexed": true,
          "internalType": "bytes32",
          "name": "newAdminRole",
          "type": "bytes32"
        }
      ],
      "name": "RoleAdminChanged",
      "type": "event"
    },
    {
      "anonymous": false,
      "inputs": [
        {
          "indexed": true,
          "internalType": "bytes32",
          "name": "role",
          "type": "bytes32"
        },
        {
          "indexed": true,
          "internalType": "address",
          "name": "account",
          "type": "address"
        },
        {
          "indexed": true,
          "internalType": "address",
          "name": "sender",
          "type": "address"
        }
      ],
      "name": "RoleGranted",
      "type": "event"
    },
    {
      "anonymous": false,
      "inputs": [
        {
          "indexed": true,
          "internalType": "bytes32",
          "name": "role",
          "type": "bytes32"
        },
        {
          "indexed": true,
          "internalType": "address",
          "name": "account",
          "type": "address"
        },
        {
          "indexed": true,
          "internalType": "address",
          "name": "sender",
          "type": "address"
        }
      ],
      "name": "RoleRevoked",
      "type": "event"
    },
    {
      "anonymous": false,
      "inputs": [
        {
          "indexed": false,
          "internalType": "address",
          "name": "account",
          "type": "address"
        }
      ],
      "name": "Unpaused",
      "type": "event"
    },
    {
      "anonymous": false,
      "inputs": [
        {
          "indexed": true,
          "internalType": "address",
          "name": "oldVerifier",
          "type": "address"
        },
        {
          "indexed": true,
          "internalType": "address",
          "name": "newVerifier",
          "type": "address"
        }
      ],
      "name": "VerifierUpdated",
      "type": "event"
    },
    {
      "inputs": [],
      "name": "DEFAULT_ADMIN_ROLE",
      "outputs": [
        {
          "internalType": "bytes32",
          "name": "",
          "type": "bytes32"
        }
      ],
      "stateMutability": "view",
      "type": "function"
    },
    {
      "inputs": [],
      "name": "HOSPITAL_ROLE",
      "outputs": [
        {
          "internalType": "bytes32",
          "name": "",
          "type": "bytes32"
        }
      ],
      "stateMutability": "view",
      "type": "function"
    },
    {
      "inputs": [],
      "name": "INSURER_ROLE",
      "outputs": [
        {
          "internalType": "bytes32",
          "name": "",
          "type": "bytes32"
        }
      ],
      "stateMutability": "view",
      "type": "function"
    },
    {
      "inputs": [],
      "name": "PAUSER_ROLE",
      "outputs": [
        {
          "internalType": "bytes32",
          "name": "",
          "type": "bytes32"
        }
      ],
      "stateMutability": "view",
      "type": "function"
    },
    {
      "inputs": [
        {
          "internalType": "uint256",
          "name": "claimId",
          "type": "uint256"
        }
      ],
      "name": "approveClaim",
      "outputs": [],
      "stateMutability": "nonpayable",
      "type": "function"
    },
    {
      "inputs": [
        {
          "internalType": "uint256",
          "name": "productId",
          "type": "uint256"
        }
      ],
      "name": "buyPolicy",
      "outputs": [
        {
          "internalType": "uint256",
          "name": "policyId",
          "type": "uint256"
        }
      ],
      "stateMutability": "nonpayable",
      "type": "function"
    },
    {
      "inputs": [
        {
          "internalType": "uint256",
          "name": "",
          "type": "uint256"
        }
      ],
      "name": "claims",
      "outputs": [
        {
          "internalType": "uint256",
          "name": "id",
          "type": "uint256"
        },
        {
          "internalType": "uint256",
          "name": "policyId",
          "type": "uint256"
        },
        {
          "internalType": "address",
          "name": "claimant",
          "type": "address"
        },
        {
          "internalType": "uint256",
          "name": "amount",
          "type": "uint256"
        },
        {
          "internalType": "bytes32",
          "name": "dataHash",
          "type": "bytes32"
        },
        {
          "internalType": "bytes32",
          "name": "nullifier",
          "type": "bytes32"
        },
        {
          "internalType": "bytes32",
          "name": "publicSignalsHash",
          "type": "bytes32"
        },
        {
          "internalType": "enum ZKMedicalInsurance.ClaimStatus",
          "name": "status",
          "type": "uint8"
        },
        {
          "internalType": "uint64",
          "name": "submittedAt",
          "type": "uint64"
        },
        {
          "internalType": "uint64",
          "name": "decidedAt",
          "type": "uint64"
        },
        {
          "internalType": "uint64",
          "name": "paidAt",
          "type": "uint64"
        },
        {
          "internalType": "bytes32",
          "name": "decisionMemoHash",
          "type": "bytes32"
        }
      ],
      "stateMutability": "view",
      "type": "function"
    },
    {
      "inputs": [],
      "name": "claimsCount",
      "outputs": [
        {
          "internalType": "uint256",
          "name": "",
          "type": "uint256"
        }
      ],
      "stateMutability": "view",
      "type": "function"
    },
    {
      "inputs": [
        {
          "internalType": "address",
          "name": "token",
          "type": "address"
        },
        {
          "internalType": "uint256",
          "name": "premiumAmount",
          "type": "uint256"
        },
        {
          "internalType": "uint256",
          "name": "maxCoverage",
          "type": "uint256"
        },
        {
          "internalType": "uint32",
          "name": "coveragePeriodDays",
          "type": "uint32"
        },
        {
          "internalType": "bytes32",
          "name": "coveredRoot",
          "type": "bytes32"
        },
        {
          "internalType": "string",
          "name": "uri",
          "type": "string"
        }
      ],
      "name": "createProduct",
      "outputs": [
        {
          "internalType": "uint256",
          "name": "productId",
          "type": "uint256"
        }
      ],
      "stateMutability": "nonpayable",
      "type": "function"
    },
    {
      "inputs": [
        {
          "internalType": "uint256",
          "name": "productId",
          "type": "uint256"
        },
        {
          "internalType": "uint256",
          "name": "amount",
          "type": "uint256"
        }
      ],
      "name": "fundPool",
      "outputs": [],
      "stateMutability": "nonpayable",
      "type": "function"
    },
    {
      "inputs": [
        {
          "internalType": "uint256",
          "name": "cursor",
          "type": "uint256"
        },
        {
          "internalType": "uint256",
          "name": "size",
          "type": "uint256"
        }
      ],
      "name": "getClaimsBriefPage",
      "outputs": [
        {
          "components": [
            {
              "internalType": "uint256",
              "name": "id",
              "type": "uint256"
            },
            {
              "internalType": "uint256",
              "name": "policyId",
              "type": "uint256"
            },
            {
              "internalType": "address",
              "name": "claimant",
              "type": "address"
            },
            {
              "internalType": "uint256",
              "name": "amount",
              "type": "uint256"
            },
            {
              "internalType": "bytes32",
              "name": "dataHash",
              "type": "bytes32"
            },
            {
              "internalType": "bytes32",
              "name": "nullifier",
              "type": "bytes32"
            },
            {
              "internalType": "enum ZKMedicalInsurance.ClaimStatus",
              "name": "status",
              "type": "uint8"
            }
          ],
          "internalType": "struct ZKMedicalInsurance.ClaimBrief[]",
          "name": "items",
          "type": "tuple[]"
        },
        {
          "internalType": "uint256",
          "name": "nextCursor",
          "type": "uint256"
        }
      ],
      "stateMutability": "view",
      "type": "function"
    },
    {
      "inputs": [
        {
          "internalType": "uint256",
          "name": "cursor",
          "type": "uint256"
        },
        {
          "internalType": "uint256",
          "name": "size",
          "type": "uint256"
        }
      ],
      "name": "getPoliciesBriefPage",
      "outputs": [
        {
          "components": [
            {
              "internalType": "uint256",
              "name": "id",
              "type": "uint256"
            },
            {
              "internalType": "uint256",
              "name": "productId",
              "type": "uint256"
            },
            {
              "internalType": "address",
              "name": "holder",
              "type": "address"
            },
            {
              "internalType": "uint64",
              "name": "startAt",
              "type": "uint64"
            },
            {
              "internalType": "uint64",
              "name": "endAt",
              "type": "uint64"
            },
            {
              "internalType": "enum ZKMedicalInsurance.PolicyStatus",
              "name": "status",
              "type": "uint8"
            }
          ],
          "internalType": "struct ZKMedicalInsurance.PolicyBrief[]",
          "name": "items",
          "type": "tuple[]"
        },
        {
          "internalType": "uint256",
          "name": "nextCursor",
          "type": "uint256"
        }
      ],
      "stateMutability": "view",
      "type": "function"
    },
    {
      "inputs": [
        {
          "internalType": "uint256",
          "name": "cursor",
          "type": "uint256"
        },
        {
          "internalType": "uint256",
          "name": "size",
          "type": "uint256"
        }
      ],
      "name": "getProductsBriefPage",
      "outputs": [
        {
          "components": [
            {
              "internalType": "uint256",
              "name": "id",
              "type": "uint256"
            },
            {
              "internalType": "address",
              "name": "insurer",
              "type": "address"
            },
            {
              "internalType": "address",
              "name": "token",
              "type": "address"
            },
            {
              "internalType": "uint256",
              "name": "premiumAmount",
              "type": "uint256"
            },
            {
              "internalType": "uint256",
              "name": "maxCoverage",
              "type": "uint256"
            },
            {
              "internalType": "uint32",
              "name": "coveragePeriodDays",
              "type": "uint32"
            },
            {
              "internalType": "bytes32",
              "name": "coveredRoot",
              "type": "bytes32"
            },
            {
              "internalType": "bool",
              "name": "active",
              "type": "bool"
            }
          ],
          "internalType": "struct ZKMedicalInsurance.ProductBrief[]",
          "name": "items",
          "type": "tuple[]"
        },
        {
          "internalType": "uint256",
          "name": "nextCursor",
          "type": "uint256"
        }
      ],
      "stateMutability": "view",
      "type": "function"
    },
    {
      "inputs": [
        {
          "internalType": "bytes32",
          "name": "role",
          "type": "bytes32"
        }
      ],
      "name": "getRoleAdmin",
      "outputs": [
        {
          "internalType": "bytes32",
          "name": "",
          "type": "bytes32"
        }
      ],
      "stateMutability": "view",
      "type": "function"
    },
    {
      "inputs": [
        {
          "internalType": "address",
          "name": "user",
          "type": "address"
        },
        {
          "internalType": "uint256",
          "name": "cursor",
          "type": "uint256"
        },
        {
          "internalType": "uint256",
          "name": "size",
          "type": "uint256"
        }
      ],
      "name": "getUserClaimIdsPage",
      "outputs": [
        {
          "internalType": "uint256[]",
          "name": "ids",
          "type": "uint256[]"
        },
        {
          "internalType": "uint256",
          "name": "nextCursor",
          "type": "uint256"
        }
      ],
      "stateMutability": "view",
      "type": "function"
    },
    {
      "inputs": [
        {
          "internalType": "address",
          "name": "user",
          "type": "address"
        },
        {
          "internalType": "uint256",
          "name": "cursor",
          "type": "uint256"
        },
        {
          "internalType": "uint256",
          "name": "size",
          "type": "uint256"
        }
      ],
      "name": "getUserPolicyIdsPage",
      "outputs": [
        {
          "internalType": "uint256[]",
          "name": "ids",
          "type": "uint256[]"
        },
        {
          "internalType": "uint256",
          "name": "nextCursor",
          "type": "uint256"
        }
      ],
      "stateMutability": "view",
      "type": "function"
    },
    {
      "inputs": [
        {
          "internalType": "bytes32",
          "name": "role",
          "type": "bytes32"
        },
        {
          "internalType": "address",
          "name": "account",
          "type": "address"
        }
      ],
      "name": "grantRole",
      "outputs": [],
      "stateMutability": "nonpayable",
      "type": "function"
    },
    {
      "inputs": [
        {
          "internalType": "bytes32",
          "name": "role",
          "type": "bytes32"
        },
        {
          "internalType": "address",
          "name": "account",
          "type": "address"
        }
      ],
      "name": "hasRole",
      "outputs": [
        {
          "internalType": "bool",
          "name": "",
          "type": "bool"
        }
      ],
      "stateMutability": "view",
      "type": "function"
    },
    {
      "inputs": [],
      "name": "pause",
      "outputs": [],
      "stateMutability": "nonpayable",
      "type": "function"
    },
    {
      "inputs": [],
      "name": "paused",
      "outputs": [
        {
          "internalType": "bool",
          "name": "",
          "type": "bool"
        }
      ],
      "stateMutability": "view",
      "type": "function"
    },
    {
      "inputs": [
        {
          "internalType": "uint256",
          "name": "claimId",
          "type": "uint256"
        }
      ],
      "name": "payoutClaim",
      "outputs": [],
      "stateMutability": "nonpayable",
      "type": "function"
    },
    {
      "inputs": [
        {
          "internalType": "uint256",
          "name": "",
          "type": "uint256"
        }
      ],
      "name": "policies",
      "outputs": [
        {
          "internalType": "uint256",
          "name": "id",
          "type": "uint256"
        },
        {
          "internalType": "uint256",
          "name": "productId",
          "type": "uint256"
        },
        {
          "internalType": "address",
          "name": "holder",
          "type": "address"
        },
        {
          "internalType": "uint64",
          "name": "startAt",
          "type": "uint64"
        },
        {
          "internalType": "uint64",
          "name": "endAt",
          "type": "uint64"
        },
        {
          "internalType": "enum ZKMedicalInsurance.PolicyStatus",
          "name": "status",
          "type": "uint8"
        },
        {
          "internalType": "uint64",
          "name": "createdAt",
          "type": "uint64"
        }
      ],
      "stateMutability": "view",
      "type": "function"
    },
    {
      "inputs": [],
      "name": "policiesCount",
      "outputs": [
        {
          "internalType": "uint256",
          "name": "",
          "type": "uint256"
        }
      ],
      "stateMutability": "view",
      "type": "function"
    },
    {
      "inputs": [
        {
          "internalType": "uint256",
          "name": "",
          "type": "uint256"
        }
      ],
      "name": "productPool",
      "outputs": [
        {
          "internalType": "uint256",
          "name": "",
          "type": "uint256"
        }
      ],
      "stateMutability": "view",
      "type": "function"
    },
    {
      "inputs": [
        {
          "internalType": "uint256",
          "name": "",
          "type": "uint256"
        }
      ],
      "name": "products",
      "outputs": [
        {
          "internalType": "uint256",
          "name": "id",
          "type": "uint256"
        },
        {
          "internalType": "address",
          "name": "insurer",
          "type": "address"
        },
        {
          "internalType": "address",
          "name": "token",
          "type": "address"
        },
        {
          "internalType": "uint256",
          "name": "premiumAmount",
          "type": "uint256"
        },
        {
          "internalType": "uint256",
          "name": "maxCoverage",
          "type": "uint256"
        },
        {
          "internalType": "uint32",
          "name": "coveragePeriodDays",
          "type": "uint32"
        },
        {
          "internalType": "bytes32",
          "name": "coveredRoot",
          "type": "bytes32"
        },
        {
          "internalType": "bool",
          "name": "active",
          "type": "bool"
        },
        {
          "internalType": "uint64",
          "name": "createdAt",
          "type": "uint64"
        },
        {
          "internalType": "string",
          "name": "uri",
          "type": "string"
        }
      ],
      "stateMutability": "view",
      "type": "function"
    },
    {
      "inputs": [],
      "name": "productsCount",
      "outputs": [
        {
          "internalType": "uint256",
          "name": "",
          "type": "uint256"
        }
      ],
      "stateMutability": "view",
      "type": "function"
    },
    {
      "inputs": [
        {
          "internalType": "uint256",
          "name": "claimId",
          "type": "uint256"
        },
        {
          "internalType": "bytes32",
          "name": "decisionMemoHash",
          "type": "bytes32"
        }
      ],
      "name": "rejectClaim",
      "outputs": [],
      "stateMutability": "nonpayable",
      "type": "function"
    },
    {
      "inputs": [
        {
          "internalType": "bytes32",
          "name": "role",
          "type": "bytes32"
        },
        {
          "internalType": "address",
          "name": "callerConfirmation",
          "type": "address"
        }
      ],
      "name": "renounceRole",
      "outputs": [],
      "stateMutability": "nonpayable",
      "type": "function"
    },
    {
      "inputs": [
        {
          "internalType": "bytes32",
          "name": "role",
          "type": "bytes32"
        },
        {
          "internalType": "address",
          "name": "account",
          "type": "address"
        }
      ],
      "name": "revokeRole",
      "outputs": [],
      "stateMutability": "nonpayable",
      "type": "function"
    },
    {
      "inputs": [
        {
          "internalType": "uint256",
          "name": "productId",
          "type": "uint256"
        },
        {
          "internalType": "bool",
          "name": "active",
          "type": "bool"
        }
      ],
      "name": "setProductActive",
      "outputs": [],
      "stateMutability": "nonpayable",
      "type": "function"
    },
    {
      "inputs": [
        {
          "internalType": "address",
          "name": "verifier_",
          "type": "address"
        }
      ],
      "name": "setVerifier",
      "outputs": [],
      "stateMutability": "nonpayable",
      "type": "function"
    },
    {
      "inputs": [
        {
          "internalType": "uint256",
          "name": "policyId",
          "type": "uint256"
        },
        {
          "internalType": "uint256",
          "name": "amount",
          "type": "uint256"
        },
        {
          "internalType": "bytes32",
          "name": "dataHash",
          "type": "bytes32"
        },
        {
          "internalType": "bytes32",
          "name": "nullifier",
          "type": "bytes32"
        },
        {
          "internalType": "uint256[2]",
          "name": "a",
          "type": "uint256[2]"
        },
        {
          "internalType": "uint256[2][2]",
          "name": "b",
          "type": "uint256[2][2]"
        },
        {
          "internalType": "uint256[2]",
          "name": "c",
          "type": "uint256[2]"
        },
        {
          "internalType": "uint256[5]",
          "name": "input",
          "type": "uint256[5]"
        }
      ],
      "name": "submitClaimWithProof",
      "outputs": [
        {
          "internalType": "uint256",
          "name": "claimId",
          "type": "uint256"
        }
      ],
      "stateMutability": "nonpayable",
      "type": "function"
    },
    {
      "inputs": [
        {
          "internalType": "bytes4",
          "name": "interfaceId",
          "type": "bytes4"
        }
      ],
      "name": "supportsInterface",
      "outputs": [
        {
          "internalType": "bool",
          "name": "",
          "type": "bool"
        }
      ],
      "stateMutability": "view",
      "type": "function"
    },
    {
      "inputs": [],
      "name": "unpause",
      "outputs": [],
      "stateMutability": "nonpayable",
      "type": "function"
    },
    {
      "inputs": [
        {
          "internalType": "uint256",
          "name": "productId",
          "type": "uint256"
        },
        {
          "internalType": "bytes32",
          "name": "newRoot",
          "type": "bytes32"
        }
      ],
      "name": "updateCoveredRoot",
      "outputs": [],
      "stateMutability": "nonpayable",
      "type": "function"
    },
    {
      "inputs": [
        {
          "internalType": "bytes32",
          "name": "",
          "type": "bytes32"
        }
      ],
      "name": "usedNullifier",
      "outputs": [
        {
          "internalType": "bool",
          "name": "",
          "type": "bool"
        }
      ],
      "stateMutability": "view",
      "type": "function"
    },
    {
      "inputs": [
        {
          "internalType": "address",
          "name": "user",
          "type": "address"
        }
      ],
      "name": "userClaimsCount",
      "outputs": [
        {
          "internalType": "uint256",
          "name": "",
          "type": "uint256"
        }
      ],
      "stateMutability": "view",
      "type": "function"
    },
    {
      "inputs": [
        {
          "internalType": "address",
          "name": "user",
          "type": "address"
        }
      ],
      "name": "userPoliciesCount",
      "outputs": [
        {
          "internalType": "uint256",
          "name": "",
          "type": "uint256"
        }
      ],
      "stateMutability": "view",
      "type": "function"
    },
    {
      "inputs": [],
      "name": "verifier",
      "outputs": [
        {
          "internalType": "contract IGroth16Verifier",
          "name": "",
          "type": "address"
        }
      ],
      "stateMutability": "view",
      "type": "function"
    }
  ],
  "bytecode": "0x608060405234801561000f575f5ffd5b50604051615451380380615451833981810160405281019061003191906103a1565b60016002819055505f73ffffffffffffffffffffffffffffffffffffffff168173ffffffffffffffffffffffffffffffffffffffff160361009e576040517fd92e233d00000000000000000000000000000000000000000000000000000000815260040160405180910390fd5b8060035f6101000a81548173ffffffffffffffffffffffffffffffffffffffff021916908373ffffffffffffffffffffffffffffffffffffffff1602179055508073ffffffffffffffffffffffffffffffffffffffff165f73ffffffffffffffffffffffffffffffffffffffff167f0243549a92b2412f7a3caf7a2e56d65b8821b91345363faa5f57195384065fcc60405160405180910390a361014a5f5f1b336101e460201b60201c565b5061017b7feb0a07781e3ee843c0d85f7381c2e1a1e1a6ea86bcdcd944ef649d46e7dcd972336101e460201b60201c565b506101ac7fc8f5b4140cca307cd927e59cbeea8291bffeee228fc677f0fa059aef7b4dd8d5336101e460201b60201c565b506101dd7f65d7a28e3265b37a6474929f336521b332c1681b933f6cb9f3376673440d862a336101e460201b60201c565b50506103cc565b5f6101f583836102d960201b60201c565b6102cf5760015f5f8581526020019081526020015f205f015f8473ffffffffffffffffffffffffffffffffffffffff1673ffffffffffffffffffffffffffffffffffffffff1681526020019081526020015f205f6101000a81548160ff02191690831515021790555061026c61033c60201b60201c565b73ffffffffffffffffffffffffffffffffffffffff168273ffffffffffffffffffffffffffffffffffffffff16847f2f8788117e7eff1d82e926ec794901d17c78024a50270940304540a733656f0d60405160405180910390a4600190506102d3565b5f90505b92915050565b5f5f5f8481526020019081526020015f205f015f8373ffffffffffffffffffffffffffffffffffffffff1673ffffffffffffffffffffffffffffffffffffffff1681526020019081526020015f205f9054906101000a900460ff16905092915050565b5f33905090565b5f5ffd5b5f73ffffffffffffffffffffffffffffffffffffffff82169050919050565b5f61037082610347565b9050919050565b61038081610366565b811461038a575f5ffd5b50565b5f8151905061039b81610377565b92915050565b5f602082840312156103b6576103b5610343565b5b5f6103c38482850161038d565b91505092915050565b615078806103d95f395ff3fe608060405234801561000f575f5ffd5b506004361061023b575f3560e01c80637acc0b2011610139578063d3e89483116100b6578063e6cf0b901161007a578063e6cf0b901461072d578063eaf800fa1461075e578063f0a3c7631461078e578063f6909c74146107aa578063f6ba6678146107da5761023b565b8063d3e894831461066f578063d547741f146106a5578063e0df7bb6146106c1578063e63ab1e9146106df578063e6958982146106fd5761023b565b80639280eab8116100fd5780639280eab8146105ab578063a217fddf146105c7578063a888c2cd146105e5578063a95355d414610620578063bbd245ea146106515761023b565b80637acc0b20146104eb57806381062080146105245780638456cb591461054057806385df20131461054a57806391d148541461057b5761023b565b80632f0e33a5116101c75780635437988d1161018b5780635437988d14610435578063561a5d5a146104515780635acd6fac146104815780635c975abb1461049d57806379c88894146104bb5761023b565b80632f0e33a5146103a65780632f2ff15d146103d757806336568abe146103f35780633f4ba83a1461040f57806346e30135146104195761023b565b80630d13fa5a1161020e5780630d13fa5a146102dc578063248a9ca3146102f857806327395aad146103285780632a053b3e146103585780632b7ac3f3146103885761023b565b806301ffc9a71461023f578063056c99891461026f5780630a131d7e1461028d5780630b100a5a146102be575b5f5ffd5b61025960048036038101906102549190613abf565b6107f8565b6040516102669190613b04565b60405180910390f35b610277610871565b6040516102849190613b35565b60405180910390f35b6102a760048036038101906102a29190613b81565b610895565b6040516102b5929190613dd2565b60405180910390f35b6102c6610a17565b6040516102d39190613e00565b60405180910390f35b6102f660048036038101906102f19190613e19565b610a23565b005b610312600480360381019061030d9190613e6e565b610cd0565b60405161031f9190613b35565b60405180910390f35b610342600480360381019061033d9190613f5d565b610cec565b60405161034f9190613e00565b60405180910390f35b610372600480360381019061036d9190614007565b611041565b60405161037f9190613e00565b60405180910390f35b61039061108e565b60405161039d919061408d565b60405180910390f35b6103c060048036038101906103bb91906140a6565b6110b3565b6040516103ce92919061419e565b60405180910390f35b6103f160048036038101906103ec91906141cc565b611109565b005b61040d600480360381019061040891906141cc565b61112b565b005b6104176111a6565b005b610433600480360381019061042e9190613e19565b6111db565b005b61044f600480360381019061044a9190614007565b61133b565b005b61046b60048036038101906104669190614007565b611470565b6040516104789190613e00565b60405180910390f35b61049b60048036038101906104969190613b81565b6114bd565b005b6104a56115ae565b6040516104b29190613b04565b60405180910390f35b6104d560048036038101906104d09190613e19565b6115c3565b6040516104e29190613e00565b60405180910390f35b61050560048036038101906105009190613e19565b611962565b60405161051b9a999897969594939291906142ba565b60405180910390f35b61053e60048036038101906105399190614385565b611aa5565b005b610548611b3a565b005b610564600480360381019061055f9190613b81565b611b6f565b60405161057292919061452a565b60405180910390f35b610595600480360381019061059091906141cc565b611d36565b6040516105a29190613b04565b60405180910390f35b6105c560048036038101906105c09190614558565b611d99565b005b6105cf611e1c565b6040516105dc9190613b35565b60405180910390f35b6105ff60048036038101906105fa9190613e19565b611e22565b6040516106179c9b9a999897969594939291906145a5565b60405180910390f35b61063a60048036038101906106359190613b81565b611ee5565b6040516106489291906147d3565b60405180910390f35b610659612099565b6040516106669190613e00565b60405180910390f35b61068960048036038101906106849190613e19565b6120a5565b60405161069c9796959493929190614810565b60405180910390f35b6106bf60048036038101906106ba91906141cc565b61214a565b005b6106c961216c565b6040516106d69190613e00565b60405180910390f35b6106e7612178565b6040516106f49190613b35565b60405180910390f35b610717600480360381019061071291906148e0565b61219c565b6040516107249190613e00565b60405180910390f35b610747600480360381019061074291906140a6565b612aa6565b60405161075592919061419e565b60405180910390f35b61077860048036038101906107739190613e19565b612afc565b6040516107859190613e00565b60405180910390f35b6107a860048036038101906107a39190614558565b612b11565b005b6107c460048036038101906107bf9190613e6e565b612c86565b6040516107d19190613b04565b60405180910390f35b6107e2612ca3565b6040516107ef9190613b35565b60405180910390f35b5f7f7965db0b000000000000000000000000000000000000000000000000000000007bffffffffffffffffffffffffffffffffffffffffffffffffffffffff1916827bffffffffffffffffffffffffffffffffffffffffffffffffffffffff1916148061086a575061086982612cc7565b5b9050919050565b7feb0a07781e3ee843c0d85f7381c2e1a1e1a6ea86bcdcd944ef649d46e7dcd97281565b60605f5f5f6108a6600c8787612d30565b91509150815167ffffffffffffffff8111156108c5576108c4614993565b5b6040519080825280602002602001820160405280156108fe57816020015b6108eb613927565b8152602001906001900390816108e35790505b5093505f5f90505b8251811015610a0a575f60095f858481518110610926576109256149c0565b5b602002602001015181526020019081526020015f2090506040518060e00160405280825f0154815260200182600101548152602001826002015f9054906101000a900473ffffffffffffffffffffffffffffffffffffffff1673ffffffffffffffffffffffffffffffffffffffff168152602001826003015481526020018260040154815260200182600501548152602001826007015f9054906101000a900460ff1660048111156109db576109da613c45565b5b8152508683815181106109f1576109f06149c0565b5b6020026020010181905250508080600101915050610906565b5080925050509250929050565b5f600b80549050905090565b610a2b612e76565b610a33612eb7565b7feb0a07781e3ee843c0d85f7381c2e1a1e1a6ea86bcdcd944ef649d46e7dcd972610a5d81612efb565b5f610a6783612f0f565b905060026004811115610a7d57610a7c613c45565b5b816007015f9054906101000a900460ff166004811115610aa057610a9f613c45565b5b14610ad7576040517ff8d3970b00000000000000000000000000000000000000000000000000000000815260040160405180910390fd5b5f610ae58260010154612fb0565b90505f816001015490505f610af982613051565b9050610b04816130f2565b836003015460105f8481526020019081526020015f20541015610b53576040517fa5e3626000000000000000000000000000000000000000000000000000000000815260040160405180910390fd5b836003015460105f8481526020019081526020015f205f828254610b779190614a1a565b92505081905550610bf3846002015f9054906101000a900473ffffffffffffffffffffffffffffffffffffffff168560030154836002015f9054906101000a900473ffffffffffffffffffffffffffffffffffffffff1673ffffffffffffffffffffffffffffffffffffffff166132169092919063ffffffff16565b6004846007015f6101000a81548160ff02191690836004811115610c1a57610c19613c45565b5b0217905550428460070160116101000a81548167ffffffffffffffff021916908367ffffffffffffffff160217905550836002015f9054906101000a900473ffffffffffffffffffffffffffffffffffffffff1673ffffffffffffffffffffffffffffffffffffffff16867faf3c8fdd75d667f71d36d7840b8ef9086c516c9b047ad6a83a5a66151342123a8660030154604051610cb89190613e00565b60405180910390a35050505050610ccd613295565b50565b5f5f5f8381526020019081526020015f20600101549050919050565b5f610cf5612e76565b7feb0a07781e3ee843c0d85f7381c2e1a1e1a6ea86bcdcd944ef649d46e7dcd972610d1f81612efb565b5f73ffffffffffffffffffffffffffffffffffffffff168973ffffffffffffffffffffffffffffffffffffffff1603610d84576040517fd92e233d00000000000000000000000000000000000000000000000000000000815260040160405180910390fd5b60045f8154610d9290614a4d565b91905081905591506040518061014001604052808381526020013373ffffffffffffffffffffffffffffffffffffffff1681526020018a73ffffffffffffffffffffffffffffffffffffffff1681526020018981526020018881526020018763ffffffff1681526020018681526020016001151581526020014267ffffffffffffffff16815260200185858080601f0160208091040260200160405190810160405280939291908181526020018383808284375f81840152601f19601f8201169050808301925050505050505081525060075f8481526020019081526020015f205f820151815f01556020820151816001015f6101000a81548173ffffffffffffffffffffffffffffffffffffffff021916908373ffffffffffffffffffffffffffffffffffffffff1602179055506040820151816002015f6101000a81548173ffffffffffffffffffffffffffffffffffffffff021916908373ffffffffffffffffffffffffffffffffffffffff160217905550606082015181600301556080820151816004015560a0820151816005015f6101000a81548163ffffffff021916908363ffffffff16021790555060c0820151816006015560e0820151816007015f6101000a81548160ff0219169083151502179055506101008201518160070160016101000a81548167ffffffffffffffff021916908367ffffffffffffffff160217905550610120820151816008019081610fb09190614c88565b50905050600a82908060018154018082558091505060019003905f5260205f20015f90919091909150558873ffffffffffffffffffffffffffffffffffffffff163373ffffffffffffffffffffffffffffffffffffffff16837f7ab02de634eab482e2fbc93c329fcb207ffde846ca6d47490afba62fac40266960405160405180910390a450979650505050505050565b5f611087600d5f8473ffffffffffffffffffffffffffffffffffffffff1673ffffffffffffffffffffffffffffffffffffffff1681526020019081526020015f2061329f565b9050919050565b60035f9054906101000a900473ffffffffffffffffffffffffffffffffffffffff1681565b60605f6110fd600d5f8773ffffffffffffffffffffffffffffffffffffffff1673ffffffffffffffffffffffffffffffffffffffff1681526020019081526020015f2085856132b2565b91509150935093915050565b61111282610cd0565b61111b81612efb565b61112583836133f3565b50505050565b6111336134dc565b73ffffffffffffffffffffffffffffffffffffffff168173ffffffffffffffffffffffffffffffffffffffff1614611197576040517f6697b23200000000000000000000000000000000000000000000000000000000815260040160405180910390fd5b6111a182826134e3565b505050565b7f65d7a28e3265b37a6474929f336521b332c1681b933f6cb9f3376673440d862a6111d081612efb565b6111d86135cc565b50565b6111e3612e76565b7feb0a07781e3ee843c0d85f7381c2e1a1e1a6ea86bcdcd944ef649d46e7dcd97261120d81612efb565b5f61121783612f0f565b90506001600481111561122d5761122c613c45565b5b816007015f9054906101000a900460ff1660048111156112505761124f613c45565b5b14611287576040517ff8d3970b00000000000000000000000000000000000000000000000000000000815260040160405180910390fd5b5f6112958260010154612fb0565b6001015490505f6112a582613051565b90506112b0816130f2565b6002836007015f6101000a81548160ff021916908360048111156112d7576112d6613c45565b5b0217905550428360070160096101000a81548167ffffffffffffffff021916908367ffffffffffffffff160217905550847fd2d0ed0cccc8615643ade1eff3929a29ed8df75ebca85a3996e311c9b69e228960405160405180910390a25050505050565b5f5f1b61134781612efb565b5f73ffffffffffffffffffffffffffffffffffffffff168273ffffffffffffffffffffffffffffffffffffffff16036113ac576040517fd92e233d00000000000000000000000000000000000000000000000000000000815260040160405180910390fd5b5f60035f9054906101000a900473ffffffffffffffffffffffffffffffffffffffff1690508260035f6101000a81548173ffffffffffffffffffffffffffffffffffffffff021916908373ffffffffffffffffffffffffffffffffffffffff1602179055508273ffffffffffffffffffffffffffffffffffffffff168173ffffffffffffffffffffffffffffffffffffffff167f0243549a92b2412f7a3caf7a2e56d65b8821b91345363faa5f57195384065fcc60405160405180910390a3505050565b5f6114b6600e5f8473ffffffffffffffffffffffffffffffffffffffff1673ffffffffffffffffffffffffffffffffffffffff1681526020019081526020015f2061329f565b9050919050565b6114c5612e76565b7feb0a07781e3ee843c0d85f7381c2e1a1e1a6ea86bcdcd944ef649d46e7dcd9726114ef81612efb565b5f6114f984613051565b9050611504816130f2565b611554333085846002015f9054906101000a900473ffffffffffffffffffffffffffffffffffffffff1673ffffffffffffffffffffffffffffffffffffffff1661362d909392919063ffffffff16565b8260105f8681526020019081526020015f205f8282546115749190614d57565b92505081905550837feca6714fcf568fb34cf9db4a414cb0cc48e93c5d4e1ba0582a46ea3704cf24d560405160405180910390a250505050565b5f60015f9054906101000a900460ff16905090565b5f6115cc612e76565b6115d4612eb7565b5f6115de83613051565b9050806007015f9054906101000a900460ff16611627576040517f2cdd618700000000000000000000000000000000000000000000000000000000815260040160405180910390fd5b61167b33308360030154846002015f9054906101000a900473ffffffffffffffffffffffffffffffffffffffff1673ffffffffffffffffffffffffffffffffffffffff1661362d909392919063ffffffff16565b806003015460105f8581526020019081526020015f205f82825461169f9190614d57565b9250508190555060055f81546116b490614a4d565b91905081905591505f4290505f62015180836005015f9054906101000a900463ffffffff1663ffffffff166116e99190614d8a565b426116f49190614d57565b90506040518060e001604052808581526020018681526020013373ffffffffffffffffffffffffffffffffffffffff1681526020018367ffffffffffffffff1681526020018267ffffffffffffffff1681526020015f600281111561175c5761175b613c45565b5b81526020014267ffffffffffffffff1681525060085f8681526020019081526020015f205f820151815f0155602082015181600101556040820151816002015f6101000a81548173ffffffffffffffffffffffffffffffffffffffff021916908373ffffffffffffffffffffffffffffffffffffffff16021790555060608201518160020160146101000a81548167ffffffffffffffff021916908367ffffffffffffffff1602179055506080820151816003015f6101000a81548167ffffffffffffffff021916908367ffffffffffffffff16021790555060a08201518160030160086101000a81548160ff021916908360028111156118605761185f613c45565b5b021790555060c08201518160030160096101000a81548167ffffffffffffffff021916908367ffffffffffffffff160217905550905050600b84908060018154018082558091505060019003905f5260205f20015f909190919091505561190c84600d5f3373ffffffffffffffffffffffffffffffffffffffff1673ffffffffffffffffffffffffffffffffffffffff1681526020019081526020015f206136af90919063ffffffff16565b503373ffffffffffffffffffffffffffffffffffffffff1685857fa1e004b771d2bfa9498a1f952d363a2b88201b708e272e7bdd675dfa7941e36560405160405180910390a450505061195d613295565b919050565b6007602052805f5260405f205f91509050805f015490806001015f9054906101000a900473ffffffffffffffffffffffffffffffffffffffff1690806002015f9054906101000a900473ffffffffffffffffffffffffffffffffffffffff1690806003015490806004015490806005015f9054906101000a900463ffffffff1690806006015490806007015f9054906101000a900460ff16908060070160019054906101000a900467ffffffffffffffff1690806008018054611a2490614ac1565b80601f0160208091040260200160405190810160405280929190818152602001828054611a5090614ac1565b8015611a9b5780601f10611a7257610100808354040283529160200191611a9b565b820191905f5260205f20905b815481529060010190602001808311611a7e57829003601f168201915b505050505090508a565b611aad612e76565b7feb0a07781e3ee843c0d85f7381c2e1a1e1a6ea86bcdcd944ef649d46e7dcd972611ad781612efb565b5f611ae184613051565b9050611aec816130f2565b82816007015f6101000a81548160ff021916908315150217905550837feca6714fcf568fb34cf9db4a414cb0cc48e93c5d4e1ba0582a46ea3704cf24d560405160405180910390a250505050565b7f65d7a28e3265b37a6474929f336521b332c1681b933f6cb9f3376673440d862a611b6481612efb565b611b6c6136c6565b50565b60605f5f5f611b80600a8787612d30565b91509150815167ffffffffffffffff811115611b9f57611b9e614993565b5b604051908082528060200260200182016040528015611bd857816020015b611bc5613985565b815260200190600190039081611bbd5790505b5093505f5f90505b8251811015611d29575f60075f858481518110611c0057611bff6149c0565b5b602002602001015181526020019081526020015f209050604051806101000160405280825f01548152602001826001015f9054906101000a900473ffffffffffffffffffffffffffffffffffffffff1673ffffffffffffffffffffffffffffffffffffffff168152602001826002015f9054906101000a900473ffffffffffffffffffffffffffffffffffffffff1673ffffffffffffffffffffffffffffffffffffffff1681526020018260030154815260200182600401548152602001826005015f9054906101000a900463ffffffff1663ffffffff16815260200182600601548152602001826007015f9054906101000a900460ff161515815250868381518110611d1057611d0f6149c0565b5b6020026020010181905250508080600101915050611be0565b5080925050509250929050565b5f5f5f8481526020019081526020015f205f015f8373ffffffffffffffffffffffffffffffffffffffff1673ffffffffffffffffffffffffffffffffffffffff1681526020019081526020015f205f9054906101000a900460ff16905092915050565b611da1612e76565b7feb0a07781e3ee843c0d85f7381c2e1a1e1a6ea86bcdcd944ef649d46e7dcd972611dcb81612efb565b5f611dd584613051565b9050611de0816130f2565b828160060181905550837feca6714fcf568fb34cf9db4a414cb0cc48e93c5d4e1ba0582a46ea3704cf24d560405160405180910390a250505050565b5f5f1b81565b6009602052805f5260405f205f91509050805f015490806001015490806002015f9054906101000a900473ffffffffffffffffffffffffffffffffffffffff1690806003015490806004015490806005015490806006015490806007015f9054906101000a900460ff16908060070160019054906101000a900467ffffffffffffffff16908060070160099054906101000a900467ffffffffffffffff16908060070160119054906101000a900467ffffffffffffffff1690806008015490508c565b60605f5f5f611ef6600b8787612d30565b91509150815167ffffffffffffffff811115611f1557611f14614993565b5b604051908082528060200260200182016040528015611f4e57816020015b611f3b6139f6565b815260200190600190039081611f335790505b5093505f5f90505b825181101561208c575f60085f858481518110611f7657611f756149c0565b5b602002602001015181526020019081526020015f2090506040518060c00160405280825f0154815260200182600101548152602001826002015f9054906101000a900473ffffffffffffffffffffffffffffffffffffffff1673ffffffffffffffffffffffffffffffffffffffff1681526020018260020160149054906101000a900467ffffffffffffffff1667ffffffffffffffff168152602001826003015f9054906101000a900467ffffffffffffffff1667ffffffffffffffff1681526020018260030160089054906101000a900460ff16600281111561205d5761205c613c45565b5b815250868381518110612073576120726149c0565b5b6020026020010181905250508080600101915050611f56565b5080925050509250929050565b5f600c80549050905090565b6008602052805f5260405f205f91509050805f015490806001015490806002015f9054906101000a900473ffffffffffffffffffffffffffffffffffffffff16908060020160149054906101000a900467ffffffffffffffff1690806003015f9054906101000a900467ffffffffffffffff16908060030160089054906101000a900460ff16908060030160099054906101000a900467ffffffffffffffff16905087565b61215382610cd0565b61215c81612efb565b61216683836134e3565b50505050565b5f600a80549050905090565b7f65d7a28e3265b37a6474929f336521b332c1681b933f6cb9f3376673440d862a81565b5f6121a5612e76565b6121ad612eb7565b5f6121b78a612fb0565b90505f60028111156121cc576121cb613c45565b5b8160030160089054906101000a900460ff1660028111156121f0576121ef613c45565b5b14612227576040517f8966b51f00000000000000000000000000000000000000000000000000000000815260040160405180910390fd5b806003015f9054906101000a900467ffffffffffffffff1667ffffffffffffffff16421115612282576040517f9c5bebca00000000000000000000000000000000000000000000000000000000815260040160405180910390fd5b806002015f9054906101000a900473ffffffffffffffffffffffffffffffffffffffff1673ffffffffffffffffffffffffffffffffffffffff163373ffffffffffffffffffffffffffffffffffffffff161415801561230857506123067fc8f5b4140cca307cd927e59cbeea8291bffeee228fc677f0fa059aef7b4dd8d533611d36565b155b1561233f576040517f82b4290000000000000000000000000000000000000000000000000000000000815260040160405180910390fd5b5f61234d8260010154613051565b9050806007015f9054906101000a900460ff16612396576040517f2cdd618700000000000000000000000000000000000000000000000000000000815260040160405180910390fd5b80600401548a11156123d4576040517faa9cc79b00000000000000000000000000000000000000000000000000000000815260040160405180910390fd5b600f5f8981526020019081526020015f205f9054906101000a900460ff1615612429576040517fcad2ae0200000000000000000000000000000000000000000000000000000000815260040160405180910390fd5b5f7f30644e72e131a029b85045b68181585d2833e84879b9709143e1f593f00000018a5f1c6124589190614df8565b90508b855f6005811061246e5761246d6149c0565b5b6020020135146124aa576040517fbf52ac6c00000000000000000000000000000000000000000000000000000000815260040160405180910390fd5b8a856001600581106124bf576124be6149c0565b5b6020020135146124fb576040517fbf52ac6c00000000000000000000000000000000000000000000000000000000815260040160405180910390fd5b80856002600581106125105761250f6149c0565b5b60200201351461254c576040517fbf52ac6c00000000000000000000000000000000000000000000000000000000815260040160405180910390fd5b81600601545f1c85600360058110612567576125666149c0565b5b6020020135146125a3576040517fbf52ac6c00000000000000000000000000000000000000000000000000000000815260040160405180910390fd5b885f1c856004600581106125ba576125b96149c0565b5b6020020135146125f6576040517fbf52ac6c00000000000000000000000000000000000000000000000000000000815260040160405180910390fd5b5f60035f9054906101000a900473ffffffffffffffffffffffffffffffffffffffff1673ffffffffffffffffffffffffffffffffffffffff166334baeab98a8a8a8a6040518563ffffffff1660e01b81526004016126579493929190614f09565b602060405180830381865afa158015612672573d5f5f3e3d5ffd5b505050506040513d601f19601f820116820180604052508101906126969190614f62565b9050806126cf576040517f09bde33900000000000000000000000000000000000000000000000000000000815260040160405180910390fd5b6001600f5f8c81526020019081526020015f205f6101000a81548160ff02191690831515021790555060065f815461270690614a4d565b91905081905594505f866040516020016127209190614f8d565b6040516020818303038152906040528051906020012090506040518061018001604052808781526020018f8152602001866002015f9054906101000a900473ffffffffffffffffffffffffffffffffffffffff1673ffffffffffffffffffffffffffffffffffffffff1681526020018e81526020018d81526020018c8152602001828152602001600160048111156127bb576127ba613c45565b5b81526020014267ffffffffffffffff1681526020015f67ffffffffffffffff1681526020015f67ffffffffffffffff1681526020015f5f1b81525060095f8881526020019081526020015f205f820151815f0155602082015181600101556040820151816002015f6101000a81548173ffffffffffffffffffffffffffffffffffffffff021916908373ffffffffffffffffffffffffffffffffffffffff160217905550606082015181600301556080820151816004015560a0820151816005015560c0820151816006015560e0820151816007015f6101000a81548160ff021916908360048111156128b1576128b0613c45565b5b02179055506101008201518160070160016101000a81548167ffffffffffffffff021916908367ffffffffffffffff1602179055506101208201518160070160096101000a81548167ffffffffffffffff021916908367ffffffffffffffff1602179055506101408201518160070160116101000a81548167ffffffffffffffff021916908367ffffffffffffffff1602179055506101608201518160080155905050600c86908060018154018082558091505060019003905f5260205f20015f90919091909150556129ec86600e5f886002015f9054906101000a900473ffffffffffffffffffffffffffffffffffffffff1673ffffffffffffffffffffffffffffffffffffffff1673ffffffffffffffffffffffffffffffffffffffff1681526020019081526020015f206136af90919063ffffffff16565b50846002015f9054906101000a900473ffffffffffffffffffffffffffffffffffffffff1673ffffffffffffffffffffffffffffffffffffffff168e877f9fe11e531030a058803617055e27f9f4768236e4322e13b9c4c09f4338e23a6860405160405180910390a4857f52f0835c7dec560965de4d93337a5ad7644e44bfda7334a93a15df5af39e802f82604051612a859190613b35565b60405180910390a25050505050612a9a613295565b98975050505050505050565b60605f612af0600e5f8773ffffffffffffffffffffffffffffffffffffffff1673ffffffffffffffffffffffffffffffffffffffff1681526020019081526020015f2085856132b2565b91509150935093915050565b6010602052805f5260405f205f915090505481565b612b19612e76565b7feb0a07781e3ee843c0d85f7381c2e1a1e1a6ea86bcdcd944ef649d46e7dcd972612b4381612efb565b5f612b4d84612f0f565b905060016004811115612b6357612b62613c45565b5b816007015f9054906101000a900460ff166004811115612b8657612b85613c45565b5b14612bbd576040517ff8d3970b00000000000000000000000000000000000000000000000000000000815260040160405180910390fd5b5f612bcb8260010154612fb0565b6001015490505f612bdb82613051565b9050612be6816130f2565b6003836007015f6101000a81548160ff02191690836004811115612c0d57612c0c613c45565b5b0217905550428360070160096101000a81548167ffffffffffffffff021916908367ffffffffffffffff160217905550848360080181905550857f9224b4a88af5217c4d356598e6d221dce8a017591c89a42dbdc378acea064bb786604051612c769190613b35565b60405180910390a2505050505050565b600f602052805f5260405f205f915054906101000a900460ff1681565b7fc8f5b4140cca307cd927e59cbeea8291bffeee228fc677f0fa059aef7b4dd8d581565b5f7f01ffc9a7000000000000000000000000000000000000000000000000000000007bffffffffffffffffffffffffffffffffffffffffffffffffffffffff1916827bffffffffffffffffffffffffffffffffffffffffffffffffffffffff1916149050919050565b60605f5f85805490509050808510612d96575f67ffffffffffffffff811115612d5c57612d5b614993565b5b604051908082528060200260200182016040528015612d8a5781602001602082028036833780820191505090505b50859250925050612e6e565b5f8486612da39190614d57565b905081811115612db1578190505b8581612dbd9190614a1a565b67ffffffffffffffff811115612dd657612dd5614993565b5b604051908082528060200260200182016040528015612e045781602001602082028036833780820191505090505b5093505f8690505b81811015612e6757878181548110612e2757612e266149c0565b5b905f5260205f200154858883612e3d9190614a1a565b81518110612e4e57612e4d6149c0565b5b6020026020010181815250508080600101915050612e0c565b5080925050505b935093915050565b612e7e6115ae565b15612eb5576040517fd93c066500000000000000000000000000000000000000000000000000000000815260040160405180910390fd5b565b6002805403612ef2576040517f3ee5aeb500000000000000000000000000000000000000000000000000000000815260040160405180910390fd5b60028081905550565b612f0c81612f076134dc565b613727565b50565b5f60095f8381526020019081526020015f2090505f73ffffffffffffffffffffffffffffffffffffffff16816002015f9054906101000a900473ffffffffffffffffffffffffffffffffffffffff1673ffffffffffffffffffffffffffffffffffffffff1603612fab576040517f0455eeee00000000000000000000000000000000000000000000000000000000815260040160405180910390fd5b919050565b5f60085f8381526020019081526020015f2090505f73ffffffffffffffffffffffffffffffffffffffff16816002015f9054906101000a900473ffffffffffffffffffffffffffffffffffffffff1673ffffffffffffffffffffffffffffffffffffffff160361304c576040517f720caa4f00000000000000000000000000000000000000000000000000000000815260040160405180910390fd5b919050565b5f60075f8381526020019081526020015f2090505f73ffffffffffffffffffffffffffffffffffffffff16816001015f9054906101000a900473ffffffffffffffffffffffffffffffffffffffff1673ffffffffffffffffffffffffffffffffffffffff16036130ed576040517f79de4af500000000000000000000000000000000000000000000000000000000815260040160405180910390fd5b919050565b5f73ffffffffffffffffffffffffffffffffffffffff16816001015f9054906101000a900473ffffffffffffffffffffffffffffffffffffffff1673ffffffffffffffffffffffffffffffffffffffff160361317a576040517f79de4af500000000000000000000000000000000000000000000000000000000815260040160405180910390fd5b806001015f9054906101000a900473ffffffffffffffffffffffffffffffffffffffff1673ffffffffffffffffffffffffffffffffffffffff163373ffffffffffffffffffffffffffffffffffffffff160315613213576131dd5f5f1b33611d36565b613213576040517f6268319e00000000000000000000000000000000000000000000000000000000815260040160405180910390fd5b50565b613290838473ffffffffffffffffffffffffffffffffffffffff1663a9059cbb8585604051602401613249929190614fa6565b604051602081830303815290604052915060e01b6020820180517bffffffffffffffffffffffffffffffffffffffffffffffffffffffff8381831617835250505050613778565b505050565b6001600281905550565b5f6132ab825f01613813565b9050919050565b60605f5f6132bf8661329f565b905080851061331c575f67ffffffffffffffff8111156132e2576132e1614993565b5b6040519080825280602002602001820160405280156133105781602001602082028036833780820191505090505b508592509250506133eb565b5f84866133299190614d57565b905081811115613337578190505b85816133439190614a1a565b67ffffffffffffffff81111561335c5761335b614993565b5b60405190808252806020026020018201604052801561338a5781602001602082028036833780820191505090505b5093505f8690505b818110156133e4576133ad818961382290919063ffffffff16565b8588836133ba9190614a1a565b815181106133cb576133ca6149c0565b5b6020026020010181815250508080600101915050613392565b5080925050505b935093915050565b5f6133fe8383611d36565b6134d25760015f5f8581526020019081526020015f205f015f8473ffffffffffffffffffffffffffffffffffffffff1673ffffffffffffffffffffffffffffffffffffffff1681526020019081526020015f205f6101000a81548160ff02191690831515021790555061346f6134dc565b73ffffffffffffffffffffffffffffffffffffffff168273ffffffffffffffffffffffffffffffffffffffff16847f2f8788117e7eff1d82e926ec794901d17c78024a50270940304540a733656f0d60405160405180910390a4600190506134d6565b5f90505b92915050565b5f33905090565b5f6134ee8383611d36565b156135c2575f5f5f8581526020019081526020015f205f015f8473ffffffffffffffffffffffffffffffffffffffff1673ffffffffffffffffffffffffffffffffffffffff1681526020019081526020015f205f6101000a81548160ff02191690831515021790555061355f6134dc565b73ffffffffffffffffffffffffffffffffffffffff168273ffffffffffffffffffffffffffffffffffffffff16847ff6391f5c32d9c69d2a47ea670b442974b53935d1edc7fd64eb21e047a839171b60405160405180910390a4600190506135c6565b5f90505b92915050565b6135d4613839565b5f60015f6101000a81548160ff0219169083151502179055507f5db9ee0a495bf2e6ff9c91a7834c1ba4fdd244a5e8aa4e537bd38aeae4b073aa6136166134dc565b6040516136239190614fcd565b60405180910390a1565b6136a9848573ffffffffffffffffffffffffffffffffffffffff166323b872dd86868660405160240161366293929190614fe6565b604051602081830303815290604052915060e01b6020820180517bffffffffffffffffffffffffffffffffffffffffffffffffffffffff8381831617835250505050613778565b50505050565b5f6136be835f01835f1b613879565b905092915050565b6136ce612e76565b6001805f6101000a81548160ff0219169083151502179055507f62e78cea01bee320cd4e420270b5ea74000d11b0c9f74754ebdbfc544b05a2586137106134dc565b60405161371d9190614fcd565b60405180910390a1565b6137318282611d36565b6137745780826040517fe2517d3f00000000000000000000000000000000000000000000000000000000815260040161376b92919061501b565b60405180910390fd5b5050565b5f5f60205f8451602086015f885af180613797576040513d5f823e3d81fd5b3d92505f519150505f82146137b05760018114156137cb565b5f8473ffffffffffffffffffffffffffffffffffffffff163b145b1561380d57836040517f5274afe70000000000000000000000000000000000000000000000000000000081526004016138049190614fcd565b60405180910390fd5b50505050565b5f815f01805490509050919050565b5f61382f835f01836138e0565b5f1c905092915050565b6138416115ae565b613877576040517f8dfc202b00000000000000000000000000000000000000000000000000000000815260040160405180910390fd5b565b5f6138848383613907565b6138d657825f0182908060018154018082558091505060019003905f5260205f20015f9091909190915055825f0180549050836001015f8481526020019081526020015f2081905550600190506138da565b5f90505b92915050565b5f825f0182815481106138f6576138f56149c0565b5b905f5260205f200154905092915050565b5f5f836001015f8481526020019081526020015f20541415905092915050565b6040518060e001604052805f81526020015f81526020015f73ffffffffffffffffffffffffffffffffffffffff1681526020015f81526020015f81526020015f81526020015f600481111561397f5761397e613c45565b5b81525090565b6040518061010001604052805f81526020015f73ffffffffffffffffffffffffffffffffffffffff1681526020015f73ffffffffffffffffffffffffffffffffffffffff1681526020015f81526020015f81526020015f63ffffffff1681526020015f81526020015f151581525090565b6040518060c001604052805f81526020015f81526020015f73ffffffffffffffffffffffffffffffffffffffff1681526020015f67ffffffffffffffff1681526020015f67ffffffffffffffff1681526020015f6002811115613a5c57613a5b613c45565b5b81525090565b5f5ffd5b5f5ffd5b5f7fffffffff0000000000000000000000000000000000000000000000000000000082169050919050565b613a9e81613a6a565b8114613aa8575f5ffd5b50565b5f81359050613ab981613a95565b92915050565b5f60208284031215613ad457613ad3613a62565b5b5f613ae184828501613aab565b91505092915050565b5f8115159050919050565b613afe81613aea565b82525050565b5f602082019050613b175f830184613af5565b92915050565b5f819050919050565b613b2f81613b1d565b82525050565b5f602082019050613b485f830184613b26565b92915050565b5f819050919050565b613b6081613b4e565b8114613b6a575f5ffd5b50565b5f81359050613b7b81613b57565b92915050565b5f5f60408385031215613b9757613b96613a62565b5b5f613ba485828601613b6d565b9250506020613bb585828601613b6d565b9150509250929050565b5f81519050919050565b5f82825260208201905092915050565b5f819050602082019050919050565b613bf181613b4e565b82525050565b5f73ffffffffffffffffffffffffffffffffffffffff82169050919050565b5f613c2082613bf7565b9050919050565b613c3081613c16565b82525050565b613c3f81613b1d565b82525050565b7f4e487b71000000000000000000000000000000000000000000000000000000005f52602160045260245ffd5b60058110613c8357613c82613c45565b5b50565b5f819050613c9382613c72565b919050565b5f613ca282613c86565b9050919050565b613cb281613c98565b82525050565b60e082015f820151613ccc5f850182613be8565b506020820151613cdf6020850182613be8565b506040820151613cf26040850182613c27565b506060820151613d056060850182613be8565b506080820151613d186080850182613c36565b5060a0820151613d2b60a0850182613c36565b5060c0820151613d3e60c0850182613ca9565b50505050565b5f613d4f8383613cb8565b60e08301905092915050565b5f602082019050919050565b5f613d7182613bbf565b613d7b8185613bc9565b9350613d8683613bd9565b805f5b83811015613db6578151613d9d8882613d44565b9750613da883613d5b565b925050600181019050613d89565b5085935050505092915050565b613dcc81613b4e565b82525050565b5f6040820190508181035f830152613dea8185613d67565b9050613df96020830184613dc3565b9392505050565b5f602082019050613e135f830184613dc3565b92915050565b5f60208284031215613e2e57613e2d613a62565b5b5f613e3b84828501613b6d565b91505092915050565b613e4d81613b1d565b8114613e57575f5ffd5b50565b5f81359050613e6881613e44565b92915050565b5f60208284031215613e8357613e82613a62565b5b5f613e9084828501613e5a565b91505092915050565b613ea281613c16565b8114613eac575f5ffd5b50565b5f81359050613ebd81613e99565b92915050565b5f63ffffffff82169050919050565b613edb81613ec3565b8114613ee5575f5ffd5b50565b5f81359050613ef681613ed2565b92915050565b5f5ffd5b5f5ffd5b5f5ffd5b5f5f83601f840112613f1d57613f1c613efc565b5b8235905067ffffffffffffffff811115613f3a57613f39613f00565b5b602083019150836001820283011115613f5657613f55613f04565b5b9250929050565b5f5f5f5f5f5f5f60c0888a031215613f7857613f77613a62565b5b5f613f858a828b01613eaf565b9750506020613f968a828b01613b6d565b9650506040613fa78a828b01613b6d565b9550506060613fb88a828b01613ee8565b9450506080613fc98a828b01613e5a565b93505060a088013567ffffffffffffffff811115613fea57613fe9613a66565b5b613ff68a828b01613f08565b925092505092959891949750929550565b5f6020828403121561401c5761401b613a62565b5b5f61402984828501613eaf565b91505092915050565b5f819050919050565b5f61405561405061404b84613bf7565b614032565b613bf7565b9050919050565b5f6140668261403b565b9050919050565b5f6140778261405c565b9050919050565b6140878161406d565b82525050565b5f6020820190506140a05f83018461407e565b92915050565b5f5f5f606084860312156140bd576140bc613a62565b5b5f6140ca86828701613eaf565b93505060206140db86828701613b6d565b92505060406140ec86828701613b6d565b9150509250925092565b5f81519050919050565b5f82825260208201905092915050565b5f819050602082019050919050565b5f61412a8383613be8565b60208301905092915050565b5f602082019050919050565b5f61414c826140f6565b6141568185614100565b935061416183614110565b805f5b83811015614191578151614178888261411f565b975061418383614136565b925050600181019050614164565b5085935050505092915050565b5f6040820190508181035f8301526141b68185614142565b90506141c56020830184613dc3565b9392505050565b5f5f604083850312156141e2576141e1613a62565b5b5f6141ef85828601613e5a565b925050602061420085828601613eaf565b9150509250929050565b61421381613c16565b82525050565b61422281613ec3565b82525050565b5f67ffffffffffffffff82169050919050565b61424481614228565b82525050565b5f81519050919050565b5f82825260208201905092915050565b8281835e5f83830152505050565b5f601f19601f8301169050919050565b5f61428c8261424a565b6142968185614254565b93506142a6818560208601614264565b6142af81614272565b840191505092915050565b5f610140820190506142ce5f83018d613dc3565b6142db602083018c61420a565b6142e8604083018b61420a565b6142f5606083018a613dc3565b6143026080830189613dc3565b61430f60a0830188614219565b61431c60c0830187613b26565b61432960e0830186613af5565b61433761010083018561423b565b81810361012083015261434a8184614282565b90509b9a5050505050505050505050565b61436481613aea565b811461436e575f5ffd5b50565b5f8135905061437f8161435b565b92915050565b5f5f6040838503121561439b5761439a613a62565b5b5f6143a885828601613b6d565b92505060206143b985828601614371565b9150509250929050565b5f81519050919050565b5f82825260208201905092915050565b5f819050602082019050919050565b6143f581613ec3565b82525050565b61440481613aea565b82525050565b61010082015f82015161441f5f850182613be8565b5060208201516144326020850182613c27565b5060408201516144456040850182613c27565b5060608201516144586060850182613be8565b50608082015161446b6080850182613be8565b5060a082015161447e60a08501826143ec565b5060c082015161449160c0850182613c36565b5060e08201516144a460e08501826143fb565b50505050565b5f6144b5838361440a565b6101008301905092915050565b5f602082019050919050565b5f6144d8826143c3565b6144e281856143cd565b93506144ed836143dd565b805f5b8381101561451d57815161450488826144aa565b975061450f836144c2565b9250506001810190506144f0565b5085935050505092915050565b5f6040820190508181035f83015261454281856144ce565b90506145516020830184613dc3565b9392505050565b5f5f6040838503121561456e5761456d613a62565b5b5f61457b85828601613b6d565b925050602061458c85828601613e5a565b9150509250929050565b61459f81613c98565b82525050565b5f610180820190506145b95f83018f613dc3565b6145c6602083018e613dc3565b6145d3604083018d61420a565b6145e0606083018c613dc3565b6145ed608083018b613b26565b6145fa60a083018a613b26565b61460760c0830189613b26565b61461460e0830188614596565b61462261010083018761423b565b61463061012083018661423b565b61463e61014083018561423b565b61464c610160830184613b26565b9d9c50505050505050505050505050565b5f81519050919050565b5f82825260208201905092915050565b5f819050602082019050919050565b61468f81614228565b82525050565b600381106146a6576146a5613c45565b5b50565b5f8190506146b682614695565b919050565b5f6146c5826146a9565b9050919050565b6146d5816146bb565b82525050565b60c082015f8201516146ef5f850182613be8565b5060208201516147026020850182613be8565b5060408201516147156040850182613c27565b5060608201516147286060850182614686565b50608082015161473b6080850182614686565b5060a082015161474e60a08501826146cc565b50505050565b5f61475f83836146db565b60c08301905092915050565b5f602082019050919050565b5f6147818261465d565b61478b8185614667565b935061479683614677565b805f5b838110156147c65781516147ad8882614754565b97506147b88361476b565b925050600181019050614799565b5085935050505092915050565b5f6040820190508181035f8301526147eb8185614777565b90506147fa6020830184613dc3565b9392505050565b61480a816146bb565b82525050565b5f60e0820190506148235f83018a613dc3565b6148306020830189613dc3565b61483d604083018861420a565b61484a606083018761423b565b614857608083018661423b565b61486460a0830185614801565b61487160c083018461423b565b98975050505050505050565b5f8190508260206002028201111561489857614897613f04565b5b92915050565b5f819050826040600202820111156148b9576148b8613f04565b5b92915050565b5f819050826020600502820111156148da576148d9613f04565b5b92915050565b5f5f5f5f5f5f5f5f610220898b0312156148fd576148fc613a62565b5b5f61490a8b828c01613b6d565b985050602061491b8b828c01613b6d565b975050604061492c8b828c01613e5a565b965050606061493d8b828c01613e5a565b955050608061494e8b828c0161487d565b94505060c061495f8b828c0161489e565b9350506101406149718b828c0161487d565b9250506101806149838b828c016148bf565b9150509295985092959890939650565b7f4e487b71000000000000000000000000000000000000000000000000000000005f52604160045260245ffd5b7f4e487b71000000000000000000000000000000000000000000000000000000005f52603260045260245ffd5b7f4e487b71000000000000000000000000000000000000000000000000000000005f52601160045260245ffd5b5f614a2482613b4e565b9150614a2f83613b4e565b9250828203905081811115614a4757614a466149ed565b5b92915050565b5f614a5782613b4e565b91507fffffffffffffffffffffffffffffffffffffffffffffffffffffffffffffffff8203614a8957614a886149ed565b5b600182019050919050565b7f4e487b71000000000000000000000000000000000000000000000000000000005f52602260045260245ffd5b5f6002820490506001821680614ad857607f821691505b602082108103614aeb57614aea614a94565b5b50919050565b5f819050815f5260205f209050919050565b5f6020601f8301049050919050565b5f82821b905092915050565b5f60088302614b4d7fffffffffffffffffffffffffffffffffffffffffffffffffffffffffffffffff82614b12565b614b578683614b12565b95508019841693508086168417925050509392505050565b5f614b89614b84614b7f84613b4e565b614032565b613b4e565b9050919050565b5f819050919050565b614ba283614b6f565b614bb6614bae82614b90565b848454614b1e565b825550505050565b5f5f905090565b614bcd614bbe565b614bd8818484614b99565b505050565b5b81811015614bfb57614bf05f82614bc5565b600181019050614bde565b5050565b601f821115614c4057614c1181614af1565b614c1a84614b03565b81016020851015614c29578190505b614c3d614c3585614b03565b830182614bdd565b50505b505050565b5f82821c905092915050565b5f614c605f1984600802614c45565b1980831691505092915050565b5f614c788383614c51565b9150826002028217905092915050565b614c918261424a565b67ffffffffffffffff811115614caa57614ca9614993565b5b614cb48254614ac1565b614cbf828285614bff565b5f60209050601f831160018114614cf0575f8415614cde578287015190505b614ce88582614c6d565b865550614d4f565b601f198416614cfe86614af1565b5f5b82811015614d2557848901518255600182019150602085019450602081019050614d00565b86831015614d425784890151614d3e601f891682614c51565b8355505b6001600288020188555050505b505050505050565b5f614d6182613b4e565b9150614d6c83613b4e565b9250828201905080821115614d8457614d836149ed565b5b92915050565b5f614d9482613b4e565b9150614d9f83613b4e565b9250828202614dad81613b4e565b91508282048414831517614dc457614dc36149ed565b5b5092915050565b7f4e487b71000000000000000000000000000000000000000000000000000000005f52601260045260245ffd5b5f614e0282613b4e565b9150614e0d83613b4e565b925082614e1d57614e1c614dcb565b5b828206905092915050565b82818337505050565b614e3d60408383614e28565b5050565b5f60029050919050565b5f81905092915050565b5f819050919050565b614e6a60408383614e28565b5050565b5f614e798383614e5e565b60408301905092915050565b5f82905092915050565b5f604082019050919050565b614ea481614e41565b614eae8184614e4b565b9250614eb982614e55565b805f5b83811015614ef157614ece8284614e85565b614ed88782614e6e565b9650614ee383614e8f565b925050600181019050614ebc565b505050505050565b614f0560a08383614e28565b5050565b5f6101a082019050614f1d5f830187614e31565b614f2a6040830186614e9b565b614f3760c0830185614e31565b614f45610100830184614ef9565b95945050505050565b5f81519050614f5c8161435b565b92915050565b5f60208284031215614f7757614f76613a62565b5b5f614f8484828501614f4e565b91505092915050565b5f60a082019050614fa05f830184614ef9565b92915050565b5f604082019050614fb95f83018561420a565b614fc66020830184613dc3565b9392505050565b5f602082019050614fe05f83018461420a565b92915050565b5f606082019050614ff95f83018661420a565b615006602083018561420a565b6150136040830184613dc3565b949350505050565b5f60408201905061502e5f83018561420a565b61503b6020830184613b26565b939250505056fea2646970667358221220b5b358c34c0c3aed276cbd5438bcdd72398bd21b1037d3ef64c0bb81c3203db364736f6c634300081c0033",
  "linkReferences": {},
  "deployedLinkReferences": {},
  "immutableReferences": {},
  "inputSourceName": "project/contracts/ZKMedicalInsurance.sol",
  "buildInfoId": "solc-0_8_28-edc562463598757ddfcf4e624ba91e392e01ffed"
}