{
  "_format": "hh3-artifact-1",
  "contractName": "ZKMedicalInsurance",
  "sourceName": "contracts/ZKMedicalInsurance.sol",
  "abi": [
    {
      "inputs": [
        {
          "internalType": "address",
          "name": "verifier_",
          "type": "address"
        }
      ],
      "stateMutability": "nonpayable",
      "type": "constructor"
    },
    {
      "inputs": [],
      "name": "AccessControlBadConfirmation",
      "type": "error"
    },
    {
      "inputs": [
        {
          "internalType": "address",
          "name": "account",
          "type": "address"
        },
        {
          "internalType": "bytes32",
          "name": "neededRole",
          "type": "bytes32"
        }
      ],
      "name": "AccessControlUnauthorizedAccount",
      "type": "error"
    },
    {
      "inputs": [],
      "name": "AmountExceedsCoverage",
      "type": "error"
    },
    {
      "inputs": [],
      "name": "ClaimNotFound",
      "type": "error"
    },
    {
      "inputs": [],
      "name": "ClaimNotInExpectedStatus",
      "type": "error"
    },
    {
      "inputs": [],
      "name": "EnforcedPause",
      "type": "error"
    },
    {
      "inputs": [],
      "name": "ExpectedPause",
      "type": "error"
    },
    {
      "inputs": [],
      "name": "InvalidProof",
      "type": "error"
    },
    {
      "inputs": [],
      "name": "InvalidPublicSignals",
      "type": "error"
    },
    {
      "inputs": [],
      "name": "NotProductInsurer",
      "type": "error"
    },
    {
      "inputs": [],
      "name": "NullifierAlreadyUsed",
      "type": "error"
    },
    {
      "inputs": [],
      "name": "PolicyExpired",
      "type": "error"
    },
    {
      "inputs": [],
      "name": "PolicyNotActive",
      "type": "error"
    },
    {
      "inputs": [],
      "name": "PolicyNotFound",
      "type": "error"
    },
    {
      "inputs": [],
      "name": "PoolInsufficient",
      "type": "error"
    },
    {
      "inputs": [],
      "name": "ProductNotActive",
      "type": "error"
    },
    {
      "inputs": [],
      "name": "ProductNotFound",
      "type": "error"
    },
    {
      "inputs": [],
      "name": "ReentrancyGuardReentrantCall",
      "type": "error"
    },
    {
      "inputs": [
        {
          "internalType": "address",
          "name": "token",
          "type": "address"
        }
      ],
      "name": "SafeERC20FailedOperation",
      "type": "error"
    },
    {
      "inputs": [],
      "name": "Unauthorized",
      "type": "error"
    },
    {
      "inputs": [],
      "name": "ZeroAddress",
      "type": "error"
    },
    {
      "anonymous": false,
      "inputs": [
        {
          "indexed": true,
          "internalType": "uint256",
          "name": "claimId",
          "type": "uint256"
        }
      ],
      "name": "ClaimApproved",
      "type": "event"
    },
    {
      "anonymous": false,
      "inputs": [
        {
          "indexed": true,
          "internalType": "uint256",
          "name": "claimId",
          "type": "uint256"
        },
        {
          "indexed": true,
          "internalType": "address",
          "name": "to",
          "type": "address"
        },
        {
          "indexed": false,
          "internalType": "uint256",
          "name": "amount",
          "type": "uint256"
        }
      ],
      "name": "ClaimPaid",
      "type": "event"
    },
    {
      "anonymous": false,
      "inputs": [
        {
          "indexed": true,
          "internalType": "uint256",
          "name": "claimId",
          "type": "uint256"
        },
        {
          "indexed": false,
          "internalType": "bytes32",
          "name": "decisionMemoHash",
          "type": "bytes32"
        }
      ],
      "name": "ClaimRejected",
      "type": "event"
    },
    {
      "anonymous": false,
      "inputs": [
        {
          "indexed": true,
          "internalType": "uint256",
          "name": "claimId",
          "type": "uint256"
        },
        {
          "indexed": true,
          "internalType": "uint256",
          "name": "policyId",
          "type": "uint256"
        },
        {
          "indexed": true,
          "internalType": "address",
          "name": "claimant",
          "type": "address"
        }
      ],
      "name": "ClaimSubmitted",
      "type": "event"
    },
    {
      "anonymous": false,
      "inputs": [
        {
          "indexed": true,
          "internalType": "uint256",
          "name": "claimId",
          "type": "uint256"
        },
        {
          "indexed": false,
          "internalType": "bytes32",
          "name": "publicSignalsHash",
          "type": "bytes32"
        }
      ],
      "name": "ClaimVerified",
      "type": "event"
    },
    {
      "anonymous": false,
      "inputs": [
        {
          "indexed": false,
          "internalType": "address",
          "name": "account",
          "type": "address"
        }
      ],
      "name": "Paused",
      "type": "event"
    },
    {
      "anonymous": false,
      "inputs": [
        {
          "indexed": true,
          "internalType": "uint256",
          "name": "policyId",
          "type": "uint256"
        },
        {
          "indexed": true,
          "internalType": "uint256",
          "name": "productId",
          "type": "uint256"
        },
        {
          "indexed": true,
          "internalType": "address",
          "name": "holder",
          "type": "address"
        }
      ],
      "name": "PolicyPurchased",
      "type": "event"
    },
    {
      "anonymous": false,
      "inputs": [
        {
          "indexed": true,
          "internalType": "uint256",
          "name": "productId",
          "type": "uint256"
        },
        {
          "indexed": true,
          "internalType": "address",
          "name": "insurer",
          "type": "address"
        },
        {
          "indexed": true,
          "internalType": "address",
          "name": "token",
          "type": "address"
        }
      ],
      "name": "ProductCreated",
      "type": "event"
    },
    {
      "anonymous": false,
      "inputs": [
        {
          "indexed": true,
          "internalType": "uint256",
          "name": "productId",
          "type": "uint256"
        }
      ],
      "name": "ProductUpdated",
      "type": "event"
    },
    {
      "anonymous": false,
      "inputs": [
        {
          "indexed": true,
          "internalType": "bytes32",
          "name": "role",
          "type": "bytes32"
        },
        {
          "indexed": true,
          "internalType": "bytes32",
          "name": "previousAdminRole",
          "type": "bytes32"
        },
        {
          "indexed": true,
          "internalType": "bytes32",
          "name": "newAdminRole",
          "type": "bytes32"
        }
      ],
      "name": "RoleAdminChanged",
      "type": "event"
    },
    {
      "anonymous": false,
      "inputs": [
        {
          "indexed": true,
          "internalType": "bytes32",
          "name": "role",
          "type": "bytes32"
        },
        {
          "indexed": true,
          "internalType": "address",
          "name": "account",
          "type": "address"
        },
        {
          "indexed": true,
          "internalType": "address",
          "name": "sender",
          "type": "address"
        }
      ],
      "name": "RoleGranted",
      "type": "event"
    },
    {
      "anonymous": false,
      "inputs": [
        {
          "indexed": true,
          "internalType": "bytes32",
          "name": "role",
          "type": "bytes32"
        },
        {
          "indexed": true,
          "internalType": "address",
          "name": "account",
          "type": "address"
        },
        {
          "indexed": true,
          "internalType": "address",
          "name": "sender",
          "type": "address"
        }
      ],
      "name": "RoleRevoked",
      "type": "event"
    },
    {
      "anonymous": false,
      "inputs": [
        {
          "indexed": false,
          "internalType": "address",
          "name": "account",
          "type": "address"
        }
      ],
      "name": "Unpaused",
      "type": "event"
    },
    {
      "anonymous": false,
      "inputs": [
        {
          "indexed": true,
          "internalType": "address",
          "name": "oldVerifier",
          "type": "address"
        },
        {
          "indexed": true,
          "internalType": "address",
          "name": "newVerifier",
          "type": "address"
        }
      ],
      "name": "VerifierUpdated",
      "type": "event"
    },
    {
      "inputs": [],
      "name": "DEFAULT_ADMIN_ROLE",
      "outputs": [
        {
          "internalType": "bytes32",
          "name": "",
          "type": "bytes32"
        }
      ],
      "stateMutability": "view",
      "type": "function"
    },
    {
      "inputs": [],
      "name": "HOSPITAL_ROLE",
      "outputs": [
        {
          "internalType": "bytes32",
          "name": "",
          "type": "bytes32"
        }
      ],
      "stateMutability": "view",
      "type": "function"
    },
    {
      "inputs": [],
      "name": "INSURER_ROLE",
      "outputs": [
        {
          "internalType": "bytes32",
          "name": "",
          "type": "bytes32"
        }
      ],
      "stateMutability": "view",
      "type": "function"
    },
    {
      "inputs": [],
      "name": "PAUSER_ROLE",
      "outputs": [
        {
          "internalType": "bytes32",
          "name": "",
          "type": "bytes32"
        }
      ],
      "stateMutability": "view",
      "type": "function"
    },
    {
      "inputs": [
        {
          "internalType": "uint256",
          "name": "claimId",
          "type": "uint256"
        }
      ],
      "name": "approveClaim",
      "outputs": [],
      "stateMutability": "nonpayable",
      "type": "function"
    },
    {
      "inputs": [
        {
          "internalType": "uint256",
          "name": "productId",
          "type": "uint256"
        }
      ],
      "name": "buyPolicy",
      "outputs": [
        {
          "internalType": "uint256",
          "name": "policyId",
          "type": "uint256"
        }
      ],
      "stateMutability": "nonpayable",
      "type": "function"
    },
    {
      "inputs": [
        {
          "internalType": "uint256",
          "name": "",
          "type": "uint256"
        }
      ],
      "name": "claims",
      "outputs": [
        {
          "internalType": "uint256",
          "name": "id",
          "type": "uint256"
        },
        {
          "internalType": "uint256",
          "name": "policyId",
          "type": "uint256"
        },
        {
          "internalType": "address",
          "name": "claimant",
          "type": "address"
        },
        {
          "internalType": "uint256",
          "name": "amount",
          "type": "uint256"
        },
        {
          "internalType": "bytes32",
          "name": "dataHash",
          "type": "bytes32"
        },
        {
          "internalType": "bytes32",
          "name": "nullifier",
          "type": "bytes32"
        },
        {
          "internalType": "bytes32",
          "name": "publicSignalsHash",
          "type": "bytes32"
        },
        {
          "internalType": "enum ZKMedicalInsurance.ClaimStatus",
          "name": "status",
          "type": "uint8"
        },
        {
          "internalType": "uint64",
          "name": "submittedAt",
          "type": "uint64"
        },
        {
          "internalType": "uint64",
          "name": "decidedAt",
          "type": "uint64"
        },
        {
          "internalType": "uint64",
          "name": "paidAt",
          "type": "uint64"
        },
        {
          "internalType": "bytes32",
          "name": "decisionMemoHash",
          "type": "bytes32"
        }
      ],
      "stateMutability": "view",
      "type": "function"
    },
    {
      "inputs": [],
      "name": "claimsCount",
      "outputs": [
        {
          "internalType": "uint256",
          "name": "",
          "type": "uint256"
        }
      ],
      "stateMutability": "view",
      "type": "function"
    },
    {
      "inputs": [
        {
          "internalType": "address",
          "name": "token",
          "type": "address"
        },
        {
          "internalType": "uint256",
          "name": "premiumAmount",
          "type": "uint256"
        },
        {
          "internalType": "uint256",
          "name": "maxCoverage",
          "type": "uint256"
        },
        {
          "internalType": "uint32",
          "name": "coveragePeriodDays",
          "type": "uint32"
        },
        {
          "internalType": "bytes32",
          "name": "coveredRoot",
          "type": "bytes32"
        },
        {
          "internalType": "string",
          "name": "uri",
          "type": "string"
        }
      ],
      "name": "createProduct",
      "outputs": [
        {
          "internalType": "uint256",
          "name": "productId",
          "type": "uint256"
        }
      ],
      "stateMutability": "nonpayable",
      "type": "function"
    },
    {
      "inputs": [
        {
          "internalType": "address",
          "name": "token",
          "type": "address"
        },
        {
          "internalType": "uint256",
          "name": "premiumAmount",
          "type": "uint256"
        },
        {
          "internalType": "uint256",
          "name": "maxCoverage",
          "type": "uint256"
        },
        {
          "internalType": "uint32",
          "name": "coveragePeriodDays",
          "type": "uint32"
        },
        {
          "internalType": "bytes32",
          "name": "coveredRoot",
          "type": "bytes32"
        },
        {
          "internalType": "string",
          "name": "uri",
          "type": "string"
        },
        {
          "internalType": "uint256",
          "name": "initialFunding",
          "type": "uint256"
        }
      ],
      "name": "createProductWithFunding",
      "outputs": [
        {
          "internalType": "uint256",
          "name": "productId",
          "type": "uint256"
        }
      ],
      "stateMutability": "nonpayable",
      "type": "function"
    },
    {
      "inputs": [
        {
          "internalType": "uint256",
          "name": "productId",
          "type": "uint256"
        },
        {
          "internalType": "uint256",
          "name": "amount",
          "type": "uint256"
        }
      ],
      "name": "fundPool",
      "outputs": [],
      "stateMutability": "nonpayable",
      "type": "function"
    },
    {
      "inputs": [
        {
          "internalType": "uint256",
          "name": "cursor",
          "type": "uint256"
        },
        {
          "internalType": "uint256",
          "name": "size",
          "type": "uint256"
        }
      ],
      "name": "getClaimsBriefPage",
      "outputs": [
        {
          "components": [
            {
              "internalType": "uint256",
              "name": "id",
              "type": "uint256"
            },
            {
              "internalType": "uint256",
              "name": "policyId",
              "type": "uint256"
            },
            {
              "internalType": "address",
              "name": "claimant",
              "type": "address"
            },
            {
              "internalType": "uint256",
              "name": "amount",
              "type": "uint256"
            },
            {
              "internalType": "bytes32",
              "name": "dataHash",
              "type": "bytes32"
            },
            {
              "internalType": "bytes32",
              "name": "nullifier",
              "type": "bytes32"
            },
            {
              "internalType": "enum ZKMedicalInsurance.ClaimStatus",
              "name": "status",
              "type": "uint8"
            }
          ],
          "internalType": "struct ZKMedicalInsurance.ClaimBrief[]",
          "name": "items",
          "type": "tuple[]"
        },
        {
          "internalType": "uint256",
          "name": "nextCursor",
          "type": "uint256"
        }
      ],
      "stateMutability": "view",
      "type": "function"
    },
    {
      "inputs": [
        {
          "internalType": "uint256",
          "name": "cursor",
          "type": "uint256"
        },
        {
          "internalType": "uint256",
          "name": "size",
          "type": "uint256"
        }
      ],
      "name": "getPoliciesBriefPage",
      "outputs": [
        {
          "components": [
            {
              "internalType": "uint256",
              "name": "id",
              "type": "uint256"
            },
            {
              "internalType": "uint256",
              "name": "productId",
              "type": "uint256"
            },
            {
              "internalType": "address",
              "name": "holder",
              "type": "address"
            },
            {
              "internalType": "uint64",
              "name": "startAt",
              "type": "uint64"
            },
            {
              "internalType": "uint64",
              "name": "endAt",
              "type": "uint64"
            },
            {
              "internalType": "enum ZKMedicalInsurance.PolicyStatus",
              "name": "status",
              "type": "uint8"
            }
          ],
          "internalType": "struct ZKMedicalInsurance.PolicyBrief[]",
          "name": "items",
          "type": "tuple[]"
        },
        {
          "internalType": "uint256",
          "name": "nextCursor",
          "type": "uint256"
        }
      ],
      "stateMutability": "view",
      "type": "function"
    },
    {
      "inputs": [
        {
          "internalType": "uint256",
          "name": "productId",
          "type": "uint256"
        }
      ],
      "name": "getProduct",
      "outputs": [
        {
          "components": [
            {
              "internalType": "uint256",
              "name": "id",
              "type": "uint256"
            },
            {
              "internalType": "address",
              "name": "insurer",
              "type": "address"
            },
            {
              "internalType": "address",
              "name": "token",
              "type": "address"
            },
            {
              "internalType": "uint256",
              "name": "premiumAmount",
              "type": "uint256"
            },
            {
              "internalType": "uint256",
              "name": "maxCoverage",
              "type": "uint256"
            },
            {
              "internalType": "uint32",
              "name": "coveragePeriodDays",
              "type": "uint32"
            },
            {
              "internalType": "bytes32",
              "name": "coveredRoot",
              "type": "bytes32"
            },
            {
              "internalType": "bool",
              "name": "active",
              "type": "bool"
            },
            {
              "internalType": "uint64",
              "name": "createdAt",
              "type": "uint64"
            },
            {
              "internalType": "string",
              "name": "uri",
              "type": "string"
            }
          ],
          "internalType": "struct ZKMedicalInsurance.Product",
          "name": "",
          "type": "tuple"
        }
      ],
      "stateMutability": "view",
      "type": "function"
    },
    {
      "inputs": [
        {
          "internalType": "uint256",
          "name": "cursor",
          "type": "uint256"
        },
        {
          "internalType": "uint256",
          "name": "size",
          "type": "uint256"
        }
      ],
      "name": "getProductsBriefPage",
      "outputs": [
        {
          "components": [
            {
              "internalType": "uint256",
              "name": "id",
              "type": "uint256"
            },
            {
              "internalType": "address",
              "name": "insurer",
              "type": "address"
            },
            {
              "internalType": "address",
              "name": "token",
              "type": "address"
            },
            {
              "internalType": "uint256",
              "name": "premiumAmount",
              "type": "uint256"
            },
            {
              "internalType": "uint256",
              "name": "maxCoverage",
              "type": "uint256"
            },
            {
              "internalType": "uint32",
              "name": "coveragePeriodDays",
              "type": "uint32"
            },
            {
              "internalType": "bytes32",
              "name": "coveredRoot",
              "type": "bytes32"
            },
            {
              "internalType": "bool",
              "name": "active",
              "type": "bool"
            }
          ],
          "internalType": "struct ZKMedicalInsurance.ProductBrief[]",
          "name": "items",
          "type": "tuple[]"
        },
        {
          "internalType": "uint256",
          "name": "nextCursor",
          "type": "uint256"
        }
      ],
      "stateMutability": "view",
      "type": "function"
    },
    {
      "inputs": [
        {
          "internalType": "bytes32",
          "name": "role",
          "type": "bytes32"
        }
      ],
      "name": "getRoleAdmin",
      "outputs": [
        {
          "internalType": "bytes32",
          "name": "",
          "type": "bytes32"
        }
      ],
      "stateMutability": "view",
      "type": "function"
    },
    {
      "inputs": [
        {
          "internalType": "address",
          "name": "user",
          "type": "address"
        },
        {
          "internalType": "uint256",
          "name": "cursor",
          "type": "uint256"
        },
        {
          "internalType": "uint256",
          "name": "size",
          "type": "uint256"
        }
      ],
      "name": "getUserClaimIdsPage",
      "outputs": [
        {
          "internalType": "uint256[]",
          "name": "ids",
          "type": "uint256[]"
        },
        {
          "internalType": "uint256",
          "name": "nextCursor",
          "type": "uint256"
        }
      ],
      "stateMutability": "view",
      "type": "function"
    },
    {
      "inputs": [
        {
          "internalType": "address",
          "name": "user",
          "type": "address"
        },
        {
          "internalType": "uint256",
          "name": "cursor",
          "type": "uint256"
        },
        {
          "internalType": "uint256",
          "name": "size",
          "type": "uint256"
        }
      ],
      "name": "getUserPolicyIdsPage",
      "outputs": [
        {
          "internalType": "uint256[]",
          "name": "ids",
          "type": "uint256[]"
        },
        {
          "internalType": "uint256",
          "name": "nextCursor",
          "type": "uint256"
        }
      ],
      "stateMutability": "view",
      "type": "function"
    },
    {
      "inputs": [
        {
          "internalType": "bytes32",
          "name": "role",
          "type": "bytes32"
        },
        {
          "internalType": "address",
          "name": "account",
          "type": "address"
        }
      ],
      "name": "grantRole",
      "outputs": [],
      "stateMutability": "nonpayable",
      "type": "function"
    },
    {
      "inputs": [
        {
          "internalType": "bytes32",
          "name": "role",
          "type": "bytes32"
        },
        {
          "internalType": "address",
          "name": "account",
          "type": "address"
        }
      ],
      "name": "hasRole",
      "outputs": [
        {
          "internalType": "bool",
          "name": "",
          "type": "bool"
        }
      ],
      "stateMutability": "view",
      "type": "function"
    },
    {
      "inputs": [],
      "name": "pause",
      "outputs": [],
      "stateMutability": "nonpayable",
      "type": "function"
    },
    {
      "inputs": [],
      "name": "paused",
      "outputs": [
        {
          "internalType": "bool",
          "name": "",
          "type": "bool"
        }
      ],
      "stateMutability": "view",
      "type": "function"
    },
    {
      "inputs": [
        {
          "internalType": "uint256",
          "name": "claimId",
          "type": "uint256"
        }
      ],
      "name": "payoutClaim",
      "outputs": [],
      "stateMutability": "nonpayable",
      "type": "function"
    },
    {
      "inputs": [
        {
          "internalType": "uint256",
          "name": "",
          "type": "uint256"
        }
      ],
      "name": "policies",
      "outputs": [
        {
          "internalType": "uint256",
          "name": "id",
          "type": "uint256"
        },
        {
          "internalType": "uint256",
          "name": "productId",
          "type": "uint256"
        },
        {
          "internalType": "address",
          "name": "holder",
          "type": "address"
        },
        {
          "internalType": "uint64",
          "name": "startAt",
          "type": "uint64"
        },
        {
          "internalType": "uint64",
          "name": "endAt",
          "type": "uint64"
        },
        {
          "internalType": "enum ZKMedicalInsurance.PolicyStatus",
          "name": "status",
          "type": "uint8"
        },
        {
          "internalType": "uint64",
          "name": "createdAt",
          "type": "uint64"
        }
      ],
      "stateMutability": "view",
      "type": "function"
    },
    {
      "inputs": [],
      "name": "policiesCount",
      "outputs": [
        {
          "internalType": "uint256",
          "name": "",
          "type": "uint256"
        }
      ],
      "stateMutability": "view",
      "type": "function"
    },
    {
      "inputs": [
        {
          "internalType": "uint256",
          "name": "",
          "type": "uint256"
        }
      ],
      "name": "productPool",
      "outputs": [
        {
          "internalType": "uint256",
          "name": "",
          "type": "uint256"
        }
      ],
      "stateMutability": "view",
      "type": "function"
    },
    {
      "inputs": [
        {
          "internalType": "uint256",
          "name": "",
          "type": "uint256"
        }
      ],
      "name": "products",
      "outputs": [
        {
          "internalType": "uint256",
          "name": "id",
          "type": "uint256"
        },
        {
          "internalType": "address",
          "name": "insurer",
          "type": "address"
        },
        {
          "internalType": "address",
          "name": "token",
          "type": "address"
        },
        {
          "internalType": "uint256",
          "name": "premiumAmount",
          "type": "uint256"
        },
        {
          "internalType": "uint256",
          "name": "maxCoverage",
          "type": "uint256"
        },
        {
          "internalType": "uint32",
          "name": "coveragePeriodDays",
          "type": "uint32"
        },
        {
          "internalType": "bytes32",
          "name": "coveredRoot",
          "type": "bytes32"
        },
        {
          "internalType": "bool",
          "name": "active",
          "type": "bool"
        },
        {
          "internalType": "uint64",
          "name": "createdAt",
          "type": "uint64"
        },
        {
          "internalType": "string",
          "name": "uri",
          "type": "string"
        }
      ],
      "stateMutability": "view",
      "type": "function"
    },
    {
      "inputs": [],
      "name": "productsCount",
      "outputs": [
        {
          "internalType": "uint256",
          "name": "",
          "type": "uint256"
        }
      ],
      "stateMutability": "view",
      "type": "function"
    },
    {
      "inputs": [
        {
          "internalType": "uint256",
          "name": "claimId",
          "type": "uint256"
        },
        {
          "internalType": "bytes32",
          "name": "decisionMemoHash",
          "type": "bytes32"
        }
      ],
      "name": "rejectClaim",
      "outputs": [],
      "stateMutability": "nonpayable",
      "type": "function"
    },
    {
      "inputs": [
        {
          "internalType": "bytes32",
          "name": "role",
          "type": "bytes32"
        },
        {
          "internalType": "address",
          "name": "callerConfirmation",
          "type": "address"
        }
      ],
      "name": "renounceRole",
      "outputs": [],
      "stateMutability": "nonpayable",
      "type": "function"
    },
    {
      "inputs": [
        {
          "internalType": "bytes32",
          "name": "role",
          "type": "bytes32"
        },
        {
          "internalType": "address",
          "name": "account",
          "type": "address"
        }
      ],
      "name": "revokeRole",
      "outputs": [],
      "stateMutability": "nonpayable",
      "type": "function"
    },
    {
      "inputs": [
        {
          "internalType": "uint256",
          "name": "productId",
          "type": "uint256"
        },
        {
          "internalType": "bool",
          "name": "active",
          "type": "bool"
        }
      ],
      "name": "setProductActive",
      "outputs": [],
      "stateMutability": "nonpayable",
      "type": "function"
    },
    {
      "inputs": [
        {
          "internalType": "address",
          "name": "verifier_",
          "type": "address"
        }
      ],
      "name": "setVerifier",
      "outputs": [],
      "stateMutability": "nonpayable",
      "type": "function"
    },
    {
      "inputs": [
        {
          "internalType": "uint256",
          "name": "policyId",
          "type": "uint256"
        },
        {
          "internalType": "uint256",
          "name": "amount",
          "type": "uint256"
        },
        {
          "internalType": "bytes32",
          "name": "dataHash",
          "type": "bytes32"
        },
        {
          "internalType": "bytes32",
          "name": "nullifier",
          "type": "bytes32"
        },
        {
          "internalType": "uint256[2]",
          "name": "a",
          "type": "uint256[2]"
        },
        {
          "internalType": "uint256[2][2]",
          "name": "b",
          "type": "uint256[2][2]"
        },
        {
          "internalType": "uint256[2]",
          "name": "c",
          "type": "uint256[2]"
        },
        {
          "internalType": "uint256[5]",
          "name": "input",
          "type": "uint256[5]"
        }
      ],
      "name": "submitClaimWithProof",
      "outputs": [
        {
          "internalType": "uint256",
          "name": "claimId",
          "type": "uint256"
        }
      ],
      "stateMutability": "nonpayable",
      "type": "function"
    },
    {
      "inputs": [
        {
          "internalType": "bytes4",
          "name": "interfaceId",
          "type": "bytes4"
        }
      ],
      "name": "supportsInterface",
      "outputs": [
        {
          "internalType": "bool",
          "name": "",
          "type": "bool"
        }
      ],
      "stateMutability": "view",
      "type": "function"
    },
    {
      "inputs": [],
      "name": "unpause",
      "outputs": [],
      "stateMutability": "nonpayable",
      "type": "function"
    },
    {
      "inputs": [
        {
          "internalType": "uint256",
          "name": "productId",
          "type": "uint256"
        },
        {
          "internalType": "bytes32",
          "name": "newRoot",
          "type": "bytes32"
        }
      ],
      "name": "updateCoveredRoot",
      "outputs": [],
      "stateMutability": "nonpayable",
      "type": "function"
    },
    {
      "inputs": [
        {
          "internalType": "bytes32",
          "name": "",
          "type": "bytes32"
        }
      ],
      "name": "usedNullifier",
      "outputs": [
        {
          "internalType": "bool",
          "name": "",
          "type": "bool"
        }
      ],
      "stateMutability": "view",
      "type": "function"
    },
    {
      "inputs": [
        {
          "internalType": "address",
          "name": "user",
          "type": "address"
        }
      ],
      "name": "userClaimsCount",
      "outputs": [
        {
          "internalType": "uint256",
          "name": "",
          "type": "uint256"
        }
      ],
      "stateMutability": "view",
      "type": "function"
    },
    {
      "inputs": [
        {
          "internalType": "address",
          "name": "user",
          "type": "address"
        }
      ],
      "name": "userPoliciesCount",
      "outputs": [
        {
          "internalType": "uint256",
          "name": "",
          "type": "uint256"
        }
      ],
      "stateMutability": "view",
      "type": "function"
    },
    {
      "inputs": [],
      "name": "verifier",
      "outputs": [
        {
          "internalType": "contract IGroth16Verifier",
          "name": "",
          "type": "address"
        }
      ],
      "stateMutability": "view",
      "type": "function"
    }
  ],
  "bytecode": "0x608060405234801561000f575f5ffd5b5060405161366338038061366383398101604081905261002e916101dd565b60016002556001600160a01b03811661005a5760405163d92e233d60e01b815260040160405180910390fd5b600380546001600160a01b0319166001600160a01b0383169081179091556040515f907f0243549a92b2412f7a3caf7a2e56d65b8821b91345363faa5f57195384065fcc908290a36100ac5f33610134565b506100d77feb0a07781e3ee843c0d85f7381c2e1a1e1a6ea86bcdcd944ef649d46e7dcd97233610134565b506101027fc8f5b4140cca307cd927e59cbeea8291bffeee228fc677f0fa059aef7b4dd8d533610134565b5061012d7f65d7a28e3265b37a6474929f336521b332c1681b933f6cb9f3376673440d862a33610134565b505061020a565b5f828152602081815260408083206001600160a01b038516845290915281205460ff166101d4575f838152602081815260408083206001600160a01b03861684529091529020805460ff1916600117905561018c3390565b6001600160a01b0316826001600160a01b0316847f2f8788117e7eff1d82e926ec794901d17c78024a50270940304540a733656f0d60405160405180910390a45060016101d7565b505f5b92915050565b5f602082840312156101ed575f5ffd5b81516001600160a01b0381168114610203575f5ffd5b9392505050565b61344c806102175f395ff3fe608060405234801561000f575f5ffd5b506004361061024a575f3560e01c80638106208011610140578063d3e89483116100bf578063e695898211610084578063e695898214610652578063e6cf0b9014610665578063eaf800fa14610678578063f0a3c76314610697578063f6909c74146106aa578063f6ba6678146106cc575f5ffd5b8063d3e8948314610581578063d547741f146105fd578063e0df7bb614610610578063e63ab1e914610618578063e64fa3f81461063f575f5ffd5b8063a217fddf11610105578063a217fddf1461048d578063a888c2cd14610494578063a95355d414610538578063b9db15b414610559578063bbd245ea14610579575f5ffd5b8063810620801461042b5780638456cb591461043e57806385df20131461044657806391d14854146104675780639280eab81461047a575f5ffd5b80632f2ff15d116101cc578063561a5d5a11610191578063561a5d5a146103be5780635acd6fac146103d15780635c975abb146103e457806379c88894146103ef5780637acc0b2014610402575f5ffd5b80632f2ff15d1461036a57806336568abe1461037d5780633f4ba83a1461039057806346e30135146103985780635437988d146103ab575f5ffd5b8063248a9ca311610212578063248a9ca3146102d657806327395aad146102f85780632a053b3e1461030b5780632b7ac3f31461031e5780632f0e33a514610349575f5ffd5b806301ffc9a71461024e578063056c9989146102765780630a131d7e146102985780630b100a5a146102b95780630d13fa5a146102c1575b5f5ffd5b61026161025c3660046129cc565b6106f3565b60405190151581526020015b60405180910390f35b61028a5f5160206133d75f395f51905f5281565b60405190815260200161026d565b6102ab6102a63660046129f3565b610729565b60405161026d929190612a3b565b600b5461028a565b6102d46102cf366004612adc565b610884565b005b61028a6102e4366004612adc565b5f9081526020819052604090206001015490565b61028a610306366004612b60565b610a34565b61028a610319366004612bdb565b610c8e565b600354610331906001600160a01b031681565b6040516001600160a01b03909116815260200161026d565b61035c610357366004612bf4565b610cae565b60405161026d929190612c24565b6102d4610378366004612c5d565b610ce1565b6102d461038b366004612c5d565b610d0b565b6102d4610d43565b6102d46103a6366004612adc565b610d75565b6102d46103b9366004612bdb565b610e65565b61028a6103cc366004612bdb565b610ee8565b6102d46103df3660046129f3565b610f08565b60015460ff16610261565b61028a6103fd366004612adc565b610f95565b610415610410366004612adc565b61122e565b60405161026d9a99989796959493929190612cb5565b6102d4610439366004612d3e565b61132c565b6102d461138d565b6104596104543660046129f3565b6113bf565b60405161026d929190612d6c565b610261610475366004612c5d565b611535565b6102d46104883660046129f3565b61155d565b61028a5f81565b6105206104a2366004612adc565b60096020525f9081526040902080546001820154600283015460038401546004850154600586015460068701546007880154600890980154969795966001600160a01b0390951695939492939192909160ff8116916001600160401b036101008304811692600160481b8104821692600160881b909104909116908c565b60405161026d9c9b9a99989796959493929190612e14565b61054b6105463660046129f3565b6115b5565b60405161026d929190612ea3565b61056c610567366004612adc565b611728565b60405161026d9190612f39565b600c5461028a565b6105ea61058f366004612adc565b60086020525f90815260409020805460018201546002830154600390930154919290916001600160a01b038216916001600160401b03600160a01b9091048116918082169160ff600160401b83041691600160481b90041687565b60405161026d9796959493929190612ffa565b6102d461060b366004612c5d565b6118c9565b600a5461028a565b61028a7f65d7a28e3265b37a6474929f336521b332c1681b933f6cb9f3376673440d862a81565b61028a61064d366004613056565b6118ed565b61028a6106603660046130e8565b611b9d565b61035c610673366004612bf4565b61219a565b61028a610686366004612adc565b60106020525f908152604090205481565b6102d46106a53660046129f3565b6121c0565b6102616106b8366004612adc565b600f6020525f908152604090205460ff1681565b61028a7fc8f5b4140cca307cd927e59cbeea8291bffeee228fc677f0fa059aef7b4dd8d581565b5f6001600160e01b03198216637965db0b60e01b148061072357506301ffc9a760e01b6001600160e01b03198316145b92915050565b60605f5f5f61073a600c87876122c3565b9150915081516001600160401b0381111561075757610757613170565b60405190808252806020026020018201604052801561079057816020015b61077d61297d565b8152602001906001900390816107755790505b5093505f5b8251811015610877575f60095f8584815181106107b4576107b4613184565b602002602001015181526020019081526020015f2090506040518060e00160405280825f0154815260200182600101548152602001826002015f9054906101000a90046001600160a01b03166001600160a01b03168152602001826003015481526020018260040154815260200182600501548152602001826007015f9054906101000a900460ff16600481111561084e5761084e612a13565b81525086838151811061086357610863613184565b602090810291909101015250600101610795565b5080925050509250929050565b61088c6123ce565b6108946123f4565b5f5160206133d75f395f51905f526108ab8161241c565b5f6108b583612426565b90506002600782015460ff1660048111156108d2576108d2612a13565b146108f05760405163f8d3970b60e01b815260040160405180910390fd5b5f6108fe826001015461245e565b60018101549091505f61091082612496565b905061091b816124ce565b60038401545f83815260106020526040902054101561094d5760405163052f1b1360e51b815260040160405180910390fd5b60038401545f838152601060205260408120805490919061096f9084906131ac565b909155505060028085015460038601549183015461099d926001600160a01b0391821692919091169061253b565b6007840180546001600160401b034216600160881b0278ffffffffffffffff00000000000000000000000000000000ff19909116176004179055600284015460038501546040519081526001600160a01b039091169087907faf3c8fdd75d667f71d36d7840b8ef9086c516c9b047ad6a83a5a66151342123a9060200160405180910390a35050505050610a316001600255565b50565b5f610a3d6123ce565b5f5160206133d75f395f51905f52610a548161241c565b6001600160a01b038916610a7b5760405163d92e233d60e01b815260040160405180910390fd5b60045f8154610a89906131bf565b9190508190559150604051806101400160405280838152602001336001600160a01b031681526020018a6001600160a01b031681526020018981526020018881526020018763ffffffff168152602001868152602001600115158152602001426001600160401b0316815260200185858080601f0160208091040260200160405190810160405280939291908181526020018383808284375f9201829052509390945250508481526007602081815260409283902085518155908501516001820180546001600160a01b03199081166001600160a01b039384161790915593860151600283018054909516911617909255606084015160038301556080840151600483015560a084015160058301805463ffffffff191663ffffffff90921691909117905560c0840151600683015560e084015190820180546101008087015168ffffffffffffffffff1990921693151568ffffffffffffffff001916939093176001600160401b039091169092029190911790556101208301519091506008820190610c16908261325a565b5050600a80546001810182555f9182527fc65a7bb8d6351c1cf70c95a316cc6a92839c986682d98bc35f958f4883f9d2a8018490556040516001600160a01b038c169250339185917f7ab02de634eab482e2fbc93c329fcb207ffde846ca6d47490afba62fac4026699190a450979650505050505050565b6001600160a01b0381165f908152600d602052604081206107239061259a565b6001600160a01b0383165f908152600d6020526040812060609190610cd49085856125a3565b915091505b935093915050565b5f82815260208190526040902060010154610cfb8161241c565b610d058383612666565b50505050565b6001600160a01b0381163314610d345760405163334bd91960e11b815260040160405180910390fd5b610d3e82826126f5565b505050565b7f65d7a28e3265b37a6474929f336521b332c1681b933f6cb9f3376673440d862a610d6d8161241c565b610a3161275e565b610d7d6123ce565b5f5160206133d75f395f51905f52610d948161241c565b5f610d9e83612426565b90506001600782015460ff166004811115610dbb57610dbb612a13565b14610dd95760405163f8d3970b60e01b815260040160405180910390fd5b5f610de7826001015461245e565b6001015490505f610df782612496565b9050610e02816124ce565b6007830180546001600160401b034216600160481b0270ffffffffffffffff0000000000000000ff1990911617600217905560405185907fd2d0ed0cccc8615643ade1eff3929a29ed8df75ebca85a3996e311c9b69e2289905f90a25050505050565b5f610e6f8161241c565b6001600160a01b038216610e965760405163d92e233d60e01b815260040160405180910390fd5b600380546001600160a01b038481166001600160a01b0319831681179093556040519116919082907f0243549a92b2412f7a3caf7a2e56d65b8821b91345363faa5f57195384065fcc905f90a3505050565b6001600160a01b0381165f908152600e602052604081206107239061259a565b610f106123ce565b5f5160206133d75f395f51905f52610f278161241c565b5f610f3184612496565b9050610f3c816124ce565b6002810154610f56906001600160a01b03163330866127b0565b5f8481526010602052604081208054859290610f73908490613314565b909155505060405184905f5160206133f75f395f51905f52905f90a250505050565b5f610f9e6123ce565b610fa66123f4565b5f610fb083612496565b600781015490915060ff16610fd857604051632cdd618760e01b815260040160405180910390fd5b60038101546002820154610ffb916001600160a01b0390911690339030906127b0565b60038101545f848152601060205260408120805490919061101d908490613314565b9091555050600580545f90611031906131bf565b9182905550600582015490925042905f906110559063ffffffff1662015180613327565b61105f9042613314565b90506040518060e00160405280858152602001868152602001336001600160a01b03168152602001836001600160401b03168152602001826001600160401b031681526020015f60028111156110b7576110b7612a13565b81526001600160401b034281166020928301525f87815260088352604090819020845181559284015160018401558301516002808401805460608701518516600160a01b026001600160e01b03199091166001600160a01b03909416939093179290921790915560808401516003840180549190931667ffffffffffffffff1982168117845560a0860151939268ffffffffffffffffff199092161790600160401b90849081111561116b5761116b612a13565b021790555060c09190910151600390910180546001600160401b03909216600160481b0267ffffffffffffffff60481b19909216919091179055600b8054600181019091557f0175b7a638427703f0dbe7bb9bbf987a2551717b34e79f33b5b1008d1fa01db901849055335f908152600d602052604090206111ed90856127e9565b506040513390869086907fa1e004b771d2bfa9498a1f952d363a2b88201b708e272e7bdd675dfa7941e365905f90a45050506112296001600255565b919050565b600760208190525f918252604090912080546001820154600283015460038401546004850154600586015460068701549787015460088801805497996001600160a01b039788169996909716979496939563ffffffff9093169460ff8316936001600160401b03610100909404939093169291906112ab906131d7565b80601f01602080910402602001604051908101604052809291908181526020018280546112d7906131d7565b80156113225780601f106112f957610100808354040283529160200191611322565b820191905f5260205f20905b81548152906001019060200180831161130557829003601f168201915b505050505090508a565b6113346123ce565b5f5160206133d75f395f51905f5261134b8161241c565b5f61135584612496565b9050611360816124ce565b60078101805460ff191684151517905560405184905f5160206133f75f395f51905f52905f90a250505050565b7f65d7a28e3265b37a6474929f336521b332c1681b933f6cb9f3376673440d862a6113b78161241c565b610a316127fb565b60605f5f5f6113d0600a87876122c3565b9150915081516001600160401b038111156113ed576113ed613170565b60405190808252806020026020018201604052801561145a57816020015b60408051610100810182525f8082526020808301829052928201819052606082018190526080820181905260a0820181905260c0820181905260e082015282525f1990920191018161140b5790505b5093505f5b8251811015610877575f60075f85848151811061147e5761147e613184565b60209081029190910181015182528181019290925260409081015f208151610100810183528154815260018201546001600160a01b03908116948201949094526002820154909316918301919091526003810154606083015260048101546080830152600581015463ffffffff1660a0830152600681015460c0830152600781015460ff16151560e0830152875190925087908490811061152157611521613184565b60209081029190910101525060010161145f565b5f918252602082815260408084206001600160a01b0393909316845291905290205460ff1690565b6115656123ce565b5f5160206133d75f395f51905f5261157c8161241c565b5f61158684612496565b9050611591816124ce565b6006810183905560405184905f5160206133f75f395f51905f52905f90a250505050565b60605f5f5f6115c6600b87876122c3565b9150915081516001600160401b038111156115e3576115e3613170565b60405190808252806020026020018201604052801561164957816020015b6116366040805160c0810182525f8082526020820181905291810182905260608101829052608081018290529060a082015290565b8152602001906001900390816116015790505b5093505f5b8251811015610877575f60085f85848151811061166d5761166d613184565b60209081029190910181015182528181019290925260409081015f20815160c081018352815481526001820154938101939093526002808201546001600160a01b038116938501939093526001600160401b03600160a01b909304831660608501526003820154928316608085015290935060a083019160ff600160401b90910416908111156116ff576116ff612a13565b81525086838151811061171457611714613184565b60209081029190910101525060010161164e565b6117986040518061014001604052805f81526020015f6001600160a01b031681526020015f6001600160a01b031681526020015f81526020015f81526020015f63ffffffff1681526020015f81526020015f151581526020015f6001600160401b03168152602001606081525090565b5f6117a283612496565b60408051610140810182528254815260018301546001600160a01b039081166020830152600284015416918101919091526003820154606082015260048201546080820152600582015463ffffffff1660a0820152600682015460c0820152600782015460ff8116151560e08301526001600160401b0361010091829004169082015260088201805492935090918391610120840191611841906131d7565b80601f016020809104026020016040519081016040528092919081815260200182805461186d906131d7565b80156118b85780601f1061188f576101008083540402835291602001916118b8565b820191905f5260205f20905b81548152906001019060200180831161189b57829003601f168201915b505050505081525050915050919050565b5f828152602081905260409020600101546118e38161241c565b610d0583836126f5565b5f6118f66123ce565b5f5160206133d75f395f51905f5261190d8161241c565b6001600160a01b038a166119345760405163d92e233d60e01b815260040160405180910390fd5b60045f8154611942906131bf565b9190508190559150604051806101400160405280838152602001336001600160a01b031681526020018b6001600160a01b031681526020018a81526020018981526020018863ffffffff168152602001878152602001600115158152602001426001600160401b0316815260200186868080601f0160208091040260200160405190810160405280939291908181526020018383808284375f9201829052509390945250508481526007602081815260409283902085518155908501516001820180546001600160a01b03199081166001600160a01b039384161790915593860151600283018054909516911617909255606084015160038301556080840151600483015560a084015160058301805463ffffffff191663ffffffff90921691909117905560c0840151600683015560e084015190820180546101008087015168ffffffffffffffffff1990921693151568ffffffffffffffff001916939093176001600160401b039091169092029190911790556101208301519091506008820190611acf908261325a565b5050600a80546001810182555f9182527fc65a7bb8d6351c1cf70c95a316cc6a92839c986682d98bc35f958f4883f9d2a8018490556040516001600160a01b038d169250339185917f7ab02de634eab482e2fbc93c329fcb207ffde846ca6d47490afba62fac4026699190a48215611b9057611b566001600160a01b038b163330866127b0565b5f8281526010602052604081208054859290611b73908490613314565b909155505060405182905f5160206133f75f395f51905f52905f90a25b5098975050505050505050565b5f611ba66123ce565b611bae6123f4565b5f611bb88a61245e565b90505f6003820154600160401b900460ff166002811115611bdb57611bdb612a13565b14611bf957604051638966b51f60e01b815260040160405180910390fd5b60038101546001600160401b0316421115611c2757604051634e2df5e560e11b815260040160405180910390fd5b60028101546001600160a01b03163314801590611c6b5750611c697fc8f5b4140cca307cd927e59cbeea8291bffeee228fc677f0fa059aef7b4dd8d533611535565b155b15611c88576040516282b42960e81b815260040160405180910390fd5b5f611c968260010154612496565b600781015490915060ff16611cbe57604051632cdd618760e01b815260040160405180910390fd5b80600401548a1115611ce35760405163aa9cc79b60e01b815260040160405180910390fd5b5f888152600f602052604090205460ff1615611d1257604051636569570160e11b815260040160405180910390fd5b5f611d3d7f30644e72e131a029b85045b68181585d2833e84879b9709143e1f593f00000018b61333e565b905084358c14611d6057604051632fd4ab1b60e21b815260040160405180910390fd5b60208501358b14611d8457604051632fd4ab1b60e21b815260040160405180910390fd5b60408501358114611da857604051632fd4ab1b60e21b815260040160405180910390fd5b6006820154606086013514611dd057604051632fd4ab1b60e21b815260040160405180910390fd5b60808501358914611df457604051632fd4ab1b60e21b815260040160405180910390fd5b6003546040516334baeab960e01b81525f916001600160a01b0316906334baeab990611e2a908c908c908c908c9060040161335d565b602060405180830381865afa158015611e45573d5f5f3e3d5ffd5b505050506040513d601f19601f82011682018060405250810190611e6991906133ac565b905080611e89576040516309bde33960e01b815260040160405180910390fd5b5f8a8152600f60205260408120805460ff1916600117905560068054909190611eb1906131bf565b91905081905594505f86604051602001611ecb91906133c7565b6040516020818303038152906040528051906020012090506040518061018001604052808781526020018f8152602001866002015f9054906101000a90046001600160a01b03166001600160a01b031681526020018e81526020018d81526020018c815260200182815260200160016004811115611f4b57611f4b612a13565b8152602001426001600160401b031681526020015f6001600160401b031681526020015f6001600160401b031681526020015f5f1b81525060095f8881526020019081526020015f205f820151815f0155602082015181600101556040820151816002015f6101000a8154816001600160a01b0302191690836001600160a01b03160217905550606082015181600301556080820151816004015560a0820151816005015560c0820151816006015560e0820151816007015f6101000a81548160ff0219169083600481111561202357612023612a13565b0217905550610100828101516007830180546101208601516101408701516001600160401b03908116600160881b0267ffffffffffffffff60881b19928216600160481b0267ffffffffffffffff60481b19929096169096021670ffffffffffffffffffffffffffffffff001990921691909117929092179190911691909117905561016090910151600890910155600c8054600181019091557fdf6966c971051c3d54ec59162606531493a51404a002842f56009d7e5cf4a8c70186905560028501546001600160a01b03165f908152600e6020526040902061210790876127e9565b5060028501546040516001600160a01b03909116908f9088907f9fe11e531030a058803617055e27f9f4768236e4322e13b9c4c09f4338e23a68905f90a4857f52f0835c7dec560965de4d93337a5ad7644e44bfda7334a93a15df5af39e802f8260405161217791815260200190565b60405180910390a2505050505061218e6001600255565b98975050505050505050565b6001600160a01b0383165f908152600e6020526040812060609190610cd49085856125a3565b6121c86123ce565b5f5160206133d75f395f51905f526121df8161241c565b5f6121e984612426565b90506001600782015460ff16600481111561220657612206612a13565b146122245760405163f8d3970b60e01b815260040160405180910390fd5b5f612232826001015461245e565b6001015490505f61224282612496565b905061224d816124ce565b6007830180546001600160401b034216600160481b0270ffffffffffffffff0000000000000000ff199091161760031790556008830185905560405185815286907f9224b4a88af5217c4d356598e6d221dce8a017591c89a42dbdc378acea064bb79060200160405180910390a2505050505050565b82546060905f90808510612308575f5b6040519080825280602002602001820160405280156122fc578160200160208202803683370190505b50859250925050610cd9565b5f6123138587613314565b9050818111156123205750805b61232a86826131ac565b6001600160401b0381111561234157612341613170565b60405190808252806020026020018201604052801561236a578160200160208202803683370190505b509350855b818110156123c25787818154811061238957612389613184565b905f5260205f20015485888361239f91906131ac565b815181106123af576123af613184565b602090810291909101015260010161236f565b50915050935093915050565b60015460ff16156123f25760405163d93c066560e01b815260040160405180910390fd5b565b600280540361241657604051633ee5aeb560e01b815260040160405180910390fd5b60028055565b610a318133612836565b5f81815260096020526040902060028101546001600160a01b03166112295760405163022af77760e11b815260040160405180910390fd5b5f81815260086020526040902060028101546001600160a01b03166112295760405163720caa4f60e01b815260040160405180910390fd5b5f81815260076020526040902060018101546001600160a01b0316611229576040516379de4af560e01b815260040160405180910390fd5b60018101546001600160a01b03166124f9576040516379de4af560e01b815260040160405180910390fd5b60018101546001600160a01b031633036125105750565b61251a5f33611535565b156125225750565b60405163313418cf60e11b815260040160405180910390fd5b6040516001600160a01b03838116602483015260448201839052610d3e91859182169063a9059cbb906064015b604051602081830303815290604052915060e01b6020820180516001600160e01b038381831617835250505050612878565b5f610723825490565b60605f5f6125b08661259a565b90508085106125bf575f6122d3565b5f6125ca8587613314565b9050818111156125d75750805b6125e186826131ac565b6001600160401b038111156125f8576125f8613170565b604051908082528060200260200182016040528015612621578160200160208202803683370190505b509350855b818110156123c25761263888826128e4565b8561264389846131ac565b8151811061265357612653613184565b6020908102919091010152600101612626565b5f6126718383611535565b6126ee575f838152602081815260408083206001600160a01b03861684529091529020805460ff191660011790556126a63390565b6001600160a01b0316826001600160a01b0316847f2f8788117e7eff1d82e926ec794901d17c78024a50270940304540a733656f0d60405160405180910390a4506001610723565b505f610723565b5f6127008383611535565b156126ee575f838152602081815260408083206001600160a01b0386168085529252808320805460ff1916905551339286917ff6391f5c32d9c69d2a47ea670b442974b53935d1edc7fd64eb21e047a839171b9190a4506001610723565b6127666128ef565b6001805460ff191690557f5db9ee0a495bf2e6ff9c91a7834c1ba4fdd244a5e8aa4e537bd38aeae4b073aa335b6040516001600160a01b03909116815260200160405180910390a1565b6040516001600160a01b038481166024830152838116604483015260648201839052610d059186918216906323b872dd90608401612568565b5f6127f48383612912565b9392505050565b6128036123ce565b6001805460ff1916811790557f62e78cea01bee320cd4e420270b5ea74000d11b0c9f74754ebdbfc544b05a25833612793565b6128408282611535565b6128745760405163e2517d3f60e01b81526001600160a01b0382166004820152602481018390526044015b60405180910390fd5b5050565b5f5f60205f8451602086015f885af180612897576040513d5f823e3d81fd5b50505f513d915081156128ae5780600114156128bb565b6001600160a01b0384163b155b15610d0557604051635274afe760e01b81526001600160a01b038516600482015260240161286b565b5f6127f48383612957565b60015460ff166123f257604051638dfc202b60e01b815260040160405180910390fd5b5f8181526001830160205260408120546126ee57508154600181810184555f848152602080822090930184905584548482528286019093526040902091909155610723565b5f825f01828154811061296c5761296c613184565b905f5260205f200154905092915050565b6040518060e001604052805f81526020015f81526020015f6001600160a01b031681526020015f81526020015f81526020015f81526020015f60048111156129c7576129c7612a13565b905290565b5f602082840312156129dc575f5ffd5b81356001600160e01b0319811681146127f4575f5ffd5b5f5f60408385031215612a04575f5ffd5b50508035926020909101359150565b634e487b7160e01b5f52602160045260245ffd5b60058110612a3757612a37612a13565b9052565b604080825283519082018190525f9060208501906060840190835b81811015612ac9578351805184526020810151602085015260018060a01b036040820151166040850152606081015160608501526080810151608085015260a081015160a085015260c08101519050612ab260c0850182612a27565b506020939093019260e09290920191600101612a56565b5050602093909301939093525092915050565b5f60208284031215612aec575f5ffd5b5035919050565b80356001600160a01b0381168114611229575f5ffd5b803563ffffffff81168114611229575f5ffd5b5f5f83601f840112612b2c575f5ffd5b5081356001600160401b03811115612b42575f5ffd5b602083019150836020828501011115612b59575f5ffd5b9250929050565b5f5f5f5f5f5f5f60c0888a031215612b76575f5ffd5b612b7f88612af3565b96506020880135955060408801359450612b9b60608901612b09565b93506080880135925060a08801356001600160401b03811115612bbc575f5ffd5b612bc88a828b01612b1c565b989b979a50959850939692959293505050565b5f60208284031215612beb575f5ffd5b6127f482612af3565b5f5f5f60608486031215612c06575f5ffd5b612c0f84612af3565b95602085013595506040909401359392505050565b604080825283519082018190525f9060208501906060840190835b81811015612ac9578351835260209384019390920191600101612c3f565b5f5f60408385031215612c6e575f5ffd5b82359150612c7e60208401612af3565b90509250929050565b5f81518084528060208401602086015e5f602082860101526020601f19601f83011685010191505092915050565b8a81526001600160a01b038a8116602083015289166040820152606081018890526080810187905263ffffffff861660a082015260c0810185905283151560e08201526001600160401b03831661010082015261014061012082018190525f90612d2190830184612c87565b9c9b505050505050505050505050565b8015158114610a31575f5ffd5b5f5f60408385031215612d4f575f5ffd5b823591506020830135612d6181612d31565b809150509250929050565b604080825283519082018190525f9060208501906060840190835b81811015612ac95783518051845260018060a01b03602082015116602085015260018060a01b036040820151166040850152606081015160608501526080810151608085015263ffffffff60a08201511660a085015260c081015160c085015260e08101519050612dfc60e085018215159052565b50602093909301926101009290920191600101612d87565b8c8152602081018c90526001600160a01b038b166040820152606081018a90526080810189905260a0810188905260c081018790526101808101612e5b60e0830188612a27565b6001600160401b0395861661010083015293851661012082015291909316610140820152610160019190915298975050505050505050565b60038110612a3757612a37612a13565b604080825283519082018190525f9060208501906060840190835b81811015612ac9578351805184526020810151602085015260018060a01b0360408201511660408501526001600160401b0360608201511660608501526001600160401b03608082015116608085015260a08101519050612f2260a0850182612e93565b506020939093019260c09290920191600101612ebe565b60208152815160208201525f6020830151612f5f60408401826001600160a01b03169052565b5060408301516001600160a01b03811660608401525060608301516080830152608083015160a083015260a0830151612fa060c084018263ffffffff169052565b5060c083015160e083015260e0830151612fbf61010084018215159052565b506101008301516001600160401b0381166101208401525061012083015161014080840152612ff2610160840182612c87565b949350505050565b878152602081018790526001600160a01b03861660408201526001600160401b0385811660608301528416608082015260e0810161303b60a0830185612e93565b6001600160401b03831660c083015298975050505050505050565b5f5f5f5f5f5f5f5f60e0898b03121561306d575f5ffd5b61307689612af3565b9750602089013596506040890135955061309260608a01612b09565b94506080890135935060a08901356001600160401b038111156130b3575f5ffd5b6130bf8b828c01612b1c565b999c989b50969995989497949560c00135949350505050565b8060408101831015610723575f5ffd5b5f5f5f5f5f5f5f5f610220898b031215613100575f5ffd5b883597506020890135965060408901359550606089013594506131268a60808b016130d8565b935061014089018a811115613139575f5ffd5b60c08a0193506131498b826130d8565b925050896102208a01111561315c575f5ffd5b610180890190509295985092959890939650565b634e487b7160e01b5f52604160045260245ffd5b634e487b7160e01b5f52603260045260245ffd5b634e487b7160e01b5f52601160045260245ffd5b8181038181111561072357610723613198565b5f600182016131d0576131d0613198565b5060010190565b600181811c908216806131eb57607f821691505b60208210810361320957634e487b7160e01b5f52602260045260245ffd5b50919050565b601f821115610d3e57805f5260205f20601f840160051c810160208510156132345750805b601f840160051c820191505b81811015613253575f8155600101613240565b5050505050565b81516001600160401b0381111561327357613273613170565b6132878161328184546131d7565b8461320f565b6020601f8211600181146132b9575f83156132a25750848201515b5f19600385901b1c1916600184901b178455613253565b5f84815260208120601f198516915b828110156132e857878501518255602094850194600190920191016132c8565b508482101561330557868401515f19600387901b60f8161c191681555b50505050600190811b01905550565b8082018082111561072357610723613198565b808202811582820484141761072357610723613198565b5f8261335857634e487b7160e01b5f52601260045260245ffd5b500690565b6101a08101604086833760408201855f5b600281101561338f576040828437604092830192919091019060010161336e565b50505060408460c084013760a08361010084013795945050505050565b5f602082840312156133bc575f5ffd5b81516127f481612d31565b60a0818101908383379291505056feeb0a07781e3ee843c0d85f7381c2e1a1e1a6ea86bcdcd944ef649d46e7dcd972eca6714fcf568fb34cf9db4a414cb0cc48e93c5d4e1ba0582a46ea3704cf24d5a2646970667358221220bcb483bf273b939360ea1e135d58aa1c60204e84e9fd3925a8d0a070e4401b0e64736f6c634300081c0033",
  "linkReferences": {},
  "deployedLinkReferences": {},
  "immutableReferences": {},
  "inputSourceName": "project/contracts/ZKMedicalInsurance.sol",
  "buildInfoId": "solc-0_8_28-834ac79b198dd94de0261248d9dfe76b92835cb2"
}